{
  "_format": "hh-sol-artifact-1",
  "contractName": "LepakLifestyle",
  "sourceName": "contracts/LepakLifestyle.sol",
  "abi": [
    {
      "inputs": [
        {
          "internalType": "address",
          "name": "_coreAddr",
          "type": "address"
        }
      ],
      "stateMutability": "nonpayable",
      "type": "constructor"
    },
    {
      "anonymous": false,
      "inputs": [
        {
          "indexed": false,
          "internalType": "address",
          "name": "user",
          "type": "address"
        },
        {
          "indexed": false,
          "internalType": "uint256",
          "name": "hh_index",
          "type": "uint256"
        }
      ],
      "name": "AppliedForStay",
      "type": "event"
    },
    {
      "anonymous": false,
      "inputs": [
        {
          "indexed": false,
          "internalType": "address",
          "name": "user",
          "type": "address"
        },
        {
          "indexed": false,
          "internalType": "uint256",
          "name": "hh_index",
          "type": "uint256"
        }
      ],
      "name": "ApprovedForStay",
      "type": "event"
    },
    {
      "anonymous": false,
      "inputs": [
        {
          "indexed": true,
          "internalType": "address",
          "name": "previousOwner",
          "type": "address"
        },
        {
          "indexed": true,
          "internalType": "address",
          "name": "newOwner",
          "type": "address"
        }
      ],
      "name": "OwnershipTransferred",
      "type": "event"
    },
    {
      "anonymous": false,
      "inputs": [
        {
          "indexed": false,
          "internalType": "string",
          "name": "hh_uri",
          "type": "string"
        }
      ],
      "name": "StayAdded",
      "type": "event"
    },
    {
      "inputs": [
        {
          "internalType": "string",
          "name": "stayURI",
          "type": "string"
        },
        {
          "internalType": "uint256[]",
          "name": "_pricesPerRoom",
          "type": "uint256[]"
        }
      ],
      "name": "addStay",
      "outputs": [],
      "stateMutability": "nonpayable",
      "type": "function"
    },
    {
      "inputs": [
        {
          "internalType": "uint256",
          "name": "_stayId",
          "type": "uint256"
        }
      ],
      "name": "applyForStay",
      "outputs": [],
      "stateMutability": "nonpayable",
      "type": "function"
    },
    {
      "inputs": [
        {
          "internalType": "uint256",
          "name": "_stayId",
          "type": "uint256"
        },
        {
          "internalType": "address[]",
          "name": "_applicants",
          "type": "address[]"
        }
      ],
      "name": "approveForStay",
      "outputs": [],
      "stateMutability": "nonpayable",
      "type": "function"
    },
    {
      "inputs": [],
      "name": "coreContract",
      "outputs": [
        {
          "internalType": "contract ILepakCore",
          "name": "",
          "type": "address"
        }
      ],
      "stateMutability": "view",
      "type": "function"
    },
    {
      "inputs": [],
      "name": "getStays",
      "outputs": [
        {
          "components": [
            {
              "internalType": "uint256[]",
              "name": "pricesPerRoom",
              "type": "uint256[]"
            },
            {
              "internalType": "string",
              "name": "stayURI",
              "type": "string"
            }
          ],
          "internalType": "struct LepakStay[]",
          "name": "",
          "type": "tuple[]"
        }
      ],
      "stateMutability": "view",
      "type": "function"
    },
    {
      "inputs": [
        {
          "internalType": "uint256",
          "name": "_stayId",
          "type": "uint256"
        },
        {
          "internalType": "address",
          "name": "_member",
          "type": "address"
        }
      ],
      "name": "isApprovedForStay",
      "outputs": [
        {
          "internalType": "bool",
          "name": "",
          "type": "bool"
        }
      ],
      "stateMutability": "view",
      "type": "function"
    },
    {
      "inputs": [],
      "name": "owner",
      "outputs": [
        {
          "internalType": "address",
          "name": "",
          "type": "address"
        }
      ],
      "stateMutability": "view",
      "type": "function"
    },
    {
      "inputs": [],
      "name": "renounceOwnership",
      "outputs": [],
      "stateMutability": "nonpayable",
      "type": "function"
    },
    {
      "inputs": [
        {
          "internalType": "uint256",
          "name": "",
          "type": "uint256"
        },
        {
          "internalType": "uint256",
          "name": "",
          "type": "uint256"
        }
      ],
      "name": "stayApplications",
      "outputs": [
        {
          "internalType": "address",
          "name": "",
          "type": "address"
        }
      ],
      "stateMutability": "view",
      "type": "function"
    },
    {
      "inputs": [
        {
          "internalType": "uint256",
          "name": "",
          "type": "uint256"
        }
      ],
      "name": "stays",
      "outputs": [
        {
          "internalType": "string",
          "name": "stayURI",
          "type": "string"
        }
      ],
      "stateMutability": "view",
      "type": "function"
    },
    {
      "inputs": [
        {
          "internalType": "address",
          "name": "newOwner",
          "type": "address"
        }
      ],
      "name": "transferOwnership",
      "outputs": [],
      "stateMutability": "nonpayable",
      "type": "function"
    }
  ],
  "bytecode": "0x60a06040523480156200001157600080fd5b5060405162001d9938038062001d998339818101604052810190620000379190620001c8565b620000576200004b6200009260201b60201c565b6200009a60201b60201c565b8073ffffffffffffffffffffffffffffffffffffffff1660808173ffffffffffffffffffffffffffffffffffffffff168152505050620001fa565b600033905090565b60008060009054906101000a900473ffffffffffffffffffffffffffffffffffffffff169050816000806101000a81548173ffffffffffffffffffffffffffffffffffffffff021916908373ffffffffffffffffffffffffffffffffffffffff1602179055508173ffffffffffffffffffffffffffffffffffffffff168173ffffffffffffffffffffffffffffffffffffffff167f8be0079c531659141344cd1fd0a4f28419497f9722a3daafe3b4186f6b6457e060405160405180910390a35050565b600080fd5b600073ffffffffffffffffffffffffffffffffffffffff82169050919050565b6000620001908262000163565b9050919050565b620001a28162000183565b8114620001ae57600080fd5b50565b600081519050620001c28162000197565b92915050565b600060208284031215620001e157620001e06200015e565b5b6000620001f184828501620001b1565b91505092915050565b608051611b6e6200022b6000396000818161027c01528181610857015281816109520152610b6b0152611b6e6000f3fe608060405234801561001057600080fd5b50600436106100a95760003560e01c806376c653261161007157806376c65326146101525780638da5cb5b1461016e578063c382e39a1461018c578063d40409d4146101bc578063e80db5db146101d8578063f2fde38b146101f6576100a9565b80633288fccb146100ae578063382ecbb4146100de57806352036639146100fa578063647c664d1461012a578063715018a614610148575b600080fd5b6100c860048036038101906100c39190610f31565b610212565b6040516100d59190610f8c565b60405180910390f35b6100f860048036038101906100f39190610fa7565b61027a565b005b610114600480360381019061010f9190610fd4565b61046b565b6040516101219190611023565b60405180910390f35b6101326104b9565b60405161013f919061129b565b60405180910390f35b61015061067d565b005b61016c60048036038101906101679190611452565b610691565b005b610176610786565b6040516101839190611023565b60405180910390f35b6101a660048036038101906101a19190610fa7565b6107af565b6040516101b39190611518565b60405180910390f35b6101d660048036038101906101d19190611590565b610855565b005b6101e0610b69565b6040516101ed919061164f565b60405180910390f35b610210600480360381019061020b919061166a565b610b8d565b005b60006004600084815260200190815260200160002060008373ffffffffffffffffffffffffffffffffffffffff1673ffffffffffffffffffffffffffffffffffffffff16815260200190815260200160002060009054906101000a900460ff16905092915050565b7f000000000000000000000000000000000000000000000000000000000000000073ffffffffffffffffffffffffffffffffffffffff1663a230c524336040518263ffffffff1660e01b81526004016102d39190611023565b60206040518083038186803b1580156102eb57600080fd5b505afa1580156102ff573d6000803e3d6000fd5b505050506040513d601f19601f8201168201806040525081019061032391906116c3565b610362576040517f08c379a00000000000000000000000000000000000000000000000000000000081526004016103599061173c565b60405180910390fd5b6000811415801561037c57506103786001610c11565b8111155b6103bb576040517f08c379a00000000000000000000000000000000000000000000000000000000081526004016103b2906117a8565b60405180910390fd5b60036000828152602001908152602001600020339080600181540180825580915050600190039060005260206000200160009091909190916101000a81548173ffffffffffffffffffffffffffffffffffffffff021916908373ffffffffffffffffffffffffffffffffffffffff1602179055507f470b0b5fd4167f7b35ca6d79a4d907767c6ddb2efed8534903cd56ee2d53411f33826040516104609291906117d7565b60405180910390a150565b6003602052816000526040600020818154811061048757600080fd5b906000526020600020016000915091509054906101000a900473ffffffffffffffffffffffffffffffffffffffff1681565b606060006104c76001610c11565b905060008167ffffffffffffffff8111156104e5576104e46112c7565b5b60405190808252806020026020018201604052801561051e57816020015b61050b610d7f565b8152602001906001900390816105035790505b5090506000600190505b82811161067457600260008281526020019081526020016000206040518060400160405290816000820180548060200260200160405190810160405280929190818152602001828054801561059c57602002820191906000526020600020905b815481526020019060010190808311610588575b505050505081526020016001820180546105b59061182f565b80601f01602080910402602001604051908101604052809291908181526020018280546105e19061182f565b801561062e5780601f106106035761010080835404028352916020019161062e565b820191906000526020600020905b81548152906001019060200180831161061157829003601f168201915b505050505081525050826001836106459190611890565b81518110610656576106556118c4565b5b6020026020010181905250808061066c906118f3565b915050610528565b50809250505090565b610685610c1f565b61068f6000610c9d565b565b61069b6001610d61565b6040518060400160405280838380806020026020016040519081016040528093929190818152602001838360200280828437600081840152601f19601f82011690508083019250505050505050815260200184815250600260006106ff6001610c11565b81526020019081526020016000206000820151816000019080519060200190610729929190610d99565b506020820151816001019080519060200190610746929190610de6565b509050507f35234ea318d79d8b916f55f9f9145c5889712b3d716ed239dc05865e8f853bed836040516107799190611518565b60405180910390a1505050565b60008060009054906101000a900473ffffffffffffffffffffffffffffffffffffffff16905090565b60026020528060005260406000206000915090508060010180546107d29061182f565b80601f01602080910402602001604051908101604052809291908181526020018280546107fe9061182f565b801561084b5780601f106108205761010080835404028352916020019161084b565b820191906000526020600020905b81548152906001019060200180831161082e57829003601f168201915b5050505050905081565b7f000000000000000000000000000000000000000000000000000000000000000073ffffffffffffffffffffffffffffffffffffffff16638988b284336040518263ffffffff1660e01b81526004016108ae9190611023565b60206040518083038186803b1580156108c657600080fd5b505afa1580156108da573d6000803e3d6000fd5b505050506040513d601f19601f820116820180604052508101906108fe91906116c3565b61093d576040517f08c379a000000000000000000000000000000000000000000000000000000000815260040161093490611988565b60405180910390fd5b600082829050905060005b81811015610b62577f000000000000000000000000000000000000000000000000000000000000000073ffffffffffffffffffffffffffffffffffffffff1663a230c52485858481811061099f5761099e6118c4565b5b90506020020160208101906109b4919061166a565b6040518263ffffffff1660e01b81526004016109d09190611023565b60206040518083038186803b1580156109e857600080fd5b505afa1580156109fc573d6000803e3d6000fd5b505050506040513d601f19601f82011682018060405250810190610a2091906116c3565b610a5f576040517f08c379a0000000000000000000000000000000000000000000000000000000008152600401610a5690611a1a565b60405180910390fd5b6001600460008781526020019081526020016000206000868685818110610a8957610a886118c4565b5b9050602002016020810190610a9e919061166a565b73ffffffffffffffffffffffffffffffffffffffff1673ffffffffffffffffffffffffffffffffffffffff16815260200190815260200160002060006101000a81548160ff0219169083151502179055507f135018eb03934262a193f440c1ef436cbaf912fe553a59f6d63108d1e6f0e347848483818110610b2357610b226118c4565b5b9050602002016020810190610b38919061166a565b86604051610b479291906117d7565b60405180910390a18080610b5a906118f3565b915050610948565b5050505050565b7f000000000000000000000000000000000000000000000000000000000000000081565b610b95610c1f565b600073ffffffffffffffffffffffffffffffffffffffff168173ffffffffffffffffffffffffffffffffffffffff161415610c05576040517f08c379a0000000000000000000000000000000000000000000000000000000008152600401610bfc90611aac565b60405180910390fd5b610c0e81610c9d565b50565b600081600001549050919050565b610c27610d77565b73ffffffffffffffffffffffffffffffffffffffff16610c45610786565b73ffffffffffffffffffffffffffffffffffffffff1614610c9b576040517f08c379a0000000000000000000000000000000000000000000000000000000008152600401610c9290611b18565b60405180910390fd5b565b60008060009054906101000a900473ffffffffffffffffffffffffffffffffffffffff169050816000806101000a81548173ffffffffffffffffffffffffffffffffffffffff021916908373ffffffffffffffffffffffffffffffffffffffff1602179055508173ffffffffffffffffffffffffffffffffffffffff168173ffffffffffffffffffffffffffffffffffffffff167f8be0079c531659141344cd1fd0a4f28419497f9722a3daafe3b4186f6b6457e060405160405180910390a35050565b6001816000016000828254019250508190555050565b600033905090565b604051806040016040528060608152602001606081525090565b828054828255906000526020600020908101928215610dd5579160200282015b82811115610dd4578251825591602001919060010190610db9565b5b509050610de29190610e6c565b5090565b828054610df29061182f565b90600052602060002090601f016020900481019282610e145760008555610e5b565b82601f10610e2d57805160ff1916838001178555610e5b565b82800160010185558215610e5b579182015b82811115610e5a578251825591602001919060010190610e3f565b5b509050610e689190610e6c565b5090565b5b80821115610e85576000816000905550600101610e6d565b5090565b6000604051905090565b600080fd5b600080fd5b6000819050919050565b610eb081610e9d565b8114610ebb57600080fd5b50565b600081359050610ecd81610ea7565b92915050565b600073ffffffffffffffffffffffffffffffffffffffff82169050919050565b6000610efe82610ed3565b9050919050565b610f0e81610ef3565b8114610f1957600080fd5b50565b600081359050610f2b81610f05565b92915050565b60008060408385031215610f4857610f47610e93565b5b6000610f5685828601610ebe565b9250506020610f6785828601610f1c565b9150509250929050565b60008115159050919050565b610f8681610f71565b82525050565b6000602082019050610fa16000830184610f7d565b92915050565b600060208284031215610fbd57610fbc610e93565b5b6000610fcb84828501610ebe565b91505092915050565b60008060408385031215610feb57610fea610e93565b5b6000610ff985828601610ebe565b925050602061100a85828601610ebe565b9150509250929050565b61101d81610ef3565b82525050565b60006020820190506110386000830184611014565b92915050565b600081519050919050565b600082825260208201905092915050565b6000819050602082019050919050565b600081519050919050565b600082825260208201905092915050565b6000819050602082019050919050565b61109f81610e9d565b82525050565b60006110b18383611096565b60208301905092915050565b6000602082019050919050565b60006110d58261106a565b6110df8185611075565b93506110ea83611086565b8060005b8381101561111b57815161110288826110a5565b975061110d836110bd565b9250506001810190506110ee565b5085935050505092915050565b600081519050919050565b600082825260208201905092915050565b60005b83811015611162578082015181840152602081019050611147565b83811115611171576000848401525b50505050565b6000601f19601f8301169050919050565b600061119382611128565b61119d8185611133565b93506111ad818560208601611144565b6111b681611177565b840191505092915050565b600060408301600083015184820360008601526111de82826110ca565b915050602083015184820360208601526111f88282611188565b9150508091505092915050565b600061121183836111c1565b905092915050565b6000602082019050919050565b60006112318261103e565b61123b8185611049565b93508360208202850161124d8561105a565b8060005b85811015611289578484038952815161126a8582611205565b945061127583611219565b925060208a01995050600181019050611251565b50829750879550505050505092915050565b600060208201905081810360008301526112b58184611226565b905092915050565b600080fd5b600080fd5b7f4e487b7100000000000000000000000000000000000000000000000000000000600052604160045260246000fd5b6112ff82611177565b810181811067ffffffffffffffff8211171561131e5761131d6112c7565b5b80604052505050565b6000611331610e89565b905061133d82826112f6565b919050565b600067ffffffffffffffff82111561135d5761135c6112c7565b5b61136682611177565b9050602081019050919050565b82818337600083830152505050565b600061139561139084611342565b611327565b9050828152602081018484840111156113b1576113b06112c2565b5b6113bc848285611373565b509392505050565b600082601f8301126113d9576113d86112bd565b5b81356113e9848260208601611382565b91505092915050565b600080fd5b600080fd5b60008083601f840112611412576114116112bd565b5b8235905067ffffffffffffffff81111561142f5761142e6113f2565b5b60208301915083602082028301111561144b5761144a6113f7565b5b9250929050565b60008060006040848603121561146b5761146a610e93565b5b600084013567ffffffffffffffff81111561148957611488610e98565b5b611495868287016113c4565b935050602084013567ffffffffffffffff8111156114b6576114b5610e98565b5b6114c2868287016113fc565b92509250509250925092565b600082825260208201905092915050565b60006114ea82611128565b6114f481856114ce565b9350611504818560208601611144565b61150d81611177565b840191505092915050565b6000602082019050818103600083015261153281846114df565b905092915050565b60008083601f8401126115505761154f6112bd565b5b8235905067ffffffffffffffff81111561156d5761156c6113f2565b5b602083019150836020820283011115611589576115886113f7565b5b9250929050565b6000806000604084860312156115a9576115a8610e93565b5b60006115b786828701610ebe565b935050602084013567ffffffffffffffff8111156115d8576115d7610e98565b5b6115e48682870161153a565b92509250509250925092565b6000819050919050565b600061161561161061160b84610ed3565b6115f0565b610ed3565b9050919050565b6000611627826115fa565b9050919050565b60006116398261161c565b9050919050565b6116498161162e565b82525050565b60006020820190506116646000830184611640565b92915050565b6000602082840312156116805761167f610e93565b5b600061168e84828501610f1c565b91505092915050565b6116a081610f71565b81146116ab57600080fd5b50565b6000815190506116bd81611697565b92915050565b6000602082840312156116d9576116d8610e93565b5b60006116e7848285016116ae565b91505092915050565b7f63616c6c6572206973206e6f742061206d656d62657200000000000000000000600082015250565b60006117266016836114ce565b9150611731826116f0565b602082019050919050565b6000602082019050818103600083015261175581611719565b9050919050565b7f74686973207374617920696420646f65736e7420657869737400000000000000600082015250565b60006117926019836114ce565b915061179d8261175c565b602082019050919050565b600060208201905081810360008301526117c181611785565b9050919050565b6117d181610e9d565b82525050565b60006040820190506117ec6000830185611014565b6117f960208301846117c8565b9392505050565b7f4e487b7100000000000000000000000000000000000000000000000000000000600052602260045260246000fd5b6000600282049050600182168061184757607f821691505b6020821081141561185b5761185a611800565b5b50919050565b7f4e487b7100000000000000000000000000000000000000000000000000000000600052601160045260246000fd5b600061189b82610e9d565b91506118a683610e9d565b9250828210156118b9576118b8611861565b5b828203905092915050565b7f4e487b7100000000000000000000000000000000000000000000000000000000600052603260045260246000fd5b60006118fe82610e9d565b91507fffffffffffffffffffffffffffffffffffffffffffffffffffffffffffffffff82141561193157611930611861565b5b600182019050919050565b7f63616c6c6572206973206e6f742061206d6f6400000000000000000000000000600082015250565b60006119726013836114ce565b915061197d8261193c565b602082019050919050565b600060208201905081810360008301526119a181611965565b9050919050565b7f4170706c6963616e74206973206e6f742061206d656d626572206f66204c657060008201527f616b000000000000000000000000000000000000000000000000000000000000602082015250565b6000611a046022836114ce565b9150611a0f826119a8565b604082019050919050565b60006020820190508181036000830152611a33816119f7565b9050919050565b7f4f776e61626c653a206e6577206f776e657220697320746865207a65726f206160008201527f6464726573730000000000000000000000000000000000000000000000000000602082015250565b6000611a966026836114ce565b9150611aa182611a3a565b604082019050919050565b60006020820190508181036000830152611ac581611a89565b9050919050565b7f4f776e61626c653a2063616c6c6572206973206e6f7420746865206f776e6572600082015250565b6000611b026020836114ce565b9150611b0d82611acc565b602082019050919050565b60006020820190508181036000830152611b3181611af5565b905091905056fea2646970667358221220476478d792fa002ff2bbe39a47094c6d02117e34dbf7a246deb8caa2729ae7c764736f6c63430008090033",
  "linkReferences": {},
  "deployedLinkReferences": {}
}