{
  "_format": "hh-sol-artifact-1",
  "contractName": "LepakLifestyle",
  "sourceName": "contracts/LepakLifestyle.sol",
  "abi": [
    {
      "inputs": [
        {
          "internalType": "address",
          "name": "_coreAddr",
          "type": "address"
        }
      ],
      "stateMutability": "nonpayable",
      "type": "constructor"
    },
    {
      "anonymous": false,
      "inputs": [
        {
          "indexed": false,
          "internalType": "address",
          "name": "user",
          "type": "address"
        },
        {
          "indexed": false,
          "internalType": "uint256",
          "name": "hh_index",
          "type": "uint256"
        }
      ],
      "name": "AppliedForStay",
      "type": "event"
    },
    {
      "anonymous": false,
      "inputs": [
        {
          "indexed": false,
          "internalType": "address",
          "name": "user",
          "type": "address"
        },
        {
          "indexed": false,
          "internalType": "uint256",
          "name": "hh_index",
          "type": "uint256"
        }
      ],
      "name": "ApprovedForStay",
      "type": "event"
    },
    {
      "anonymous": false,
      "inputs": [
        {
          "indexed": true,
          "internalType": "address",
          "name": "previousOwner",
          "type": "address"
        },
        {
          "indexed": true,
          "internalType": "address",
          "name": "newOwner",
          "type": "address"
        }
      ],
      "name": "OwnershipTransferred",
      "type": "event"
    },
    {
      "anonymous": false,
      "inputs": [
        {
          "indexed": false,
          "internalType": "string",
          "name": "hh_uri",
          "type": "string"
        }
      ],
      "name": "StayAdded",
      "type": "event"
    },
    {
      "inputs": [
        {
          "internalType": "string",
          "name": "stayURI",
          "type": "string"
        },
        {
          "internalType": "uint256[]",
          "name": "_pricesPerRoom",
          "type": "uint256[]"
        }
      ],
      "name": "addStay",
      "outputs": [],
      "stateMutability": "nonpayable",
      "type": "function"
    },
    {
      "inputs": [
        {
          "internalType": "uint256",
          "name": "_stayId",
          "type": "uint256"
        }
      ],
      "name": "applyForStay",
      "outputs": [],
      "stateMutability": "nonpayable",
      "type": "function"
    },
    {
      "inputs": [
        {
          "internalType": "uint256",
          "name": "_stayId",
          "type": "uint256"
        },
        {
          "internalType": "address[]",
          "name": "_applicants",
          "type": "address[]"
        }
      ],
      "name": "approveForStay",
      "outputs": [],
      "stateMutability": "nonpayable",
      "type": "function"
    },
    {
      "inputs": [],
      "name": "coreContract",
      "outputs": [
        {
          "internalType": "contract ILepakCore",
          "name": "",
          "type": "address"
        }
      ],
      "stateMutability": "view",
      "type": "function"
    },
    {
      "inputs": [],
      "name": "getStays",
      "outputs": [
        {
          "components": [
            {
              "internalType": "uint256[]",
              "name": "pricesPerRoom",
              "type": "uint256[]"
            },
            {
              "internalType": "string",
              "name": "stayURI",
              "type": "string"
            }
          ],
          "internalType": "struct LepakStay[]",
          "name": "",
          "type": "tuple[]"
        }
      ],
      "stateMutability": "view",
      "type": "function"
    },
    {
      "inputs": [
        {
          "internalType": "uint256",
          "name": "_stayId",
          "type": "uint256"
        },
        {
          "internalType": "address",
          "name": "_member",
          "type": "address"
        }
      ],
      "name": "isApprovedForStay",
      "outputs": [
        {
          "internalType": "bool",
          "name": "",
          "type": "bool"
        }
      ],
      "stateMutability": "view",
      "type": "function"
    },
    {
      "inputs": [],
      "name": "owner",
      "outputs": [
        {
          "internalType": "address",
          "name": "",
          "type": "address"
        }
      ],
      "stateMutability": "view",
      "type": "function"
    },
    {
      "inputs": [],
      "name": "renounceOwnership",
      "outputs": [],
      "stateMutability": "nonpayable",
      "type": "function"
    },
    {
      "inputs": [
        {
          "internalType": "uint256",
          "name": "",
          "type": "uint256"
        },
        {
          "internalType": "uint256",
          "name": "",
          "type": "uint256"
        }
      ],
      "name": "stayApplications",
      "outputs": [
        {
          "internalType": "address",
          "name": "",
          "type": "address"
        }
      ],
      "stateMutability": "view",
      "type": "function"
    },
    {
      "inputs": [
        {
          "internalType": "uint256",
          "name": "",
          "type": "uint256"
        }
      ],
      "name": "stays",
      "outputs": [
        {
          "internalType": "string",
          "name": "stayURI",
          "type": "string"
        }
      ],
      "stateMutability": "view",
      "type": "function"
    },
    {
      "inputs": [
        {
          "internalType": "address",
          "name": "newOwner",
          "type": "address"
        }
      ],
      "name": "transferOwnership",
      "outputs": [],
      "stateMutability": "nonpayable",
      "type": "function"
    }
  ],
  "bytecode": "0x60a06040523480156200001157600080fd5b5060405162001c3e38038062001c3e8339818101604052810190620000379190620001c8565b620000576200004b6200009260201b60201c565b6200009a60201b60201c565b8073ffffffffffffffffffffffffffffffffffffffff1660808173ffffffffffffffffffffffffffffffffffffffff168152505050620001fa565b600033905090565b60008060009054906101000a900473ffffffffffffffffffffffffffffffffffffffff169050816000806101000a81548173ffffffffffffffffffffffffffffffffffffffff021916908373ffffffffffffffffffffffffffffffffffffffff1602179055508173ffffffffffffffffffffffffffffffffffffffff168173ffffffffffffffffffffffffffffffffffffffff167f8be0079c531659141344cd1fd0a4f28419497f9722a3daafe3b4186f6b6457e060405160405180910390a35050565b600080fd5b600073ffffffffffffffffffffffffffffffffffffffff82169050919050565b6000620001908262000163565b9050919050565b620001a28162000183565b8114620001ae57600080fd5b50565b600081519050620001c28162000197565b92915050565b600060208284031215620001e157620001e06200015e565b5b6000620001f184828501620001b1565b91505092915050565b608051611a1a620002246000396000818161076f0152818161086a0152610a830152611a1a6000f3fe608060405234801561001057600080fd5b50600436106100a95760003560e01c806376c653261161007157806376c65326146101525780638da5cb5b1461016e578063c382e39a1461018c578063d40409d4146101bc578063e80db5db146101d8578063f2fde38b146101f6576100a9565b80633288fccb146100ae578063382ecbb4146100de57806352036639146100fa578063647c664d1461012a578063715018a614610148575b600080fd5b6100c860048036038101906100c39190610e49565b610212565b6040516100d59190610ea4565b60405180910390f35b6100f860048036038101906100f39190610ebf565b61027a565b005b610114600480360381019061010f9190610eec565b610383565b6040516101219190610f3b565b60405180910390f35b6101326103d1565b60405161013f91906111b3565b60405180910390f35b610150610595565b005b61016c6004803603810190610167919061136a565b6105a9565b005b61017661069e565b6040516101839190610f3b565b60405180910390f35b6101a660048036038101906101a19190610ebf565b6106c7565b6040516101b39190611430565b60405180910390f35b6101d660048036038101906101d191906114a8565b61076d565b005b6101e0610a81565b6040516101ed9190611567565b60405180910390f35b610210600480360381019061020b9190611582565b610aa5565b005b60006004600084815260200190815260200160002060008373ffffffffffffffffffffffffffffffffffffffff1673ffffffffffffffffffffffffffffffffffffffff16815260200190815260200160002060009054906101000a900460ff16905092915050565b6000811415801561029457506102906001610b29565b8111155b6102d3576040517f08c379a00000000000000000000000000000000000000000000000000000000081526004016102ca906115fb565b60405180910390fd5b60036000828152602001908152602001600020339080600181540180825580915050600190039060005260206000200160009091909190916101000a81548173ffffffffffffffffffffffffffffffffffffffff021916908373ffffffffffffffffffffffffffffffffffffffff1602179055507f470b0b5fd4167f7b35ca6d79a4d907767c6ddb2efed8534903cd56ee2d53411f338260405161037892919061162a565b60405180910390a150565b6003602052816000526040600020818154811061039f57600080fd5b906000526020600020016000915091509054906101000a900473ffffffffffffffffffffffffffffffffffffffff1681565b606060006103df6001610b29565b905060008167ffffffffffffffff8111156103fd576103fc6111df565b5b60405190808252806020026020018201604052801561043657816020015b610423610c97565b81526020019060019003908161041b5790505b5090506000600190505b82811161058c5760026000828152602001908152602001600020604051806040016040529081600082018054806020026020016040519081016040528092919081815260200182805480156104b457602002820191906000526020600020905b8154815260200190600101908083116104a0575b505050505081526020016001820180546104cd90611682565b80601f01602080910402602001604051908101604052809291908181526020018280546104f990611682565b80156105465780601f1061051b57610100808354040283529160200191610546565b820191906000526020600020905b81548152906001019060200180831161052957829003601f168201915b5050505050815250508260018361055d91906116e3565b8151811061056e5761056d611717565b5b6020026020010181905250808061058490611746565b915050610440565b50809250505090565b61059d610b37565b6105a76000610bb5565b565b6105b36001610c79565b6040518060400160405280838380806020026020016040519081016040528093929190818152602001838360200280828437600081840152601f19601f82011690508083019250505050505050815260200184815250600260006106176001610b29565b81526020019081526020016000206000820151816000019080519060200190610641929190610cb1565b50602082015181600101908051906020019061065e929190610cfe565b509050507f35234ea318d79d8b916f55f9f9145c5889712b3d716ed239dc05865e8f853bed836040516106919190611430565b60405180910390a1505050565b60008060009054906101000a900473ffffffffffffffffffffffffffffffffffffffff16905090565b60026020528060005260406000206000915090508060010180546106ea90611682565b80601f016020809104026020016040519081016040528092919081815260200182805461071690611682565b80156107635780601f1061073857610100808354040283529160200191610763565b820191906000526020600020905b81548152906001019060200180831161074657829003601f168201915b5050505050905081565b7f000000000000000000000000000000000000000000000000000000000000000073ffffffffffffffffffffffffffffffffffffffff16638988b284336040518263ffffffff1660e01b81526004016107c69190610f3b565b60206040518083038186803b1580156107de57600080fd5b505afa1580156107f2573d6000803e3d6000fd5b505050506040513d601f19601f8201168201806040525081019061081691906117bb565b610855576040517f08c379a000000000000000000000000000000000000000000000000000000000815260040161084c90611834565b60405180910390fd5b600082829050905060005b81811015610a7a577f000000000000000000000000000000000000000000000000000000000000000073ffffffffffffffffffffffffffffffffffffffff1663a230c5248585848181106108b7576108b6611717565b5b90506020020160208101906108cc9190611582565b6040518263ffffffff1660e01b81526004016108e89190610f3b565b60206040518083038186803b15801561090057600080fd5b505afa158015610914573d6000803e3d6000fd5b505050506040513d601f19601f8201168201806040525081019061093891906117bb565b610977576040517f08c379a000000000000000000000000000000000000000000000000000000000815260040161096e906118c6565b60405180910390fd5b60016004600087815260200190815260200160002060008686858181106109a1576109a0611717565b5b90506020020160208101906109b69190611582565b73ffffffffffffffffffffffffffffffffffffffff1673ffffffffffffffffffffffffffffffffffffffff16815260200190815260200160002060006101000a81548160ff0219169083151502179055507f135018eb03934262a193f440c1ef436cbaf912fe553a59f6d63108d1e6f0e347848483818110610a3b57610a3a611717565b5b9050602002016020810190610a509190611582565b86604051610a5f92919061162a565b60405180910390a18080610a7290611746565b915050610860565b5050505050565b7f000000000000000000000000000000000000000000000000000000000000000081565b610aad610b37565b600073ffffffffffffffffffffffffffffffffffffffff168173ffffffffffffffffffffffffffffffffffffffff161415610b1d576040517f08c379a0000000000000000000000000000000000000000000000000000000008152600401610b1490611958565b60405180910390fd5b610b2681610bb5565b50565b600081600001549050919050565b610b3f610c8f565b73ffffffffffffffffffffffffffffffffffffffff16610b5d61069e565b73ffffffffffffffffffffffffffffffffffffffff1614610bb3576040517f08c379a0000000000000000000000000000000000000000000000000000000008152600401610baa906119c4565b60405180910390fd5b565b60008060009054906101000a900473ffffffffffffffffffffffffffffffffffffffff169050816000806101000a81548173ffffffffffffffffffffffffffffffffffffffff021916908373ffffffffffffffffffffffffffffffffffffffff1602179055508173ffffffffffffffffffffffffffffffffffffffff168173ffffffffffffffffffffffffffffffffffffffff167f8be0079c531659141344cd1fd0a4f28419497f9722a3daafe3b4186f6b6457e060405160405180910390a35050565b6001816000016000828254019250508190555050565b600033905090565b604051806040016040528060608152602001606081525090565b828054828255906000526020600020908101928215610ced579160200282015b82811115610cec578251825591602001919060010190610cd1565b5b509050610cfa9190610d84565b5090565b828054610d0a90611682565b90600052602060002090601f016020900481019282610d2c5760008555610d73565b82601f10610d4557805160ff1916838001178555610d73565b82800160010185558215610d73579182015b82811115610d72578251825591602001919060010190610d57565b5b509050610d809190610d84565b5090565b5b80821115610d9d576000816000905550600101610d85565b5090565b6000604051905090565b600080fd5b600080fd5b6000819050919050565b610dc881610db5565b8114610dd357600080fd5b50565b600081359050610de581610dbf565b92915050565b600073ffffffffffffffffffffffffffffffffffffffff82169050919050565b6000610e1682610deb565b9050919050565b610e2681610e0b565b8114610e3157600080fd5b50565b600081359050610e4381610e1d565b92915050565b60008060408385031215610e6057610e5f610dab565b5b6000610e6e85828601610dd6565b9250506020610e7f85828601610e34565b9150509250929050565b60008115159050919050565b610e9e81610e89565b82525050565b6000602082019050610eb96000830184610e95565b92915050565b600060208284031215610ed557610ed4610dab565b5b6000610ee384828501610dd6565b91505092915050565b60008060408385031215610f0357610f02610dab565b5b6000610f1185828601610dd6565b9250506020610f2285828601610dd6565b9150509250929050565b610f3581610e0b565b82525050565b6000602082019050610f506000830184610f2c565b92915050565b600081519050919050565b600082825260208201905092915050565b6000819050602082019050919050565b600081519050919050565b600082825260208201905092915050565b6000819050602082019050919050565b610fb781610db5565b82525050565b6000610fc98383610fae565b60208301905092915050565b6000602082019050919050565b6000610fed82610f82565b610ff78185610f8d565b935061100283610f9e565b8060005b8381101561103357815161101a8882610fbd565b975061102583610fd5565b925050600181019050611006565b5085935050505092915050565b600081519050919050565b600082825260208201905092915050565b60005b8381101561107a57808201518184015260208101905061105f565b83811115611089576000848401525b50505050565b6000601f19601f8301169050919050565b60006110ab82611040565b6110b5818561104b565b93506110c581856020860161105c565b6110ce8161108f565b840191505092915050565b600060408301600083015184820360008601526110f68282610fe2565b9150506020830151848203602086015261111082826110a0565b9150508091505092915050565b600061112983836110d9565b905092915050565b6000602082019050919050565b600061114982610f56565b6111538185610f61565b93508360208202850161116585610f72565b8060005b858110156111a15784840389528151611182858261111d565b945061118d83611131565b925060208a01995050600181019050611169565b50829750879550505050505092915050565b600060208201905081810360008301526111cd818461113e565b905092915050565b600080fd5b600080fd5b7f4e487b7100000000000000000000000000000000000000000000000000000000600052604160045260246000fd5b6112178261108f565b810181811067ffffffffffffffff82111715611236576112356111df565b5b80604052505050565b6000611249610da1565b9050611255828261120e565b919050565b600067ffffffffffffffff821115611275576112746111df565b5b61127e8261108f565b9050602081019050919050565b82818337600083830152505050565b60006112ad6112a88461125a565b61123f565b9050828152602081018484840111156112c9576112c86111da565b5b6112d484828561128b565b509392505050565b600082601f8301126112f1576112f06111d5565b5b813561130184826020860161129a565b91505092915050565b600080fd5b600080fd5b60008083601f84011261132a576113296111d5565b5b8235905067ffffffffffffffff8111156113475761134661130a565b5b6020830191508360208202830111156113635761136261130f565b5b9250929050565b60008060006040848603121561138357611382610dab565b5b600084013567ffffffffffffffff8111156113a1576113a0610db0565b5b6113ad868287016112dc565b935050602084013567ffffffffffffffff8111156113ce576113cd610db0565b5b6113da86828701611314565b92509250509250925092565b600082825260208201905092915050565b600061140282611040565b61140c81856113e6565b935061141c81856020860161105c565b6114258161108f565b840191505092915050565b6000602082019050818103600083015261144a81846113f7565b905092915050565b60008083601f840112611468576114676111d5565b5b8235905067ffffffffffffffff8111156114855761148461130a565b5b6020830191508360208202830111156114a1576114a061130f565b5b9250929050565b6000806000604084860312156114c1576114c0610dab565b5b60006114cf86828701610dd6565b935050602084013567ffffffffffffffff8111156114f0576114ef610db0565b5b6114fc86828701611452565b92509250509250925092565b6000819050919050565b600061152d61152861152384610deb565b611508565b610deb565b9050919050565b600061153f82611512565b9050919050565b600061155182611534565b9050919050565b61156181611546565b82525050565b600060208201905061157c6000830184611558565b92915050565b60006020828403121561159857611597610dab565b5b60006115a684828501610e34565b91505092915050565b7f74686973207374617920696420646f65736e7420657869737400000000000000600082015250565b60006115e56019836113e6565b91506115f0826115af565b602082019050919050565b60006020820190508181036000830152611614816115d8565b9050919050565b61162481610db5565b82525050565b600060408201905061163f6000830185610f2c565b61164c602083018461161b565b9392505050565b7f4e487b7100000000000000000000000000000000000000000000000000000000600052602260045260246000fd5b6000600282049050600182168061169a57607f821691505b602082108114156116ae576116ad611653565b5b50919050565b7f4e487b7100000000000000000000000000000000000000000000000000000000600052601160045260246000fd5b60006116ee82610db5565b91506116f983610db5565b92508282101561170c5761170b6116b4565b5b828203905092915050565b7f4e487b7100000000000000000000000000000000000000000000000000000000600052603260045260246000fd5b600061175182610db5565b91507fffffffffffffffffffffffffffffffffffffffffffffffffffffffffffffffff821415611784576117836116b4565b5b600182019050919050565b61179881610e89565b81146117a357600080fd5b50565b6000815190506117b58161178f565b92915050565b6000602082840312156117d1576117d0610dab565b5b60006117df848285016117a6565b91505092915050565b7f63616c6c6572206973206e6f742061206d6f6400000000000000000000000000600082015250565b600061181e6013836113e6565b9150611829826117e8565b602082019050919050565b6000602082019050818103600083015261184d81611811565b9050919050565b7f4170706c6963616e74206973206e6f742061206d656d626572206f66204c657060008201527f616b000000000000000000000000000000000000000000000000000000000000602082015250565b60006118b06022836113e6565b91506118bb82611854565b604082019050919050565b600060208201905081810360008301526118df816118a3565b9050919050565b7f4f776e61626c653a206e6577206f776e657220697320746865207a65726f206160008201527f6464726573730000000000000000000000000000000000000000000000000000602082015250565b60006119426026836113e6565b915061194d826118e6565b604082019050919050565b6000602082019050818103600083015261197181611935565b9050919050565b7f4f776e61626c653a2063616c6c6572206973206e6f7420746865206f776e6572600082015250565b60006119ae6020836113e6565b91506119b982611978565b602082019050919050565b600060208201905081810360008301526119dd816119a1565b905091905056fea2646970667358221220a38dc4b1d54ca30ff61e764ec7f2db7e42adda8728082de4d909b8b8688c5dfe64736f6c63430008090033",
  "linkReferences": {},
  "deployedLinkReferences": {}
}