{
  "_format": "hh-sol-artifact-1",
  "contractName": "LepakMembership",
  "sourceName": "contracts/LepakMembership.sol",
  "abi": [
    {
      "inputs": [
        {
          "internalType": "string",
          "name": "name",
          "type": "string"
        },
        {
          "internalType": "string",
          "name": "symbol",
          "type": "string"
        },
        {
          "internalType": "string",
          "name": "_baseTokenURI",
          "type": "string"
        },
        {
          "internalType": "address",
          "name": "_orcale_addr",
          "type": "address"
        }
      ],
      "stateMutability": "nonpayable",
      "type": "constructor"
    },
    {
      "anonymous": false,
      "inputs": [
        {
          "indexed": true,
          "internalType": "address",
          "name": "owner",
          "type": "address"
        },
        {
          "indexed": true,
          "internalType": "address",
          "name": "approved",
          "type": "address"
        },
        {
          "indexed": true,
          "internalType": "uint256",
          "name": "tokenId",
          "type": "uint256"
        }
      ],
      "name": "Approval",
      "type": "event"
    },
    {
      "anonymous": false,
      "inputs": [
        {
          "indexed": true,
          "internalType": "address",
          "name": "owner",
          "type": "address"
        },
        {
          "indexed": true,
          "internalType": "address",
          "name": "operator",
          "type": "address"
        },
        {
          "indexed": false,
          "internalType": "bool",
          "name": "approved",
          "type": "bool"
        }
      ],
      "name": "ApprovalForAll",
      "type": "event"
    },
    {
      "anonymous": false,
      "inputs": [
        {
          "indexed": true,
          "internalType": "address",
          "name": "previousOwner",
          "type": "address"
        },
        {
          "indexed": true,
          "internalType": "address",
          "name": "newOwner",
          "type": "address"
        }
      ],
      "name": "OwnershipTransferred",
      "type": "event"
    },
    {
      "anonymous": false,
      "inputs": [
        {
          "indexed": true,
          "internalType": "address",
          "name": "from",
          "type": "address"
        },
        {
          "indexed": true,
          "internalType": "address",
          "name": "to",
          "type": "address"
        },
        {
          "indexed": true,
          "internalType": "uint256",
          "name": "tokenId",
          "type": "uint256"
        }
      ],
      "name": "Transfer",
      "type": "event"
    },
    {
      "inputs": [
        {
          "internalType": "address",
          "name": "to",
          "type": "address"
        },
        {
          "internalType": "uint256",
          "name": "tokenId",
          "type": "uint256"
        }
      ],
      "name": "approve",
      "outputs": [],
      "stateMutability": "nonpayable",
      "type": "function"
    },
    {
      "inputs": [
        {
          "internalType": "address",
          "name": "owner",
          "type": "address"
        }
      ],
      "name": "balanceOf",
      "outputs": [
        {
          "internalType": "uint256",
          "name": "",
          "type": "uint256"
        }
      ],
      "stateMutability": "view",
      "type": "function"
    },
    {
      "inputs": [],
      "name": "baseTokenURI",
      "outputs": [
        {
          "internalType": "string",
          "name": "",
          "type": "string"
        }
      ],
      "stateMutability": "view",
      "type": "function"
    },
    {
      "inputs": [],
      "name": "currentPriceEth",
      "outputs": [
        {
          "internalType": "uint256",
          "name": "",
          "type": "uint256"
        }
      ],
      "stateMutability": "view",
      "type": "function"
    },
    {
      "inputs": [
        {
          "internalType": "uint256",
          "name": "tokenId",
          "type": "uint256"
        }
      ],
      "name": "getApproved",
      "outputs": [
        {
          "internalType": "address",
          "name": "",
          "type": "address"
        }
      ],
      "stateMutability": "view",
      "type": "function"
    },
    {
      "inputs": [
        {
          "internalType": "address",
          "name": "owner",
          "type": "address"
        },
        {
          "internalType": "address",
          "name": "operator",
          "type": "address"
        }
      ],
      "name": "isApprovedForAll",
      "outputs": [
        {
          "internalType": "bool",
          "name": "",
          "type": "bool"
        }
      ],
      "stateMutability": "view",
      "type": "function"
    },
    {
      "inputs": [],
      "name": "name",
      "outputs": [
        {
          "internalType": "string",
          "name": "",
          "type": "string"
        }
      ],
      "stateMutability": "view",
      "type": "function"
    },
    {
      "inputs": [],
      "name": "oracleAddr",
      "outputs": [
        {
          "internalType": "address",
          "name": "",
          "type": "address"
        }
      ],
      "stateMutability": "view",
      "type": "function"
    },
    {
      "inputs": [],
      "name": "owner",
      "outputs": [
        {
          "internalType": "address",
          "name": "",
          "type": "address"
        }
      ],
      "stateMutability": "view",
      "type": "function"
    },
    {
      "inputs": [
        {
          "internalType": "uint256",
          "name": "tokenId",
          "type": "uint256"
        }
      ],
      "name": "ownerOf",
      "outputs": [
        {
          "internalType": "address",
          "name": "",
          "type": "address"
        }
      ],
      "stateMutability": "view",
      "type": "function"
    },
    {
      "inputs": [
        {
          "internalType": "address",
          "name": "_user",
          "type": "address"
        }
      ],
      "name": "provide",
      "outputs": [],
      "stateMutability": "nonpayable",
      "type": "function"
    },
    {
      "inputs": [],
      "name": "renounceOwnership",
      "outputs": [],
      "stateMutability": "nonpayable",
      "type": "function"
    },
    {
      "inputs": [
        {
          "internalType": "address",
          "name": "_user",
          "type": "address"
        }
      ],
      "name": "revoke",
      "outputs": [],
      "stateMutability": "nonpayable",
      "type": "function"
    },
    {
      "inputs": [
        {
          "internalType": "address",
          "name": "from",
          "type": "address"
        },
        {
          "internalType": "address",
          "name": "to",
          "type": "address"
        },
        {
          "internalType": "uint256",
          "name": "tokenId",
          "type": "uint256"
        }
      ],
      "name": "safeTransferFrom",
      "outputs": [],
      "stateMutability": "nonpayable",
      "type": "function"
    },
    {
      "inputs": [
        {
          "internalType": "address",
          "name": "from",
          "type": "address"
        },
        {
          "internalType": "address",
          "name": "to",
          "type": "address"
        },
        {
          "internalType": "uint256",
          "name": "tokenId",
          "type": "uint256"
        },
        {
          "internalType": "bytes",
          "name": "data",
          "type": "bytes"
        }
      ],
      "name": "safeTransferFrom",
      "outputs": [],
      "stateMutability": "nonpayable",
      "type": "function"
    },
    {
      "inputs": [
        {
          "internalType": "address",
          "name": "operator",
          "type": "address"
        },
        {
          "internalType": "bool",
          "name": "approved",
          "type": "bool"
        }
      ],
      "name": "setApprovalForAll",
      "outputs": [],
      "stateMutability": "nonpayable",
      "type": "function"
    },
    {
      "inputs": [
        {
          "internalType": "uint256",
          "name": "_newPrice",
          "type": "uint256"
        }
      ],
      "name": "setPriceEth",
      "outputs": [],
      "stateMutability": "nonpayable",
      "type": "function"
    },
    {
      "inputs": [
        {
          "internalType": "bytes4",
          "name": "interfaceId",
          "type": "bytes4"
        }
      ],
      "name": "supportsInterface",
      "outputs": [
        {
          "internalType": "bool",
          "name": "",
          "type": "bool"
        }
      ],
      "stateMutability": "view",
      "type": "function"
    },
    {
      "inputs": [],
      "name": "symbol",
      "outputs": [
        {
          "internalType": "string",
          "name": "",
          "type": "string"
        }
      ],
      "stateMutability": "view",
      "type": "function"
    },
    {
      "inputs": [
        {
          "internalType": "uint256",
          "name": "",
          "type": "uint256"
        }
      ],
      "name": "thresholds",
      "outputs": [
        {
          "internalType": "uint256",
          "name": "",
          "type": "uint256"
        }
      ],
      "stateMutability": "view",
      "type": "function"
    },
    {
      "inputs": [
        {
          "internalType": "uint256",
          "name": "index",
          "type": "uint256"
        }
      ],
      "name": "tokenByIndex",
      "outputs": [
        {
          "internalType": "uint256",
          "name": "",
          "type": "uint256"
        }
      ],
      "stateMutability": "view",
      "type": "function"
    },
    {
      "inputs": [
        {
          "internalType": "address",
          "name": "owner",
          "type": "address"
        },
        {
          "internalType": "uint256",
          "name": "index",
          "type": "uint256"
        }
      ],
      "name": "tokenOfOwnerByIndex",
      "outputs": [
        {
          "internalType": "uint256",
          "name": "",
          "type": "uint256"
        }
      ],
      "stateMutability": "view",
      "type": "function"
    },
    {
      "inputs": [
        {
          "internalType": "uint256",
          "name": "tokenId",
          "type": "uint256"
        }
      ],
      "name": "tokenURI",
      "outputs": [
        {
          "internalType": "string",
          "name": "",
          "type": "string"
        }
      ],
      "stateMutability": "view",
      "type": "function"
    },
    {
      "inputs": [],
      "name": "totalSupply",
      "outputs": [
        {
          "internalType": "uint256",
          "name": "",
          "type": "uint256"
        }
      ],
      "stateMutability": "view",
      "type": "function"
    },
    {
      "inputs": [
        {
          "internalType": "address",
          "name": "from",
          "type": "address"
        },
        {
          "internalType": "address",
          "name": "to",
          "type": "address"
        },
        {
          "internalType": "uint256",
          "name": "tokenId",
          "type": "uint256"
        }
      ],
      "name": "transferFrom",
      "outputs": [],
      "stateMutability": "nonpayable",
      "type": "function"
    },
    {
      "inputs": [
        {
          "internalType": "address",
          "name": "newOwner",
          "type": "address"
        }
      ],
      "name": "transferOwnership",
      "outputs": [],
      "stateMutability": "nonpayable",
      "type": "function"
    },
    {
      "inputs": [
        {
          "internalType": "uint256[3]",
          "name": "_newThresholds",
          "type": "uint256[3]"
        }
      ],
      "name": "updateThresholds",
      "outputs": [],
      "stateMutability": "nonpayable",
      "type": "function"
    }
  ],
  "bytecode": "0x608060405260006012553480156200001657600080fd5b50604051620044a2380380620044a283398181016040528101906200003c919062000476565b8383816000908051906020019062000056929190620001c4565b5080600190805190602001906200006f929190620001c4565b5050506200009262000086620000f660201b60201c565b620000fe60201b60201c565b81600c9080519060200190620000aa929190620001c4565b5080600d60006101000a81548173ffffffffffffffffffffffffffffffffffffffff021916908373ffffffffffffffffffffffffffffffffffffffff16021790555050505050620005aa565b600033905090565b6000600b60009054906101000a900473ffffffffffffffffffffffffffffffffffffffff16905081600b60006101000a81548173ffffffffffffffffffffffffffffffffffffffff021916908373ffffffffffffffffffffffffffffffffffffffff1602179055508173ffffffffffffffffffffffffffffffffffffffff168173ffffffffffffffffffffffffffffffffffffffff167f8be0079c531659141344cd1fd0a4f28419497f9722a3daafe3b4186f6b6457e060405160405180910390a35050565b828054620001d29062000574565b90600052602060002090601f016020900481019282620001f6576000855562000242565b82601f106200021157805160ff191683800117855562000242565b8280016001018555821562000242579182015b828111156200024157825182559160200191906001019062000224565b5b50905062000251919062000255565b5090565b5b808211156200027057600081600090555060010162000256565b5090565b6000604051905090565b600080fd5b600080fd5b600080fd5b600080fd5b6000601f19601f8301169050919050565b7f4e487b7100000000000000000000000000000000000000000000000000000000600052604160045260246000fd5b620002dd8262000292565b810181811067ffffffffffffffff82111715620002ff57620002fe620002a3565b5b80604052505050565b60006200031462000274565b9050620003228282620002d2565b919050565b600067ffffffffffffffff821115620003455762000344620002a3565b5b620003508262000292565b9050602081019050919050565b60005b838110156200037d57808201518184015260208101905062000360565b838111156200038d576000848401525b50505050565b6000620003aa620003a48462000327565b62000308565b905082815260208101848484011115620003c957620003c86200028d565b5b620003d68482856200035d565b509392505050565b600082601f830112620003f657620003f562000288565b5b81516200040884826020860162000393565b91505092915050565b600073ffffffffffffffffffffffffffffffffffffffff82169050919050565b60006200043e8262000411565b9050919050565b620004508162000431565b81146200045c57600080fd5b50565b600081519050620004708162000445565b92915050565b600080600080608085870312156200049357620004926200027e565b5b600085015167ffffffffffffffff811115620004b457620004b362000283565b5b620004c287828801620003de565b945050602085015167ffffffffffffffff811115620004e657620004e562000283565b5b620004f487828801620003de565b935050604085015167ffffffffffffffff81111562000518576200051762000283565b5b6200052687828801620003de565b925050606062000539878288016200045f565b91505092959194509250565b7f4e487b7100000000000000000000000000000000000000000000000000000000600052602260045260246000fd5b600060028204905060018216806200058d57607f821691505b60208210811415620005a457620005a362000545565b5b50919050565b613ee880620005ba6000396000f3fe608060405234801561001057600080fd5b50600436106101a95760003560e01c806370a08231116100f9578063b6c2261111610097578063d547cfb711610071578063d547cfb7146104ca578063e413e2bc146104e8578063e985e9c514610506578063f2fde38b14610536576101a9565b8063b6c226111461044e578063b88d4fde1461047e578063c87b56dd1461049a576101a9565b80637e4e61d7116100d35780637e4e61d7146103d85780638da5cb5b146103f657806395d89b4114610414578063a22cb46514610432576101a9565b806370a0823114610382578063715018a6146103b257806374a8f103146103bc576101a9565b80631803aa33116101665780632f745c59116101405780632f745c59146102d657806342842e0e146103065780634f6ccce7146103225780636352211e14610352576101a9565b80631803aa331461028057806318160ddd1461029c57806323b872dd146102ba576101a9565b806301ffc9a7146101ae5780630249d624146101de57806306fdde03146101fa578063081812fc14610218578063095ea7b314610248578063141bba6f14610264575b600080fd5b6101c860048036038101906101c39190612a1a565b610552565b6040516101d59190612a62565b60405180910390f35b6101f860048036038101906101f39190612ab3565b610564565b005b610202610576565b60405161020f9190612b79565b60405180910390f35b610232600480360381019061022d9190612ab3565b610608565b60405161023f9190612bdc565b60405180910390f35b610262600480360381019061025d9190612c23565b61064e565b005b61027e60048036038101906102799190612d99565b610766565b005b61029a60048036038101906102959190612dc6565b61080a565b005b6102a4610917565b6040516102b19190612e02565b60405180910390f35b6102d460048036038101906102cf9190612e1d565b610924565b005b6102f060048036038101906102eb9190612c23565b610984565b6040516102fd9190612e02565b60405180910390f35b610320600480360381019061031b9190612e1d565b610a29565b005b61033c60048036038101906103379190612ab3565b610a49565b6040516103499190612e02565b60405180910390f35b61036c60048036038101906103679190612ab3565b610aba565b6040516103799190612bdc565b60405180910390f35b61039c60048036038101906103979190612dc6565b610b6c565b6040516103a99190612e02565b60405180910390f35b6103ba610c24565b005b6103d660048036038101906103d19190612dc6565b610c38565b005b6103e0610cb1565b6040516103ed9190612bdc565b60405180910390f35b6103fe610cd7565b60405161040b9190612bdc565b60405180910390f35b61041c610d01565b6040516104299190612b79565b60405180910390f35b61044c60048036038101906104479190612e9c565b610d93565b005b61046860048036038101906104639190612ab3565b610da9565b6040516104759190612e02565b60405180910390f35b61049860048036038101906104939190612f91565b610dc4565b005b6104b460048036038101906104af9190612ab3565b610e26565b6040516104c19190612b79565b60405180910390f35b6104d2610f60565b6040516104df9190612b79565b60405180910390f35b6104f0610fee565b6040516104fd9190612e02565b60405180910390f35b610520600480360381019061051b9190613014565b610ff4565b60405161052d9190612a62565b60405180910390f35b610550600480360381019061054b9190612dc6565b611088565b005b600061055d8261110c565b9050919050565b61056c611186565b8060128190555050565b60606000805461058590613083565b80601f01602080910402602001604051908101604052809291908181526020018280546105b190613083565b80156105fe5780601f106105d3576101008083540402835291602001916105fe565b820191906000526020600020905b8154815290600101906020018083116105e157829003601f168201915b5050505050905090565b600061061382611204565b6004600083815260200190815260200160002060009054906101000a900473ffffffffffffffffffffffffffffffffffffffff169050919050565b600061065982610aba565b90508073ffffffffffffffffffffffffffffffffffffffff168373ffffffffffffffffffffffffffffffffffffffff1614156106ca576040517f08c379a00000000000000000000000000000000000000000000000000000000081526004016106c190613127565b60405180910390fd5b8073ffffffffffffffffffffffffffffffffffffffff166106e961124f565b73ffffffffffffffffffffffffffffffffffffffff16148061071857506107178161071261124f565b610ff4565b5b610757576040517f08c379a000000000000000000000000000000000000000000000000000000000815260040161074e906131b9565b60405180910390fd5b6107618383611257565b505050565b61076e611186565b80600060038110610782576107816131d9565b5b6020020151600f60006003811061079c5761079b6131d9565b5b0181905550806001600381106107b5576107b46131d9565b5b6020020151600f6001600381106107cf576107ce6131d9565b5b0181905550806002600381106107e8576107e76131d9565b5b6020020151600f600260038110610802576108016131d9565b5b018190555050565b610812611186565b600061081d82610b6c565b1461085d576040517f08c379a000000000000000000000000000000000000000000000000000000000815260040161085490613254565b60405180910390fd5b610867600e611310565b6000610873600e611326565b905061087f8282611334565b61091381600c805461089090613083565b80601f01602080910402602001604051908101604052809291908181526020018280546108bc90613083565b80156109095780601f106108de57610100808354040283529160200191610909565b820191906000526020600020905b8154815290600101906020018083116108ec57829003601f168201915b505050505061150e565b5050565b6000600880549050905090565b61093561092f61124f565b82611582565b610974576040517f08c379a000000000000000000000000000000000000000000000000000000000815260040161096b906132e6565b60405180910390fd5b61097f838383611617565b505050565b600061098f83610b6c565b82106109d0576040517f08c379a00000000000000000000000000000000000000000000000000000000081526004016109c790613378565b60405180910390fd5b600660008473ffffffffffffffffffffffffffffffffffffffff1673ffffffffffffffffffffffffffffffffffffffff168152602001908152602001600020600083815260200190815260200160002054905092915050565b610a4483838360405180602001604052806000815250610dc4565b505050565b6000610a53610917565b8210610a94576040517f08c379a0000000000000000000000000000000000000000000000000000000008152600401610a8b9061340a565b60405180910390fd5b60088281548110610aa857610aa76131d9565b5b90600052602060002001549050919050565b6000806002600084815260200190815260200160002060009054906101000a900473ffffffffffffffffffffffffffffffffffffffff169050600073ffffffffffffffffffffffffffffffffffffffff168173ffffffffffffffffffffffffffffffffffffffff161415610b63576040517f08c379a0000000000000000000000000000000000000000000000000000000008152600401610b5a90613476565b60405180910390fd5b80915050919050565b60008073ffffffffffffffffffffffffffffffffffffffff168273ffffffffffffffffffffffffffffffffffffffff161415610bdd576040517f08c379a0000000000000000000000000000000000000000000000000000000008152600401610bd490613508565b60405180910390fd5b600360008373ffffffffffffffffffffffffffffffffffffffff1673ffffffffffffffffffffffffffffffffffffffff168152602001908152602001600020549050919050565b610c2c611186565b610c36600061187e565b565b610c40611186565b6000610c4b82610b6c565b11610c8b576040517f08c379a0000000000000000000000000000000000000000000000000000000008152600401610c8290613574565b60405180910390fd5b610c95600e611944565b6000610ca2826000610984565b9050610cad816119a0565b5050565b600d60009054906101000a900473ffffffffffffffffffffffffffffffffffffffff1681565b6000600b60009054906101000a900473ffffffffffffffffffffffffffffffffffffffff16905090565b606060018054610d1090613083565b80601f0160208091040260200160405190810160405280929190818152602001828054610d3c90613083565b8015610d895780601f10610d5e57610100808354040283529160200191610d89565b820191906000526020600020905b815481529060010190602001808311610d6c57829003601f168201915b5050505050905090565b610da5610d9e61124f565b83836119ac565b5050565b600f8160038110610db957600080fd5b016000915090505481565b610dd5610dcf61124f565b83611582565b610e14576040517f08c379a0000000000000000000000000000000000000000000000000000000008152600401610e0b906132e6565b60405180910390fd5b610e2084848484611b19565b50505050565b6060600080610e33611b75565b9050600f600260038110610e4a57610e496131d9565b5b0154811115610e7b577f33000000000000000000000000000000000000000000000000000000000000009150610f2d565b600f600160038110610e9057610e8f6131d9565b5b0154811115610ec1577f32000000000000000000000000000000000000000000000000000000000000009150610f2c565b600f600060038110610ed657610ed56131d9565b5b0154811115610f07577f31000000000000000000000000000000000000000000000000000000000000009150610f2b565b7f300000000000000000000000000000000000000000000000000000000000000091505b5b5b610f3684611c1c565b82604051602001610f4892919061361d565b60405160208183030381529060405292505050919050565b600c8054610f6d90613083565b80601f0160208091040260200160405190810160405280929190818152602001828054610f9990613083565b8015610fe65780601f10610fbb57610100808354040283529160200191610fe6565b820191906000526020600020905b815481529060010190602001808311610fc957829003601f168201915b505050505081565b60125481565b6000600560008473ffffffffffffffffffffffffffffffffffffffff1673ffffffffffffffffffffffffffffffffffffffff16815260200190815260200160002060008373ffffffffffffffffffffffffffffffffffffffff1673ffffffffffffffffffffffffffffffffffffffff16815260200190815260200160002060009054906101000a900460ff16905092915050565b611090611186565b600073ffffffffffffffffffffffffffffffffffffffff168173ffffffffffffffffffffffffffffffffffffffff161415611100576040517f08c379a00000000000000000000000000000000000000000000000000000000081526004016110f7906136b7565b60405180910390fd5b6111098161187e565b50565b60007f780e9d63000000000000000000000000000000000000000000000000000000007bffffffffffffffffffffffffffffffffffffffffffffffffffffffff1916827bffffffffffffffffffffffffffffffffffffffffffffffffffffffff1916148061117f575061117e82611d2f565b5b9050919050565b61118e61124f565b73ffffffffffffffffffffffffffffffffffffffff166111ac610cd7565b73ffffffffffffffffffffffffffffffffffffffff1614611202576040517f08c379a00000000000000000000000000000000000000000000000000000000081526004016111f990613723565b60405180910390fd5b565b61120d81611e11565b61124c576040517f08c379a000000000000000000000000000000000000000000000000000000000815260040161124390613476565b60405180910390fd5b50565b600033905090565b816004600083815260200190815260200160002060006101000a81548173ffffffffffffffffffffffffffffffffffffffff021916908373ffffffffffffffffffffffffffffffffffffffff160217905550808273ffffffffffffffffffffffffffffffffffffffff166112ca83610aba565b73ffffffffffffffffffffffffffffffffffffffff167f8c5be1e5ebec7d5bd14f71427d1e84f3dd0314c0f7b2291e5b200ac8c7c3b92560405160405180910390a45050565b6001816000016000828254019250508190555050565b600081600001549050919050565b600073ffffffffffffffffffffffffffffffffffffffff168273ffffffffffffffffffffffffffffffffffffffff1614156113a4576040517f08c379a000000000000000000000000000000000000000000000000000000000815260040161139b9061378f565b60405180910390fd5b6113ad81611e11565b156113ed576040517f08c379a00000000000000000000000000000000000000000000000000000000081526004016113e4906137fb565b60405180910390fd5b6113f960008383611e7d565b6001600360008473ffffffffffffffffffffffffffffffffffffffff1673ffffffffffffffffffffffffffffffffffffffff1681526020019081526020016000206000828254611449919061384a565b92505081905550816002600083815260200190815260200160002060006101000a81548173ffffffffffffffffffffffffffffffffffffffff021916908373ffffffffffffffffffffffffffffffffffffffff160217905550808273ffffffffffffffffffffffffffffffffffffffff16600073ffffffffffffffffffffffffffffffffffffffff167fddf252ad1be2c89b69c2b068fc378daa952ba7f163c4a11628f55a4df523b3ef60405160405180910390a461150a60008383611f33565b5050565b61151782611e11565b611556576040517f08c379a000000000000000000000000000000000000000000000000000000000815260040161154d90613912565b60405180910390fd5b80600a6000848152602001908152602001600020908051906020019061157d9291906128cb565b505050565b60008061158e83610aba565b90508073ffffffffffffffffffffffffffffffffffffffff168473ffffffffffffffffffffffffffffffffffffffff1614806115d057506115cf8185610ff4565b5b8061160e57508373ffffffffffffffffffffffffffffffffffffffff166115f684610608565b73ffffffffffffffffffffffffffffffffffffffff16145b91505092915050565b8273ffffffffffffffffffffffffffffffffffffffff1661163782610aba565b73ffffffffffffffffffffffffffffffffffffffff161461168d576040517f08c379a0000000000000000000000000000000000000000000000000000000008152600401611684906139a4565b60405180910390fd5b600073ffffffffffffffffffffffffffffffffffffffff168273ffffffffffffffffffffffffffffffffffffffff1614156116fd576040517f08c379a00000000000000000000000000000000000000000000000000000000081526004016116f490613a36565b60405180910390fd5b611708838383611e7d565b611713600082611257565b6001600360008573ffffffffffffffffffffffffffffffffffffffff1673ffffffffffffffffffffffffffffffffffffffff16815260200190815260200160002060008282546117639190613a56565b925050819055506001600360008473ffffffffffffffffffffffffffffffffffffffff1673ffffffffffffffffffffffffffffffffffffffff16815260200190815260200160002060008282546117ba919061384a565b92505081905550816002600083815260200190815260200160002060006101000a81548173ffffffffffffffffffffffffffffffffffffffff021916908373ffffffffffffffffffffffffffffffffffffffff160217905550808273ffffffffffffffffffffffffffffffffffffffff168473ffffffffffffffffffffffffffffffffffffffff167fddf252ad1be2c89b69c2b068fc378daa952ba7f163c4a11628f55a4df523b3ef60405160405180910390a4611879838383611f33565b505050565b6000600b60009054906101000a900473ffffffffffffffffffffffffffffffffffffffff16905081600b60006101000a81548173ffffffffffffffffffffffffffffffffffffffff021916908373ffffffffffffffffffffffffffffffffffffffff1602179055508173ffffffffffffffffffffffffffffffffffffffff168173ffffffffffffffffffffffffffffffffffffffff167f8be0079c531659141344cd1fd0a4f28419497f9722a3daafe3b4186f6b6457e060405160405180910390a35050565b60008160000154905060008111611990576040517f08c379a000000000000000000000000000000000000000000000000000000000815260040161198790613ad6565b60405180910390fd5b6001810382600001819055505050565b6119a981611f38565b50565b8173ffffffffffffffffffffffffffffffffffffffff168373ffffffffffffffffffffffffffffffffffffffff161415611a1b576040517f08c379a0000000000000000000000000000000000000000000000000000000008152600401611a1290613b42565b60405180910390fd5b80600560008573ffffffffffffffffffffffffffffffffffffffff1673ffffffffffffffffffffffffffffffffffffffff16815260200190815260200160002060008473ffffffffffffffffffffffffffffffffffffffff1673ffffffffffffffffffffffffffffffffffffffff16815260200190815260200160002060006101000a81548160ff0219169083151502179055508173ffffffffffffffffffffffffffffffffffffffff168373ffffffffffffffffffffffffffffffffffffffff167f17307eab39ab6107e8899845ad3d59bd9653f200f220920489ca2b5937696c3183604051611b0c9190612a62565b60405180910390a3505050565b611b24848484611617565b611b3084848484611f8b565b611b6f576040517f08c379a0000000000000000000000000000000000000000000000000000000008152600401611b6690613bd4565b60405180910390fd5b50505050565b6000600d60009054906101000a900473ffffffffffffffffffffffffffffffffffffffff1673ffffffffffffffffffffffffffffffffffffffff16639125009d6040518163ffffffff1660e01b815260040160206040518083038186803b158015611bdf57600080fd5b505afa158015611bf3573d6000803e3d6000fd5b505050506040513d601f19601f82011682018060405250810190611c179190613c09565b905090565b6060611c2782611204565b6000600a60008481526020019081526020016000208054611c4790613083565b80601f0160208091040260200160405190810160405280929190818152602001828054611c7390613083565b8015611cc05780601f10611c9557610100808354040283529160200191611cc0565b820191906000526020600020905b815481529060010190602001808311611ca357829003601f168201915b505050505090506000611cd1612122565b9050600081511415611ce7578192505050611d2a565b600082511115611d1c578082604051602001611d04929190613c36565b60405160208183030381529060405292505050611d2a565b611d2584612139565b925050505b919050565b60007f80ac58cd000000000000000000000000000000000000000000000000000000007bffffffffffffffffffffffffffffffffffffffffffffffffffffffff1916827bffffffffffffffffffffffffffffffffffffffffffffffffffffffff19161480611dfa57507f5b5e139f000000000000000000000000000000000000000000000000000000007bffffffffffffffffffffffffffffffffffffffffffffffffffffffff1916827bffffffffffffffffffffffffffffffffffffffffffffffffffffffff1916145b80611e0a5750611e09826121a1565b5b9050919050565b60008073ffffffffffffffffffffffffffffffffffffffff166002600084815260200190815260200160002060009054906101000a900473ffffffffffffffffffffffffffffffffffffffff1673ffffffffffffffffffffffffffffffffffffffff1614159050919050565b600073ffffffffffffffffffffffffffffffffffffffff168373ffffffffffffffffffffffffffffffffffffffff161480611ee45750600073ffffffffffffffffffffffffffffffffffffffff168273ffffffffffffffffffffffffffffffffffffffff16145b611f23576040517f08c379a0000000000000000000000000000000000000000000000000000000008152600401611f1a90613ca6565b60405180910390fd5b611f2e83838361220b565b505050565b505050565b611f418161231f565b6000600a60008381526020019081526020016000208054611f6190613083565b905014611f8857600a60008281526020019081526020016000206000611f879190612951565b5b50565b6000611fac8473ffffffffffffffffffffffffffffffffffffffff1661243c565b15612115578373ffffffffffffffffffffffffffffffffffffffff1663150b7a02611fd561124f565b8786866040518563ffffffff1660e01b8152600401611ff79493929190613d1b565b602060405180830381600087803b15801561201157600080fd5b505af192505050801561204257506040513d601f19601f8201168201806040525081019061203f9190613d7c565b60015b6120c5573d8060008114612072576040519150601f19603f3d011682016040523d82523d6000602084013e612077565b606091505b506000815114156120bd576040517f08c379a00000000000000000000000000000000000000000000000000000000081526004016120b490613bd4565b60405180910390fd5b805181602001fd5b63150b7a0260e01b7bffffffffffffffffffffffffffffffffffffffffffffffffffffffff1916817bffffffffffffffffffffffffffffffffffffffffffffffffffffffff19161491505061211a565b600190505b949350505050565b606060405180602001604052806000815250905090565b606061214482611204565b600061214e612122565b9050600081511161216e5760405180602001604052806000815250612199565b806121788461245f565b604051602001612189929190613c36565b6040516020818303038152906040525b915050919050565b60007f01ffc9a7000000000000000000000000000000000000000000000000000000007bffffffffffffffffffffffffffffffffffffffffffffffffffffffff1916827bffffffffffffffffffffffffffffffffffffffffffffffffffffffff1916149050919050565b6122168383836125c0565b600073ffffffffffffffffffffffffffffffffffffffff168373ffffffffffffffffffffffffffffffffffffffff16141561225957612254816125c5565b612298565b8173ffffffffffffffffffffffffffffffffffffffff168373ffffffffffffffffffffffffffffffffffffffff161461229757612296838261260e565b5b5b600073ffffffffffffffffffffffffffffffffffffffff168273ffffffffffffffffffffffffffffffffffffffff1614156122db576122d68161277b565b61231a565b8273ffffffffffffffffffffffffffffffffffffffff168273ffffffffffffffffffffffffffffffffffffffff161461231957612318828261284c565b5b5b505050565b600061232a82610aba565b905061233881600084611e7d565b612343600083611257565b6001600360008373ffffffffffffffffffffffffffffffffffffffff1673ffffffffffffffffffffffffffffffffffffffff16815260200190815260200160002060008282546123939190613a56565b925050819055506002600083815260200190815260200160002060006101000a81549073ffffffffffffffffffffffffffffffffffffffff021916905581600073ffffffffffffffffffffffffffffffffffffffff168273ffffffffffffffffffffffffffffffffffffffff167fddf252ad1be2c89b69c2b068fc378daa952ba7f163c4a11628f55a4df523b3ef60405160405180910390a461243881600084611f33565b5050565b6000808273ffffffffffffffffffffffffffffffffffffffff163b119050919050565b606060008214156124a7576040518060400160405280600181526020017f300000000000000000000000000000000000000000000000000000000000000081525090506125bb565b600082905060005b600082146124d95780806124c290613da9565b915050600a826124d29190613e21565b91506124af565b60008167ffffffffffffffff8111156124f5576124f4612c68565b5b6040519080825280601f01601f1916602001820160405280156125275781602001600182028036833780820191505090505b5090505b600085146125b4576001826125409190613a56565b9150600a8561254f9190613e52565b603061255b919061384a565b60f81b818381518110612571576125706131d9565b5b60200101907effffffffffffffffffffffffffffffffffffffffffffffffffffffffffffff1916908160001a905350600a856125ad9190613e21565b945061252b565b8093505050505b919050565b505050565b6008805490506009600083815260200190815260200160002081905550600881908060018154018082558091505060019003906000526020600020016000909190919091505550565b6000600161261b84610b6c565b6126259190613a56565b905060006007600084815260200190815260200160002054905081811461270a576000600660008673ffffffffffffffffffffffffffffffffffffffff1673ffffffffffffffffffffffffffffffffffffffff168152602001908152602001600020600084815260200190815260200160002054905080600660008773ffffffffffffffffffffffffffffffffffffffff1673ffffffffffffffffffffffffffffffffffffffff168152602001908152602001600020600084815260200190815260200160002081905550816007600083815260200190815260200160002081905550505b6007600084815260200190815260200160002060009055600660008573ffffffffffffffffffffffffffffffffffffffff1673ffffffffffffffffffffffffffffffffffffffff16815260200190815260200160002060008381526020019081526020016000206000905550505050565b6000600160088054905061278f9190613a56565b90506000600960008481526020019081526020016000205490506000600883815481106127bf576127be6131d9565b5b9060005260206000200154905080600883815481106127e1576127e06131d9565b5b9060005260206000200181905550816009600083815260200190815260200160002081905550600960008581526020019081526020016000206000905560088054806128305761282f613e83565b5b6001900381819060005260206000200160009055905550505050565b600061285783610b6c565b905081600660008573ffffffffffffffffffffffffffffffffffffffff1673ffffffffffffffffffffffffffffffffffffffff168152602001908152602001600020600083815260200190815260200160002081905550806007600084815260200190815260200160002081905550505050565b8280546128d790613083565b90600052602060002090601f0160209004810192826128f95760008555612940565b82601f1061291257805160ff1916838001178555612940565b82800160010185558215612940579182015b8281111561293f578251825591602001919060010190612924565b5b50905061294d9190612991565b5090565b50805461295d90613083565b6000825580601f1061296f575061298e565b601f01602090049060005260206000209081019061298d9190612991565b5b50565b5b808211156129aa576000816000905550600101612992565b5090565b6000604051905090565b600080fd5b600080fd5b60007fffffffff0000000000000000000000000000000000000000000000000000000082169050919050565b6129f7816129c2565b8114612a0257600080fd5b50565b600081359050612a14816129ee565b92915050565b600060208284031215612a3057612a2f6129b8565b5b6000612a3e84828501612a05565b91505092915050565b60008115159050919050565b612a5c81612a47565b82525050565b6000602082019050612a776000830184612a53565b92915050565b6000819050919050565b612a9081612a7d565b8114612a9b57600080fd5b50565b600081359050612aad81612a87565b92915050565b600060208284031215612ac957612ac86129b8565b5b6000612ad784828501612a9e565b91505092915050565b600081519050919050565b600082825260208201905092915050565b60005b83811015612b1a578082015181840152602081019050612aff565b83811115612b29576000848401525b50505050565b6000601f19601f8301169050919050565b6000612b4b82612ae0565b612b558185612aeb565b9350612b65818560208601612afc565b612b6e81612b2f565b840191505092915050565b60006020820190508181036000830152612b938184612b40565b905092915050565b600073ffffffffffffffffffffffffffffffffffffffff82169050919050565b6000612bc682612b9b565b9050919050565b612bd681612bbb565b82525050565b6000602082019050612bf16000830184612bcd565b92915050565b612c0081612bbb565b8114612c0b57600080fd5b50565b600081359050612c1d81612bf7565b92915050565b60008060408385031215612c3a57612c396129b8565b5b6000612c4885828601612c0e565b9250506020612c5985828601612a9e565b9150509250929050565b600080fd5b7f4e487b7100000000000000000000000000000000000000000000000000000000600052604160045260246000fd5b612ca082612b2f565b810181811067ffffffffffffffff82111715612cbf57612cbe612c68565b5b80604052505050565b6000612cd26129ae565b9050612cde8282612c97565b919050565b600067ffffffffffffffff821115612cfe57612cfd612c68565b5b602082029050919050565b600080fd5b6000612d21612d1c84612ce3565b612cc8565b90508060208402830185811115612d3b57612d3a612d09565b5b835b81811015612d645780612d508882612a9e565b845260208401935050602081019050612d3d565b5050509392505050565b600082601f830112612d8357612d82612c63565b5b6003612d90848285612d0e565b91505092915050565b600060608284031215612daf57612dae6129b8565b5b6000612dbd84828501612d6e565b91505092915050565b600060208284031215612ddc57612ddb6129b8565b5b6000612dea84828501612c0e565b91505092915050565b612dfc81612a7d565b82525050565b6000602082019050612e176000830184612df3565b92915050565b600080600060608486031215612e3657612e356129b8565b5b6000612e4486828701612c0e565b9350506020612e5586828701612c0e565b9250506040612e6686828701612a9e565b9150509250925092565b612e7981612a47565b8114612e8457600080fd5b50565b600081359050612e9681612e70565b92915050565b60008060408385031215612eb357612eb26129b8565b5b6000612ec185828601612c0e565b9250506020612ed285828601612e87565b9150509250929050565b600080fd5b600067ffffffffffffffff821115612efc57612efb612c68565b5b612f0582612b2f565b9050602081019050919050565b82818337600083830152505050565b6000612f34612f2f84612ee1565b612cc8565b905082815260208101848484011115612f5057612f4f612edc565b5b612f5b848285612f12565b509392505050565b600082601f830112612f7857612f77612c63565b5b8135612f88848260208601612f21565b91505092915050565b60008060008060808587031215612fab57612faa6129b8565b5b6000612fb987828801612c0e565b9450506020612fca87828801612c0e565b9350506040612fdb87828801612a9e565b925050606085013567ffffffffffffffff811115612ffc57612ffb6129bd565b5b61300887828801612f63565b91505092959194509250565b6000806040838503121561302b5761302a6129b8565b5b600061303985828601612c0e565b925050602061304a85828601612c0e565b9150509250929050565b7f4e487b7100000000000000000000000000000000000000000000000000000000600052602260045260246000fd5b6000600282049050600182168061309b57607f821691505b602082108114156130af576130ae613054565b5b50919050565b7f4552433732313a20617070726f76616c20746f2063757272656e74206f776e6560008201527f7200000000000000000000000000000000000000000000000000000000000000602082015250565b6000613111602183612aeb565b915061311c826130b5565b604082019050919050565b6000602082019050818103600083015261314081613104565b9050919050565b7f4552433732313a20617070726f76652063616c6c6572206973206e6f7420746f60008201527f6b656e206f776e6572206e6f7220617070726f76656420666f7220616c6c0000602082015250565b60006131a3603e83612aeb565b91506131ae82613147565b604082019050919050565b600060208201905081810360008301526131d281613196565b9050919050565b7f4e487b7100000000000000000000000000000000000000000000000000000000600052603260045260246000fd5b7f7573657220616c726561647920686173206d656d626572736869700000000000600082015250565b600061323e601b83612aeb565b915061324982613208565b602082019050919050565b6000602082019050818103600083015261326d81613231565b9050919050565b7f4552433732313a2063616c6c6572206973206e6f7420746f6b656e206f776e6560008201527f72206e6f7220617070726f766564000000000000000000000000000000000000602082015250565b60006132d0602e83612aeb565b91506132db82613274565b604082019050919050565b600060208201905081810360008301526132ff816132c3565b9050919050565b7f455243373231456e756d657261626c653a206f776e657220696e646578206f7560008201527f74206f6620626f756e6473000000000000000000000000000000000000000000602082015250565b6000613362602b83612aeb565b915061336d82613306565b604082019050919050565b6000602082019050818103600083015261339181613355565b9050919050565b7f455243373231456e756d657261626c653a20676c6f62616c20696e646578206f60008201527f7574206f6620626f756e64730000000000000000000000000000000000000000602082015250565b60006133f4602c83612aeb565b91506133ff82613398565b604082019050919050565b60006020820190508181036000830152613423816133e7565b9050919050565b7f4552433732313a20696e76616c696420746f6b656e2049440000000000000000600082015250565b6000613460601883612aeb565b915061346b8261342a565b602082019050919050565b6000602082019050818103600083015261348f81613453565b9050919050565b7f4552433732313a2061646472657373207a65726f206973206e6f74206120766160008201527f6c6964206f776e65720000000000000000000000000000000000000000000000602082015250565b60006134f2602983612aeb565b91506134fd82613496565b604082019050919050565b60006020820190508181036000830152613521816134e5565b9050919050565b7f7573657220646f65736e742068617665206d656d626572736869700000000000600082015250565b600061355e601b83612aeb565b915061356982613528565b602082019050919050565b6000602082019050818103600083015261358d81613551565b9050919050565b600081905092915050565b60006135aa82612ae0565b6135b48185613594565b93506135c4818560208601612afc565b80840191505092915050565b60007fff0000000000000000000000000000000000000000000000000000000000000082169050919050565b6000819050919050565b613617613612826135d0565b6135fc565b82525050565b6000613629828561359f565b91506136358284613606565b6001820191508190509392505050565b7f4f776e61626c653a206e6577206f776e657220697320746865207a65726f206160008201527f6464726573730000000000000000000000000000000000000000000000000000602082015250565b60006136a1602683612aeb565b91506136ac82613645565b604082019050919050565b600060208201905081810360008301526136d081613694565b9050919050565b7f4f776e61626c653a2063616c6c6572206973206e6f7420746865206f776e6572600082015250565b600061370d602083612aeb565b9150613718826136d7565b602082019050919050565b6000602082019050818103600083015261373c81613700565b9050919050565b7f4552433732313a206d696e7420746f20746865207a65726f2061646472657373600082015250565b6000613779602083612aeb565b915061378482613743565b602082019050919050565b600060208201905081810360008301526137a88161376c565b9050919050565b7f4552433732313a20746f6b656e20616c7265616479206d696e74656400000000600082015250565b60006137e5601c83612aeb565b91506137f0826137af565b602082019050919050565b60006020820190508181036000830152613814816137d8565b9050919050565b7f4e487b7100000000000000000000000000000000000000000000000000000000600052601160045260246000fd5b600061385582612a7d565b915061386083612a7d565b9250827fffffffffffffffffffffffffffffffffffffffffffffffffffffffffffffffff038211156138955761389461381b565b5b828201905092915050565b7f45524337323155524953746f726167653a2055524920736574206f66206e6f6e60008201527f6578697374656e7420746f6b656e000000000000000000000000000000000000602082015250565b60006138fc602e83612aeb565b9150613907826138a0565b604082019050919050565b6000602082019050818103600083015261392b816138ef565b9050919050565b7f4552433732313a207472616e736665722066726f6d20696e636f72726563742060008201527f6f776e6572000000000000000000000000000000000000000000000000000000602082015250565b600061398e602583612aeb565b915061399982613932565b604082019050919050565b600060208201905081810360008301526139bd81613981565b9050919050565b7f4552433732313a207472616e7366657220746f20746865207a65726f2061646460008201527f7265737300000000000000000000000000000000000000000000000000000000602082015250565b6000613a20602483612aeb565b9150613a2b826139c4565b604082019050919050565b60006020820190508181036000830152613a4f81613a13565b9050919050565b6000613a6182612a7d565b9150613a6c83612a7d565b925082821015613a7f57613a7e61381b565b5b828203905092915050565b7f436f756e7465723a2064656372656d656e74206f766572666c6f770000000000600082015250565b6000613ac0601b83612aeb565b9150613acb82613a8a565b602082019050919050565b60006020820190508181036000830152613aef81613ab3565b9050919050565b7f4552433732313a20617070726f766520746f2063616c6c657200000000000000600082015250565b6000613b2c601983612aeb565b9150613b3782613af6565b602082019050919050565b60006020820190508181036000830152613b5b81613b1f565b9050919050565b7f4552433732313a207472616e7366657220746f206e6f6e20455243373231526560008201527f63656976657220696d706c656d656e7465720000000000000000000000000000602082015250565b6000613bbe603283612aeb565b9150613bc982613b62565b604082019050919050565b60006020820190508181036000830152613bed81613bb1565b9050919050565b600081519050613c0381612a87565b92915050565b600060208284031215613c1f57613c1e6129b8565b5b6000613c2d84828501613bf4565b91505092915050565b6000613c42828561359f565b9150613c4e828461359f565b91508190509392505050565b7f5468697320746f6b656e20697320534254000000000000000000000000000000600082015250565b6000613c90601183612aeb565b9150613c9b82613c5a565b602082019050919050565b60006020820190508181036000830152613cbf81613c83565b9050919050565b600081519050919050565b600082825260208201905092915050565b6000613ced82613cc6565b613cf78185613cd1565b9350613d07818560208601612afc565b613d1081612b2f565b840191505092915050565b6000608082019050613d306000830187612bcd565b613d3d6020830186612bcd565b613d4a6040830185612df3565b8181036060830152613d5c8184613ce2565b905095945050505050565b600081519050613d76816129ee565b92915050565b600060208284031215613d9257613d916129b8565b5b6000613da084828501613d67565b91505092915050565b6000613db482612a7d565b91507fffffffffffffffffffffffffffffffffffffffffffffffffffffffffffffffff821415613de757613de661381b565b5b600182019050919050565b7f4e487b7100000000000000000000000000000000000000000000000000000000600052601260045260246000fd5b6000613e2c82612a7d565b9150613e3783612a7d565b925082613e4757613e46613df2565b5b828204905092915050565b6000613e5d82612a7d565b9150613e6883612a7d565b925082613e7857613e77613df2565b5b828206905092915050565b7f4e487b7100000000000000000000000000000000000000000000000000000000600052603160045260246000fdfea26469706673582212203811d234381ff751fe960a2bf76446b78e7f64dfde5b8ffa50a908f75e093d8064736f6c63430008090033",
  "linkReferences": {},
  "deployedLinkReferences": {}
}