{
  "_format": "hh-sol-artifact-1",
  "contractName": "Treasury",
  "sourceName": "contracts/Treasury.sol",
  "abi": [
    {
      "inputs": [
        {
          "internalType": "address",
          "name": "_core_addr",
          "type": "address"
        }
      ],
      "stateMutability": "nonpayable",
      "type": "constructor"
    },
    {
      "anonymous": false,
      "inputs": [
        {
          "indexed": true,
          "internalType": "address",
          "name": "previousOwner",
          "type": "address"
        },
        {
          "indexed": true,
          "internalType": "address",
          "name": "newOwner",
          "type": "address"
        }
      ],
      "name": "OwnershipTransferred",
      "type": "event"
    },
    {
      "anonymous": false,
      "inputs": [
        {
          "indexed": false,
          "internalType": "address",
          "name": "asset",
          "type": "address"
        },
        {
          "indexed": false,
          "internalType": "uint256",
          "name": "amount",
          "type": "uint256"
        }
      ],
      "name": "performInvestment",
      "type": "event"
    },
    {
      "anonymous": false,
      "inputs": [
        {
          "indexed": false,
          "internalType": "address",
          "name": "asset",
          "type": "address"
        },
        {
          "indexed": false,
          "internalType": "uint256",
          "name": "amount",
          "type": "uint256"
        }
      ],
      "name": "withdrawInvestment",
      "type": "event"
    },
    {
      "inputs": [],
      "name": "core_addr",
      "outputs": [
        {
          "internalType": "address",
          "name": "",
          "type": "address"
        }
      ],
      "stateMutability": "view",
      "type": "function"
    },
    {
      "inputs": [
        {
          "internalType": "address",
          "name": "_asset",
          "type": "address"
        },
        {
          "internalType": "uint256",
          "name": "_amount",
          "type": "uint256"
        }
      ],
      "name": "deposit",
      "outputs": [],
      "stateMutability": "nonpayable",
      "type": "function"
    },
    {
      "inputs": [],
      "name": "owner",
      "outputs": [
        {
          "internalType": "address",
          "name": "",
          "type": "address"
        }
      ],
      "stateMutability": "view",
      "type": "function"
    },
    {
      "inputs": [],
      "name": "rebase",
      "outputs": [],
      "stateMutability": "nonpayable",
      "type": "function"
    },
    {
      "inputs": [],
      "name": "renounceOwnership",
      "outputs": [],
      "stateMutability": "nonpayable",
      "type": "function"
    },
    {
      "inputs": [],
      "name": "safeApproveAllTokens",
      "outputs": [],
      "stateMutability": "nonpayable",
      "type": "function"
    },
    {
      "inputs": [
        {
          "internalType": "address",
          "name": "_newOwner",
          "type": "address"
        }
      ],
      "name": "transferOwner",
      "outputs": [],
      "stateMutability": "nonpayable",
      "type": "function"
    },
    {
      "inputs": [
        {
          "internalType": "address",
          "name": "newOwner",
          "type": "address"
        }
      ],
      "name": "transferOwnership",
      "outputs": [],
      "stateMutability": "nonpayable",
      "type": "function"
    },
    {
      "inputs": [
        {
          "internalType": "address",
          "name": "_recipient",
          "type": "address"
        },
        {
          "internalType": "address",
          "name": "_asset",
          "type": "address"
        },
        {
          "internalType": "uint256",
          "name": "_amount",
          "type": "uint256"
        }
      ],
      "name": "withdraw",
      "outputs": [],
      "stateMutability": "nonpayable",
      "type": "function"
    },
    {
      "inputs": [],
      "name": "withdrawAll",
      "outputs": [],
      "stateMutability": "nonpayable",
      "type": "function"
    }
  ],
  "bytecode": "0x6080604052730940ceaacbf4860d2f7bfa657121b2f26a1676b0600260006101000a81548173ffffffffffffffffffffffffffffffffffffffff021916908373ffffffffffffffffffffffffffffffffffffffff160217905550735343b5ba672ae99d627a1c87866b8e53f47db2e6600360006101000a81548173ffffffffffffffffffffffffffffffffffffffff021916908373ffffffffffffffffffffffffffffffffffffffff160217905550348015620000bb57600080fd5b50604051620021d2380380620021d28339818101604052810190620000e191906200027f565b62000101620000f56200014960201b60201c565b6200015160201b60201c565b80600460006101000a81548173ffffffffffffffffffffffffffffffffffffffff021916908373ffffffffffffffffffffffffffffffffffffffff16021790555050620002b1565b600033905090565b60008060009054906101000a900473ffffffffffffffffffffffffffffffffffffffff169050816000806101000a81548173ffffffffffffffffffffffffffffffffffffffff021916908373ffffffffffffffffffffffffffffffffffffffff1602179055508173ffffffffffffffffffffffffffffffffffffffff168173ffffffffffffffffffffffffffffffffffffffff167f8be0079c531659141344cd1fd0a4f28419497f9722a3daafe3b4186f6b6457e060405160405180910390a35050565b600080fd5b600073ffffffffffffffffffffffffffffffffffffffff82169050919050565b600062000247826200021a565b9050919050565b62000259816200023a565b81146200026557600080fd5b50565b60008151905062000279816200024e565b92915050565b60006020828403121562000298576200029762000215565b5b6000620002a88482850162000268565b91505092915050565b611f1180620002c16000396000f3fe608060405234801561001057600080fd5b506004361061009e5760003560e01c80638da5cb5b116100665780638da5cb5b1461010d578063ad1728cb1461012b578063af14052c14610135578063d9caed121461013f578063f2fde38b1461015b5761009e565b806347e7ef24146100a35780634fb2e45d146100bf578063546b53cb146100db578063715018a6146100f9578063853828b614610103575b600080fd5b6100bd60048036038101906100b891906112ef565b610177565b005b6100d960048036038101906100d4919061132f565b610185565b005b6100e361020e565b6040516100f0919061136b565b60405180910390f35b610101610234565b005b61010b610248565b005b610115610409565b604051610122919061136b565b60405180910390f35b610133610432565b005b61013d6105b6565b005b61015960048036038101906101549190611386565b6107be565b005b6101756004803603810190610170919061132f565b6107d6565b005b610181828261085a565b5050565b61018d610953565b610195610409565b73ffffffffffffffffffffffffffffffffffffffff163373ffffffffffffffffffffffffffffffffffffffff1614610202576040517f08c379a00000000000000000000000000000000000000000000000000000000081526004016101f99061145c565b60405180910390fd5b61020b816107d6565b50565b600460009054906101000a900473ffffffffffffffffffffffffffffffffffffffff1681565b61023c610953565b61024660006109d1565b565b610250610953565b6000600460009054906101000a900473ffffffffffffffffffffffffffffffffffffffff1673ffffffffffffffffffffffffffffffffffffffff1663fb2eb1ee6040518163ffffffff1660e01b815260040160006040518083038186803b1580156102ba57600080fd5b505afa1580156102ce573d6000803e3d6000fd5b505050506040513d6000823e3d601f19601f820116820180604052508101906102f791906115ea565b905060005b81518110156104055760006001600084848151811061031e5761031d611633565b5b602002602001015173ffffffffffffffffffffffffffffffffffffffff1673ffffffffffffffffffffffffffffffffffffffff16815260200190815260200160002054905060008111156103f1576103913084848151811061038357610382611633565b5b602002602001015183610a95565b6000600160008585815181106103aa576103a9611633565b5b602002602001015173ffffffffffffffffffffffffffffffffffffffff1673ffffffffffffffffffffffffffffffffffffffff168152602001908152602001600020819055505b5080806103fd90611691565b9150506102fc565b5050565b60008060009054906101000a900473ffffffffffffffffffffffffffffffffffffffff16905090565b600061043c610cc2565b90506000600460009054906101000a900473ffffffffffffffffffffffffffffffffffffffff1673ffffffffffffffffffffffffffffffffffffffff1663fb2eb1ee6040518163ffffffff1660e01b815260040160006040518083038186803b1580156104a857600080fd5b505afa1580156104bc573d6000803e3d6000fd5b505050506040513d6000823e3d601f19601f820116820180604052508101906104e591906115ea565b905060005b81518110156105b15761053983600084848151811061050c5761050b611633565b5b602002602001015173ffffffffffffffffffffffffffffffffffffffff16610dde9092919063ffffffff16565b61059e837fffffffffffffffffffffffffffffffffffffffffffffffffffffffffffffffff84848151811061057157610570611633565b5b602002602001015173ffffffffffffffffffffffffffffffffffffffff16610dde9092919063ffffffff16565b80806105a990611691565b9150506104ea565b505050565b6105be610953565b6000600460009054906101000a900473ffffffffffffffffffffffffffffffffffffffff1673ffffffffffffffffffffffffffffffffffffffff1663fb2eb1ee6040518163ffffffff1660e01b815260040160006040518083038186803b15801561062857600080fd5b505afa15801561063c573d6000803e3d6000fd5b505050506040513d6000823e3d601f19601f8201168201806040525081019061066591906115ea565b905060005b81518110156107ba57600082828151811061068857610687611633565b5b602002602001015173ffffffffffffffffffffffffffffffffffffffff166370a08231306040518263ffffffff1660e01b81526004016106c8919061136b565b60206040518083038186803b1580156106e057600080fd5b505afa1580156106f4573d6000803e3d6000fd5b505050506040513d601f19601f8201168201806040525081019061071891906116ef565b905060008111156107a65761074783838151811061073957610738611633565b5b60200260200101518261085a565b806001600085858151811061075f5761075e611633565b5b602002602001015173ffffffffffffffffffffffffffffffffffffffff1673ffffffffffffffffffffffffffffffffffffffff168152602001908152602001600020819055505b5080806107b290611691565b91505061066a565b5050565b6107c6610953565b6107d1838383610a95565b505050565b6107de610953565b600073ffffffffffffffffffffffffffffffffffffffff168173ffffffffffffffffffffffffffffffffffffffff16141561084e576040517f08c379a00000000000000000000000000000000000000000000000000000000081526004016108459061178e565b60405180910390fd5b610857816109d1565b50565b6000811161089d576040517f08c379a0000000000000000000000000000000000000000000000000000000008152600401610894906117fa565b60405180910390fd5b6108a5610cc2565b73ffffffffffffffffffffffffffffffffffffffff1663617ba03783833060006040518563ffffffff1660e01b81526004016108e49493929190611846565b600060405180830381600087803b1580156108fe57600080fd5b505af1158015610912573d6000803e3d6000fd5b505050507fbb735387328aab3af4d27518d02052e6cb659bb81f39dbfa55cd236f7ab2de01828260405161094792919061188b565b60405180910390a15050565b61095b610f3c565b73ffffffffffffffffffffffffffffffffffffffff16610979610409565b73ffffffffffffffffffffffffffffffffffffffff16146109cf576040517f08c379a00000000000000000000000000000000000000000000000000000000081526004016109c690611900565b60405180910390fd5b565b60008060009054906101000a900473ffffffffffffffffffffffffffffffffffffffff169050816000806101000a81548173ffffffffffffffffffffffffffffffffffffffff021916908373ffffffffffffffffffffffffffffffffffffffff1602179055508173ffffffffffffffffffffffffffffffffffffffff168173ffffffffffffffffffffffffffffffffffffffff167f8be0079c531659141344cd1fd0a4f28419497f9722a3daafe3b4186f6b6457e060405160405180910390a35050565b60008111610ad8576040517f08c379a0000000000000000000000000000000000000000000000000000000008152600401610acf9061196c565b60405180910390fd5b600073ffffffffffffffffffffffffffffffffffffffff168373ffffffffffffffffffffffffffffffffffffffff161415610b48576040517f08c379a0000000000000000000000000000000000000000000000000000000008152600401610b3f906119d8565b60405180910390fd5b6000610b52610cc2565b73ffffffffffffffffffffffffffffffffffffffff166369328dec8484306040518463ffffffff1660e01b8152600401610b8e939291906119f8565b602060405180830381600087803b158015610ba857600080fd5b505af1158015610bbc573d6000803e3d6000fd5b505050506040513d601f19601f82011682018060405250810190610be091906116ef565b9050818114610c24576040517f08c379a0000000000000000000000000000000000000000000000000000000008152600401610c1b90611a7b565b60405180910390fd5b7f105c551d902462edaf96fd42046149e1aebf267248143fb74f10ed25dec30f508383604051610c5592919061188b565b60405180910390a13073ffffffffffffffffffffffffffffffffffffffff168473ffffffffffffffffffffffffffffffffffffffff1614610cbc57610cbb84838573ffffffffffffffffffffffffffffffffffffffff16610f449092919063ffffffff16565b5b50505050565b600080600360009054906101000a900473ffffffffffffffffffffffffffffffffffffffff1673ffffffffffffffffffffffffffffffffffffffff1663026b1d5f6040518163ffffffff1660e01b815260040160206040518083038186803b158015610d2d57600080fd5b505afa158015610d41573d6000803e3d6000fd5b505050506040513d601f19601f82011682018060405250810190610d659190611a9b565b9050600073ffffffffffffffffffffffffffffffffffffffff168173ffffffffffffffffffffffffffffffffffffffff161415610dd7576040517f08c379a0000000000000000000000000000000000000000000000000000000008152600401610dce90611b14565b60405180910390fd5b8091505090565b6000811480610e77575060008373ffffffffffffffffffffffffffffffffffffffff1663dd62ed3e30856040518363ffffffff1660e01b8152600401610e25929190611b34565b60206040518083038186803b158015610e3d57600080fd5b505afa158015610e51573d6000803e3d6000fd5b505050506040513d601f19601f82011682018060405250810190610e7591906116ef565b145b610eb6576040517f08c379a0000000000000000000000000000000000000000000000000000000008152600401610ead90611bcf565b60405180910390fd5b610f378363095ea7b360e01b8484604051602401610ed592919061188b565b604051602081830303815290604052907bffffffffffffffffffffffffffffffffffffffffffffffffffffffff19166020820180517bffffffffffffffffffffffffffffffffffffffffffffffffffffffff8381831617835250505050610fca565b505050565b600033905090565b610fc58363a9059cbb60e01b8484604051602401610f6392919061188b565b604051602081830303815290604052907bffffffffffffffffffffffffffffffffffffffffffffffffffffffff19166020820180517bffffffffffffffffffffffffffffffffffffffffffffffffffffffff8381831617835250505050610fca565b505050565b600061102c826040518060400160405280602081526020017f5361666545524332303a206c6f772d6c6576656c2063616c6c206661696c65648152508573ffffffffffffffffffffffffffffffffffffffff166110919092919063ffffffff16565b905060008151111561108c578080602001905181019061104c9190611c27565b61108b576040517f08c379a000000000000000000000000000000000000000000000000000000000815260040161108290611cc6565b60405180910390fd5b5b505050565b60606110a084846000856110a9565b90509392505050565b6060824710156110ee576040517f08c379a00000000000000000000000000000000000000000000000000000000081526004016110e590611d58565b60405180910390fd5b6110f7856111bd565b611136576040517f08c379a000000000000000000000000000000000000000000000000000000000815260040161112d90611dc4565b60405180910390fd5b6000808673ffffffffffffffffffffffffffffffffffffffff16858760405161115f9190611e5e565b60006040518083038185875af1925050503d806000811461119c576040519150601f19603f3d011682016040523d82523d6000602084013e6111a1565b606091505b50915091506111b18282866111e0565b92505050949350505050565b6000808273ffffffffffffffffffffffffffffffffffffffff163b119050919050565b606083156111f057829050611240565b6000835111156112035782518084602001fd5b816040517f08c379a00000000000000000000000000000000000000000000000000000000081526004016112379190611eb9565b60405180910390fd5b9392505050565b6000604051905090565b600080fd5b600080fd5b600073ffffffffffffffffffffffffffffffffffffffff82169050919050565b60006112868261125b565b9050919050565b6112968161127b565b81146112a157600080fd5b50565b6000813590506112b38161128d565b92915050565b6000819050919050565b6112cc816112b9565b81146112d757600080fd5b50565b6000813590506112e9816112c3565b92915050565b6000806040838503121561130657611305611251565b5b6000611314858286016112a4565b9250506020611325858286016112da565b9150509250929050565b60006020828403121561134557611344611251565b5b6000611353848285016112a4565b91505092915050565b6113658161127b565b82525050565b6000602082019050611380600083018461135c565b92915050565b60008060006060848603121561139f5761139e611251565b5b60006113ad868287016112a4565b93505060206113be868287016112a4565b92505060406113cf868287016112da565b9150509250925092565b600082825260208201905092915050565b7f4f6e6c79206f776e65722063616e207472616e73666572206f776e657273686960008201527f7000000000000000000000000000000000000000000000000000000000000000602082015250565b60006114466021836113d9565b9150611451826113ea565b604082019050919050565b6000602082019050818103600083015261147581611439565b9050919050565b600080fd5b6000601f19601f8301169050919050565b7f4e487b7100000000000000000000000000000000000000000000000000000000600052604160045260246000fd5b6114ca82611481565b810181811067ffffffffffffffff821117156114e9576114e8611492565b5b80604052505050565b60006114fc611247565b905061150882826114c1565b919050565b600067ffffffffffffffff82111561152857611527611492565b5b602082029050602081019050919050565b600080fd5b60008151905061154d8161128d565b92915050565b60006115666115618461150d565b6114f2565b9050808382526020820190506020840283018581111561158957611588611539565b5b835b818110156115b2578061159e888261153e565b84526020840193505060208101905061158b565b5050509392505050565b600082601f8301126115d1576115d061147c565b5b81516115e1848260208601611553565b91505092915050565b600060208284031215611600576115ff611251565b5b600082015167ffffffffffffffff81111561161e5761161d611256565b5b61162a848285016115bc565b91505092915050565b7f4e487b7100000000000000000000000000000000000000000000000000000000600052603260045260246000fd5b7f4e487b7100000000000000000000000000000000000000000000000000000000600052601160045260246000fd5b600061169c826112b9565b91507fffffffffffffffffffffffffffffffffffffffffffffffffffffffffffffffff8214156116cf576116ce611662565b5b600182019050919050565b6000815190506116e9816112c3565b92915050565b60006020828403121561170557611704611251565b5b6000611713848285016116da565b91505092915050565b7f4f776e61626c653a206e6577206f776e657220697320746865207a65726f206160008201527f6464726573730000000000000000000000000000000000000000000000000000602082015250565b60006117786026836113d9565b91506117838261171c565b604082019050919050565b600060208201905081810360008301526117a78161176b565b9050919050565b7f4d757374206465706f73697420736f6d657468696e6700000000000000000000600082015250565b60006117e46016836113d9565b91506117ef826117ae565b602082019050919050565b60006020820190508181036000830152611813816117d7565b9050919050565b611823816112b9565b82525050565b600061ffff82169050919050565b61184081611829565b82525050565b600060808201905061185b600083018761135c565b611868602083018661181a565b611875604083018561135c565b6118826060830184611837565b95945050505050565b60006040820190506118a0600083018561135c565b6118ad602083018461181a565b9392505050565b7f4f776e61626c653a2063616c6c6572206973206e6f7420746865206f776e6572600082015250565b60006118ea6020836113d9565b91506118f5826118b4565b602082019050919050565b60006020820190508181036000830152611919816118dd565b9050919050565b7f4d75737420776974686472617720736f6d657468696e67000000000000000000600082015250565b60006119566017836113d9565b915061196182611920565b602082019050919050565b6000602082019050818103600083015261198581611949565b9050919050565b7f4d757374207370656369667920726563697069656e7400000000000000000000600082015250565b60006119c26016836113d9565b91506119cd8261198c565b602082019050919050565b600060208201905081810360008301526119f1816119b5565b9050919050565b6000606082019050611a0d600083018661135c565b611a1a602083018561181a565b611a27604083018461135c565b949350505050565b7f446964206e6f7420776974686472617720656e6f756768000000000000000000600082015250565b6000611a656017836113d9565b9150611a7082611a2f565b602082019050919050565b60006020820190508181036000830152611a9481611a58565b9050919050565b600060208284031215611ab157611ab0611251565b5b6000611abf8482850161153e565b91505092915050565b7f4c656e64696e6720706f6f6c20646f6573206e6f742065786973740000000000600082015250565b6000611afe601b836113d9565b9150611b0982611ac8565b602082019050919050565b60006020820190508181036000830152611b2d81611af1565b9050919050565b6000604082019050611b49600083018561135c565b611b56602083018461135c565b9392505050565b7f5361666545524332303a20617070726f76652066726f6d206e6f6e2d7a65726f60008201527f20746f206e6f6e2d7a65726f20616c6c6f77616e636500000000000000000000602082015250565b6000611bb96036836113d9565b9150611bc482611b5d565b604082019050919050565b60006020820190508181036000830152611be881611bac565b9050919050565b60008115159050919050565b611c0481611bef565b8114611c0f57600080fd5b50565b600081519050611c2181611bfb565b92915050565b600060208284031215611c3d57611c3c611251565b5b6000611c4b84828501611c12565b91505092915050565b7f5361666545524332303a204552433230206f7065726174696f6e20646964206e60008201527f6f74207375636365656400000000000000000000000000000000000000000000602082015250565b6000611cb0602a836113d9565b9150611cbb82611c54565b604082019050919050565b60006020820190508181036000830152611cdf81611ca3565b9050919050565b7f416464726573733a20696e73756666696369656e742062616c616e636520666f60008201527f722063616c6c0000000000000000000000000000000000000000000000000000602082015250565b6000611d426026836113d9565b9150611d4d82611ce6565b604082019050919050565b60006020820190508181036000830152611d7181611d35565b9050919050565b7f416464726573733a2063616c6c20746f206e6f6e2d636f6e7472616374000000600082015250565b6000611dae601d836113d9565b9150611db982611d78565b602082019050919050565b60006020820190508181036000830152611ddd81611da1565b9050919050565b600081519050919050565b600081905092915050565b60005b83811015611e18578082015181840152602081019050611dfd565b83811115611e27576000848401525b50505050565b6000611e3882611de4565b611e428185611def565b9350611e52818560208601611dfa565b80840191505092915050565b6000611e6a8284611e2d565b915081905092915050565b600081519050919050565b6000611e8b82611e75565b611e9581856113d9565b9350611ea5818560208601611dfa565b611eae81611481565b840191505092915050565b60006020820190508181036000830152611ed38184611e80565b90509291505056fea264697066735822122016814ad2d2bb459993cb57705d51823f3be4a4d612e7d84333abe9765f17b52664736f6c63430008090033",
  "linkReferences": {},
  "deployedLinkReferences": {}
}