{
  "address": "0x614A51f39A101Df940350538583FB0ED24aA56eF",
  "abi": [
    {
      "inputs": [
        {
          "internalType": "contract IWorldID",
          "name": "_worldId",
          "type": "address"
        },
        {
          "internalType": "address",
          "name": "_membershipAddr",
          "type": "address"
        },
        {
          "internalType": "string",
          "name": "_action_id",
          "type": "string"
        }
      ],
      "stateMutability": "nonpayable",
      "type": "constructor"
    },
    {
      "inputs": [],
      "name": "InvalidNullifier",
      "type": "error"
    },
    {
      "anonymous": false,
      "inputs": [
        {
          "indexed": false,
          "internalType": "uint256",
          "name": "new_price",
          "type": "uint256"
        }
      ],
      "name": "MembershipPriceUpdated",
      "type": "event"
    },
    {
      "anonymous": false,
      "inputs": [
        {
          "indexed": false,
          "internalType": "address[]",
          "name": "new_mods",
          "type": "address[]"
        }
      ],
      "name": "ModsUpdated",
      "type": "event"
    },
    {
      "anonymous": false,
      "inputs": [
        {
          "indexed": false,
          "internalType": "address",
          "name": "member",
          "type": "address"
        },
        {
          "indexed": false,
          "internalType": "uint256",
          "name": "fee",
          "type": "uint256"
        }
      ],
      "name": "NewMember",
      "type": "event"
    },
    {
      "anonymous": false,
      "inputs": [
        {
          "indexed": false,
          "internalType": "uint256",
          "name": "n_members",
          "type": "uint256"
        }
      ],
      "name": "NewTeam",
      "type": "event"
    },
    {
      "anonymous": false,
      "inputs": [
        {
          "indexed": true,
          "internalType": "address",
          "name": "previousOwner",
          "type": "address"
        },
        {
          "indexed": true,
          "internalType": "address",
          "name": "newOwner",
          "type": "address"
        }
      ],
      "name": "OwnershipTransferred",
      "type": "event"
    },
    {
      "inputs": [
        {
          "internalType": "address",
          "name": "",
          "type": "address"
        }
      ],
      "name": "UserInfoURI",
      "outputs": [
        {
          "internalType": "string",
          "name": "",
          "type": "string"
        }
      ],
      "stateMutability": "view",
      "type": "function"
    },
    {
      "inputs": [],
      "name": "getMods",
      "outputs": [
        {
          "internalType": "address[]",
          "name": "",
          "type": "address[]"
        }
      ],
      "stateMutability": "view",
      "type": "function"
    },
    {
      "inputs": [
        {
          "internalType": "address",
          "name": "_user",
          "type": "address"
        }
      ],
      "name": "isMember",
      "outputs": [
        {
          "internalType": "bool",
          "name": "",
          "type": "bool"
        }
      ],
      "stateMutability": "view",
      "type": "function"
    },
    {
      "inputs": [
        {
          "internalType": "address",
          "name": "",
          "type": "address"
        }
      ],
      "name": "isMod",
      "outputs": [
        {
          "internalType": "bool",
          "name": "",
          "type": "bool"
        }
      ],
      "stateMutability": "view",
      "type": "function"
    },
    {
      "inputs": [
        {
          "internalType": "string",
          "name": "infoURI",
          "type": "string"
        },
        {
          "internalType": "address",
          "name": "_caller",
          "type": "address"
        },
        {
          "internalType": "uint256",
          "name": "root",
          "type": "uint256"
        },
        {
          "internalType": "uint256",
          "name": "nullifierHash",
          "type": "uint256"
        },
        {
          "internalType": "uint256[8]",
          "name": "proof",
          "type": "uint256[8]"
        }
      ],
      "name": "joinWithEth",
      "outputs": [],
      "stateMutability": "payable",
      "type": "function"
    },
    {
      "inputs": [
        {
          "internalType": "string",
          "name": "infoURI",
          "type": "string"
        },
        {
          "internalType": "address",
          "name": "_caller",
          "type": "address"
        },
        {
          "internalType": "uint256",
          "name": "root",
          "type": "uint256"
        },
        {
          "internalType": "uint256",
          "name": "nullifierHash",
          "type": "uint256"
        },
        {
          "internalType": "uint256[8]",
          "name": "proof",
          "type": "uint256[8]"
        }
      ],
      "name": "joinWithoutEth",
      "outputs": [],
      "stateMutability": "nonpayable",
      "type": "function"
    },
    {
      "inputs": [],
      "name": "modLimit",
      "outputs": [
        {
          "internalType": "uint8",
          "name": "",
          "type": "uint8"
        }
      ],
      "stateMutability": "view",
      "type": "function"
    },
    {
      "inputs": [
        {
          "internalType": "uint256",
          "name": "",
          "type": "uint256"
        }
      ],
      "name": "mods",
      "outputs": [
        {
          "internalType": "address",
          "name": "",
          "type": "address"
        }
      ],
      "stateMutability": "view",
      "type": "function"
    },
    {
      "inputs": [],
      "name": "owner",
      "outputs": [
        {
          "internalType": "address",
          "name": "",
          "type": "address"
        }
      ],
      "stateMutability": "view",
      "type": "function"
    },
    {
      "inputs": [
        {
          "internalType": "address[]",
          "name": "_members",
          "type": "address[]"
        }
      ],
      "name": "payForTeam",
      "outputs": [],
      "stateMutability": "payable",
      "type": "function"
    },
    {
      "inputs": [],
      "name": "renounceOwnership",
      "outputs": [],
      "stateMutability": "nonpayable",
      "type": "function"
    },
    {
      "inputs": [
        {
          "internalType": "uint256",
          "name": "_newPrice",
          "type": "uint256"
        }
      ],
      "name": "setMembershipPrice",
      "outputs": [],
      "stateMutability": "nonpayable",
      "type": "function"
    },
    {
      "inputs": [
        {
          "internalType": "address[]",
          "name": "_newMods",
          "type": "address[]"
        }
      ],
      "name": "setMods",
      "outputs": [],
      "stateMutability": "nonpayable",
      "type": "function"
    },
    {
      "inputs": [
        {
          "internalType": "address",
          "name": "newOwner",
          "type": "address"
        }
      ],
      "name": "transferOwnership",
      "outputs": [],
      "stateMutability": "nonpayable",
      "type": "function"
    },
    {
      "inputs": [
        {
          "internalType": "address",
          "name": "",
          "type": "address"
        }
      ],
      "name": "usersPaid",
      "outputs": [
        {
          "internalType": "bool",
          "name": "",
          "type": "bool"
        }
      ],
      "stateMutability": "view",
      "type": "function"
    }
  ],
  "transactionHash": "0x0b50819552671e2662482bbe28b8854c8c59cdd5bd2ea30b473d2a47e2003b97",
  "args": [
    "0xABB70f7F39035586Da57B3c8136035f87AC0d2Aa",
    "0xFa50bF0576022563680C9EcB39e3B69994645fdB",
    "wid_staging_85f9d1b6ab3027c3d5026fbb30a41998"
  ],
  "numDeployments": 1,
  "solcInputHash": "9f3b74fa4be50393041b37ca7e365047",
  "bytecode": "0x60806040526005600460006101000a81548160ff021916908360ff16021790555060016008553480156200003257600080fd5b5060405162002857380380620028578339818101604052810190620000589190620004df565b620000786200006c6200011c60201b60201c565b6200012460201b60201c565b82600660006101000a81548173ffffffffffffffffffffffffffffffffffffffff021916908373ffffffffffffffffffffffffffffffffffffffff16021790555081600460016101000a81548173ffffffffffffffffffffffffffffffffffffffff021916908373ffffffffffffffffffffffffffffffffffffffff160217905550806007908051906020019062000112929190620001e8565b50505050620005bf565b600033905090565b60008060009054906101000a900473ffffffffffffffffffffffffffffffffffffffff169050816000806101000a81548173ffffffffffffffffffffffffffffffffffffffff021916908373ffffffffffffffffffffffffffffffffffffffff1602179055508173ffffffffffffffffffffffffffffffffffffffff168173ffffffffffffffffffffffffffffffffffffffff167f8be0079c531659141344cd1fd0a4f28419497f9722a3daafe3b4186f6b6457e060405160405180910390a35050565b828054620001f69062000589565b90600052602060002090601f0160209004810192826200021a576000855562000266565b82601f106200023557805160ff191683800117855562000266565b8280016001018555821562000266579182015b828111156200026557825182559160200191906001019062000248565b5b50905062000275919062000279565b5090565b5b80821115620002945760008160009055506001016200027a565b5090565b6000604051905090565b600080fd5b600080fd5b600073ffffffffffffffffffffffffffffffffffffffff82169050919050565b6000620002d982620002ac565b9050919050565b6000620002ed82620002cc565b9050919050565b620002ff81620002e0565b81146200030b57600080fd5b50565b6000815190506200031f81620002f4565b92915050565b6200033081620002cc565b81146200033c57600080fd5b50565b600081519050620003508162000325565b92915050565b600080fd5b600080fd5b6000601f19601f8301169050919050565b7f4e487b7100000000000000000000000000000000000000000000000000000000600052604160045260246000fd5b620003ab8262000360565b810181811067ffffffffffffffff82111715620003cd57620003cc62000371565b5b80604052505050565b6000620003e262000298565b9050620003f08282620003a0565b919050565b600067ffffffffffffffff82111562000413576200041262000371565b5b6200041e8262000360565b9050602081019050919050565b60005b838110156200044b5780820151818401526020810190506200042e565b838111156200045b576000848401525b50505050565b6000620004786200047284620003f5565b620003d6565b9050828152602081018484840111156200049757620004966200035b565b5b620004a48482856200042b565b509392505050565b600082601f830112620004c457620004c362000356565b5b8151620004d684826020860162000461565b91505092915050565b600080600060608486031215620004fb57620004fa620002a2565b5b60006200050b868287016200030e565b93505060206200051e868287016200033f565b925050604084015167ffffffffffffffff811115620005425762000541620002a7565b5b6200055086828701620004ac565b9150509250925092565b7f4e487b7100000000000000000000000000000000000000000000000000000000600052602260045260246000fd5b60006002820490506001821680620005a257607f821691505b60208210811415620005b957620005b86200055a565b5b50919050565b61228880620005cf6000396000f3fe6080604052600436106100e85760003560e01c8063846d0bb91161008a578063a230c52411610059578063a230c524146102c6578063c00af42c14610303578063e07540e414610340578063f2fde38b14610369576100e8565b8063846d0bb9146102195780638988b284146102355780638da5cb5b146102725780639bb40d831461029d576100e8565b80635dcce7ed116100c65780635dcce7ed1461018057806366b9b5631461019c57806369d5f38a146101d9578063715018a614610202576100e8565b80633b33ac32146100ed5780634d078f481461011857806354e6845414610143575b600080fd5b3480156100f957600080fd5b50610102610392565b60405161010f9190611638565b60405180910390f35b34801561012457600080fd5b5061012d610420565b60405161013a9190611676565b60405180910390f35b34801561014f57600080fd5b5061016a600480360381019061016591906116d1565b610433565b6040516101779190611719565b60405180910390f35b61019a60048036038101906101959190611799565b610453565b005b3480156101a857600080fd5b506101c360048036038101906101be91906116d1565b610629565b6040516101d0919061187f565b60405180910390f35b3480156101e557600080fd5b5061020060048036038101906101fb91906118d7565b6106c9565b005b34801561020e57600080fd5b50610217610859565b005b610233600480360381019061022e919061197c565b61086d565b005b34801561024157600080fd5b5061025c600480360381019061025791906116d1565b610996565b6040516102699190611719565b60405180910390f35b34801561027e57600080fd5b506102876109b6565b6040516102949190611a26565b60405180910390f35b3480156102a957600080fd5b506102c460048036038101906102bf9190611b71565b6109df565b005b3480156102d257600080fd5b506102ed60048036038101906102e891906116d1565b610bab565b6040516102fa9190611719565b60405180910390f35b34801561030f57600080fd5b5061032a600480360381019061032591906118d7565b610cf2565b6040516103379190611a26565b60405180910390f35b34801561034c57600080fd5b5061036760048036038101906103629190611799565b610d31565b005b34801561037557600080fd5b50610390600480360381019061038b91906116d1565b61100a565b005b6060600580548060200260200160405190810160405280929190818152602001828054801561041657602002820191906000526020600020905b8160009054906101000a900473ffffffffffffffffffffffffffffffffffffffff1673ffffffffffffffffffffffffffffffffffffffff16815260200190600101908083116103cc575b5050505050905090565b600460009054906101000a900460ff1681565b60026020528060005260406000206000915054906101000a900460ff1681565b600082829050905061050d600460019054906101000a900473ffffffffffffffffffffffffffffffffffffffff1673ffffffffffffffffffffffffffffffffffffffff1663e413e2bc6040518163ffffffff1660e01b815260040160206040518083038186803b1580156104c657600080fd5b505afa1580156104da573d6000803e3d6000fd5b505050506040513d601f19601f820116820180604052508101906104fe9190611c1e565b8261108e90919063ffffffff16565b34101561054f576040517f08c379a000000000000000000000000000000000000000000000000000000000815260040161054690611c97565b60405180910390fd5b60005b818110156105ec5760016002600086868581811061057357610572611cb7565b5b905060200201602081019061058891906116d1565b73ffffffffffffffffffffffffffffffffffffffff1673ffffffffffffffffffffffffffffffffffffffff16815260200190815260200160002060006101000a81548160ff02191690831515021790555080806105e490611d15565b915050610552565b507fa90ad43b37352ebc1e46954a3f2d064584b9afe4c9dbb1f88d191260e12a410e8160405161061c9190611d6d565b60405180910390a1505050565b6001602052806000526040600020600091509050805461064890611db7565b80601f016020809104026020016040519081016040528092919081815260200182805461067490611db7565b80156106c15780601f10610696576101008083540402835291602001916106c1565b820191906000526020600020905b8154815290600101906020018083116106a457829003601f168201915b505050505081565b600360003373ffffffffffffffffffffffffffffffffffffffff1673ffffffffffffffffffffffffffffffffffffffff16815260200190815260200160002060009054906101000a900460ff168061075357503373ffffffffffffffffffffffffffffffffffffffff1661073b6109b6565b73ffffffffffffffffffffffffffffffffffffffff16145b610792576040517f08c379a000000000000000000000000000000000000000000000000000000000815260040161078990611e5b565b60405180910390fd5b600460019054906101000a900473ffffffffffffffffffffffffffffffffffffffff1673ffffffffffffffffffffffffffffffffffffffff16630249d624826040518263ffffffff1660e01b81526004016107ed9190611d6d565b600060405180830381600087803b15801561080757600080fd5b505af115801561081b573d6000803e3d6000fd5b505050507fe3b51bfc59d6e44e4da024e028d277b0284e6695cce36d919aea83e2c7de28438160405161084e9190611d6d565b60405180910390a150565b6108616110a4565b61086b6000611122565b565b610879848484846111e6565b8585600160003373ffffffffffffffffffffffffffffffffffffffff1673ffffffffffffffffffffffffffffffffffffffff16815260200190815260200160002091906108c7929190611395565b50600460019054906101000a900473ffffffffffffffffffffffffffffffffffffffff1673ffffffffffffffffffffffffffffffffffffffff16631803aa33336040518263ffffffff1660e01b81526004016109239190611a26565b600060405180830381600087803b15801561093d57600080fd5b505af1158015610951573d6000803e3d6000fd5b505050507f7f48e4f7f3ef2c63408b16a799b8516cb879c145386aedd51a36938a02a1c2833334604051610986929190611e7b565b60405180910390a1505050505050565b60036020528060005260406000206000915054906101000a900460ff1681565b60008060009054906101000a900473ffffffffffffffffffffffffffffffffffffffff16905090565b6109eb848484846111e6565b84600160003373ffffffffffffffffffffffffffffffffffffffff1673ffffffffffffffffffffffffffffffffffffffff1681526020019081526020016000209080519060200190610a3e92919061141b565b50600460019054906101000a900473ffffffffffffffffffffffffffffffffffffffff1673ffffffffffffffffffffffffffffffffffffffff16631803aa33336040518263ffffffff1660e01b8152600401610a9a9190611a26565b600060405180830381600087803b158015610ab457600080fd5b505af1158015610ac8573d6000803e3d6000fd5b505050507f7f48e4f7f3ef2c63408b16a799b8516cb879c145386aedd51a36938a02a1c28333600460019054906101000a900473ffffffffffffffffffffffffffffffffffffffff1673ffffffffffffffffffffffffffffffffffffffff1663e413e2bc6040518163ffffffff1660e01b815260040160206040518083038186803b158015610b5657600080fd5b505afa158015610b6a573d6000803e3d6000fd5b505050506040513d601f19601f82011682018060405250810190610b8e9190611c1e565b604051610b9c929190611e7b565b60405180910390a15050505050565b600080600460019054906101000a900473ffffffffffffffffffffffffffffffffffffffff1673ffffffffffffffffffffffffffffffffffffffff166370a08231846040518263ffffffff1660e01b8152600401610c099190611a26565b60206040518083038186803b158015610c2157600080fd5b505afa158015610c35573d6000803e3d6000fd5b505050506040513d601f19601f82011682018060405250810190610c599190611c1e565b1180610c9757508173ffffffffffffffffffffffffffffffffffffffff16610c7f6109b6565b73ffffffffffffffffffffffffffffffffffffffff16145b80610ceb5750600360008373ffffffffffffffffffffffffffffffffffffffff1673ffffffffffffffffffffffffffffffffffffffff16815260200190815260200160002060009054906101000a900460ff165b9050919050565b60058181548110610d0257600080fd5b906000526020600020016000915054906101000a900473ffffffffffffffffffffffffffffffffffffffff1681565b610d396110a4565b60008282905090506000600580549050905060008267ffffffffffffffff811115610d6757610d66611a46565b5b604051908082528060200260200182016040528015610d955781602001602082028036833780820191505090505b509050600460009054906101000a900460ff1660ff16831115610ded576040517f08c379a0000000000000000000000000000000000000000000000000000000008152600401610de490611ef0565b60405180910390fd5b60005b82811015610ea15760006003600060058481548110610e1257610e11611cb7565b5b9060005260206000200160009054906101000a900473ffffffffffffffffffffffffffffffffffffffff1673ffffffffffffffffffffffffffffffffffffffff1673ffffffffffffffffffffffffffffffffffffffff16815260200190815260200160002060006101000a81548160ff0219169083151502179055508080610e9990611d15565b915050610df0565b5060005b83811015610fb457858582818110610ec057610ebf611cb7565b5b9050602002016020810190610ed591906116d1565b828281518110610ee857610ee7611cb7565b5b602002602001019073ffffffffffffffffffffffffffffffffffffffff16908173ffffffffffffffffffffffffffffffffffffffff1681525050600160036000888885818110610f3b57610f3a611cb7565b5b9050602002016020810190610f5091906116d1565b73ffffffffffffffffffffffffffffffffffffffff1673ffffffffffffffffffffffffffffffffffffffff16815260200190815260200160002060006101000a81548160ff0219169083151502179055508080610fac90611d15565b915050610ea5565b508060059080519060200190610fcb9291906114a1565b507f271382085bd3790c7702e021ba0fc6d8369de53f765d04ffcd8fd3c75cde0fea81604051610ffb9190611638565b60405180910390a15050505050565b6110126110a4565b600073ffffffffffffffffffffffffffffffffffffffff168173ffffffffffffffffffffffffffffffffffffffff161415611082576040517f08c379a000000000000000000000000000000000000000000000000000000000815260040161107990611f82565b60405180910390fd5b61108b81611122565b50565b6000818361109c9190611fa2565b905092915050565b6110ac611356565b73ffffffffffffffffffffffffffffffffffffffff166110ca6109b6565b73ffffffffffffffffffffffffffffffffffffffff1614611120576040517f08c379a000000000000000000000000000000000000000000000000000000000815260040161111790612048565b60405180910390fd5b565b60008060009054906101000a900473ffffffffffffffffffffffffffffffffffffffff169050816000806101000a81548173ffffffffffffffffffffffffffffffffffffffff021916908373ffffffffffffffffffffffffffffffffffffffff1602179055508173ffffffffffffffffffffffffffffffffffffffff168173ffffffffffffffffffffffffffffffffffffffff167f8be0079c531659141344cd1fd0a4f28419497f9722a3daafe3b4186f6b6457e060405160405180910390a35050565b6009600083815260200190815260200160002060009054906101000a900460ff161561123e576040517f5d904cb200000000000000000000000000000000000000000000000000000000815260040160405180910390fd5b600660009054906101000a900473ffffffffffffffffffffffffffffffffffffffff1673ffffffffffffffffffffffffffffffffffffffff16633bc778e3846008546112a88860405160200161129491906120b0565b60405160208183030381529060405261135e565b866112d260076040516020016112be919061216a565b60405160208183030381529060405261135e565b876040518763ffffffff1660e01b81526004016112f496959493929190612192565b60006040518083038186803b15801561130c57600080fd5b505afa158015611320573d6000803e3d6000fd5b5050505060016009600084815260200190815260200160002060006101000a81548160ff02191690831515021790555050505050565b600033905090565b6000600882604051602001611373919061223b565b6040516020818303038152906040528051906020012060001c901c9050919050565b8280546113a190611db7565b90600052602060002090601f0160209004810192826113c3576000855561140a565b82601f106113dc57803560ff191683800117855561140a565b8280016001018555821561140a579182015b828111156114095782358255916020019190600101906113ee565b5b509050611417919061152b565b5090565b82805461142790611db7565b90600052602060002090601f0160209004810192826114495760008555611490565b82601f1061146257805160ff1916838001178555611490565b82800160010185558215611490579182015b8281111561148f578251825591602001919060010190611474565b5b50905061149d919061152b565b5090565b82805482825590600052602060002090810192821561151a579160200282015b828111156115195782518260006101000a81548173ffffffffffffffffffffffffffffffffffffffff021916908373ffffffffffffffffffffffffffffffffffffffff160217905550916020019190600101906114c1565b5b509050611527919061152b565b5090565b5b8082111561154457600081600090555060010161152c565b5090565b600081519050919050565b600082825260208201905092915050565b6000819050602082019050919050565b600073ffffffffffffffffffffffffffffffffffffffff82169050919050565b600061159f82611574565b9050919050565b6115af81611594565b82525050565b60006115c183836115a6565b60208301905092915050565b6000602082019050919050565b60006115e582611548565b6115ef8185611553565b93506115fa83611564565b8060005b8381101561162b57815161161288826115b5565b975061161d836115cd565b9250506001810190506115fe565b5085935050505092915050565b6000602082019050818103600083015261165281846115da565b905092915050565b600060ff82169050919050565b6116708161165a565b82525050565b600060208201905061168b6000830184611667565b92915050565b6000604051905090565b600080fd5b600080fd5b6116ae81611594565b81146116b957600080fd5b50565b6000813590506116cb816116a5565b92915050565b6000602082840312156116e7576116e661169b565b5b60006116f5848285016116bc565b91505092915050565b60008115159050919050565b611713816116fe565b82525050565b600060208201905061172e600083018461170a565b92915050565b600080fd5b600080fd5b600080fd5b60008083601f84011261175957611758611734565b5b8235905067ffffffffffffffff81111561177657611775611739565b5b6020830191508360208202830111156117925761179161173e565b5b9250929050565b600080602083850312156117b0576117af61169b565b5b600083013567ffffffffffffffff8111156117ce576117cd6116a0565b5b6117da85828601611743565b92509250509250929050565b600081519050919050565b600082825260208201905092915050565b60005b83811015611820578082015181840152602081019050611805565b8381111561182f576000848401525b50505050565b6000601f19601f8301169050919050565b6000611851826117e6565b61185b81856117f1565b935061186b818560208601611802565b61187481611835565b840191505092915050565b600060208201905081810360008301526118998184611846565b905092915050565b6000819050919050565b6118b4816118a1565b81146118bf57600080fd5b50565b6000813590506118d1816118ab565b92915050565b6000602082840312156118ed576118ec61169b565b5b60006118fb848285016118c2565b91505092915050565b60008083601f84011261191a57611919611734565b5b8235905067ffffffffffffffff81111561193757611936611739565b5b6020830191508360018202830111156119535761195261173e565b5b9250929050565b6000819050826020600802820111156119765761197561173e565b5b92915050565b600080600080600080610180878903121561199a5761199961169b565b5b600087013567ffffffffffffffff8111156119b8576119b76116a0565b5b6119c489828a01611904565b965096505060206119d789828a016116bc565b94505060406119e889828a016118c2565b93505060606119f989828a016118c2565b9250506080611a0a89828a0161195a565b9150509295509295509295565b611a2081611594565b82525050565b6000602082019050611a3b6000830184611a17565b92915050565b600080fd5b7f4e487b7100000000000000000000000000000000000000000000000000000000600052604160045260246000fd5b611a7e82611835565b810181811067ffffffffffffffff82111715611a9d57611a9c611a46565b5b80604052505050565b6000611ab0611691565b9050611abc8282611a75565b919050565b600067ffffffffffffffff821115611adc57611adb611a46565b5b611ae582611835565b9050602081019050919050565b82818337600083830152505050565b6000611b14611b0f84611ac1565b611aa6565b905082815260208101848484011115611b3057611b2f611a41565b5b611b3b848285611af2565b509392505050565b600082601f830112611b5857611b57611734565b5b8135611b68848260208601611b01565b91505092915050565b60008060008060006101808688031215611b8e57611b8d61169b565b5b600086013567ffffffffffffffff811115611bac57611bab6116a0565b5b611bb888828901611b43565b9550506020611bc9888289016116bc565b9450506040611bda888289016118c2565b9350506060611beb888289016118c2565b9250506080611bfc8882890161195a565b9150509295509295909350565b600081519050611c18816118ab565b92915050565b600060208284031215611c3457611c3361169b565b5b6000611c4284828501611c09565b91505092915050565b7f4e6f7420656e6f7567682066756e647300000000000000000000000000000000600082015250565b6000611c816010836117f1565b9150611c8c82611c4b565b602082019050919050565b60006020820190508181036000830152611cb081611c74565b9050919050565b7f4e487b7100000000000000000000000000000000000000000000000000000000600052603260045260246000fd5b7f4e487b7100000000000000000000000000000000000000000000000000000000600052601160045260246000fd5b6000611d20826118a1565b91507fffffffffffffffffffffffffffffffffffffffffffffffffffffffffffffffff821415611d5357611d52611ce6565b5b600182019050919050565b611d67816118a1565b82525050565b6000602082019050611d826000830184611d5e565b92915050565b7f4e487b7100000000000000000000000000000000000000000000000000000000600052602260045260246000fd5b60006002820490506001821680611dcf57607f821691505b60208210811415611de357611de2611d88565b5b50919050565b7f63616c6c6572206973206e6f742061206d6f64657261746f72206f72206f776e60008201527f6572000000000000000000000000000000000000000000000000000000000000602082015250565b6000611e456022836117f1565b9150611e5082611de9565b604082019050919050565b60006020820190508181036000830152611e7481611e38565b9050919050565b6000604082019050611e906000830185611a17565b611e9d6020830184611d5e565b9392505050565b7f6d6178206e756d626572206f66206d6f64732069732035000000000000000000600082015250565b6000611eda6017836117f1565b9150611ee582611ea4565b602082019050919050565b60006020820190508181036000830152611f0981611ecd565b9050919050565b7f4f776e61626c653a206e6577206f776e657220697320746865207a65726f206160008201527f6464726573730000000000000000000000000000000000000000000000000000602082015250565b6000611f6c6026836117f1565b9150611f7782611f10565b604082019050919050565b60006020820190508181036000830152611f9b81611f5f565b9050919050565b6000611fad826118a1565b9150611fb8836118a1565b9250817fffffffffffffffffffffffffffffffffffffffffffffffffffffffffffffffff0483118215151615611ff157611ff0611ce6565b5b828202905092915050565b7f4f776e61626c653a2063616c6c6572206973206e6f7420746865206f776e6572600082015250565b60006120326020836117f1565b915061203d82611ffc565b602082019050919050565b6000602082019050818103600083015261206181612025565b9050919050565b60008160601b9050919050565b600061208082612068565b9050919050565b600061209282612075565b9050919050565b6120aa6120a582611594565b612087565b82525050565b60006120bc8284612099565b60148201915081905092915050565b600081905092915050565b60008190508160005260206000209050919050565b600081546120f881611db7565b61210281866120cb565b9450600182166000811461211d576001811461212e57612161565b60ff19831686528186019350612161565b612137856120d6565b60005b838110156121595781548189015260018201915060208101905061213a565b838801955050505b50505092915050565b600061217682846120eb565b915081905092915050565b61218e6101008383611af2565b5050565b60006101a0820190506121a86000830189611d5e565b6121b56020830188611d5e565b6121c26040830187611d5e565b6121cf6060830186611d5e565b6121dc6080830185611d5e565b6121e960a0830184612181565b979650505050505050565b600081519050919050565b600081905092915050565b6000612215826121f4565b61221f81856121ff565b935061222f818560208601611802565b80840191505092915050565b6000612247828461220a565b91508190509291505056fea264697066735822122048e1f01de8cdd705ffdf29581edb8922e0d6394493a53751405a594ceb72dd6064736f6c63430008090033",
  "devdoc": {
    "kind": "dev",
    "methods": {
      "owner()": {
        "details": "Returns the address of the current owner."
      },
      "renounceOwnership()": {
        "details": "Leaves the contract without owner. It will not be possible to call `onlyOwner` functions anymore. Can only be called by the current owner. NOTE: Renouncing ownership will leave the contract without an owner, thereby removing any functionality that is only available to the owner."
      },
      "transferOwnership(address)": {
        "details": "Transfers ownership of the contract to a new account (`newOwner`). Can only be called by the current owner."
      }
    },
    "stateVariables": {
      "worldId": {
        "details": "worldcoin verification*"
      }
    },
    "version": 1
  },
  "userdoc": {
    "kind": "user",
    "methods": {},
    "version": 1
  },
  "storageLayout": {
    "storage": [
      {
        "astId": 7,
        "contract": "contracts/LepakCore.sol:LepakCore",
        "label": "_owner",
        "offset": 0,
        "slot": "0",
        "type": "t_address"
      },
      {
        "astId": 630,
        "contract": "contracts/LepakCore.sol:LepakCore",
        "label": "UserInfoURI",
        "offset": 0,
        "slot": "1",
        "type": "t_mapping(t_address,t_string_storage)"
      },
      {
        "astId": 634,
        "contract": "contracts/LepakCore.sol:LepakCore",
        "label": "usersPaid",
        "offset": 0,
        "slot": "2",
        "type": "t_mapping(t_address,t_bool)"
      },
      {
        "astId": 638,
        "contract": "contracts/LepakCore.sol:LepakCore",
        "label": "isMod",
        "offset": 0,
        "slot": "3",
        "type": "t_mapping(t_address,t_bool)"
      },
      {
        "astId": 641,
        "contract": "contracts/LepakCore.sol:LepakCore",
        "label": "modLimit",
        "offset": 0,
        "slot": "4",
        "type": "t_uint8"
      },
      {
        "astId": 644,
        "contract": "contracts/LepakCore.sol:LepakCore",
        "label": "membership",
        "offset": 1,
        "slot": "4",
        "type": "t_contract(ILepakMembership)562"
      },
      {
        "astId": 647,
        "contract": "contracts/LepakCore.sol:LepakCore",
        "label": "mods",
        "offset": 0,
        "slot": "5",
        "type": "t_array(t_address)dyn_storage"
      },
      {
        "astId": 651,
        "contract": "contracts/LepakCore.sol:LepakCore",
        "label": "worldId",
        "offset": 0,
        "slot": "6",
        "type": "t_contract(IWorldID)583"
      },
      {
        "astId": 653,
        "contract": "contracts/LepakCore.sol:LepakCore",
        "label": "action_id",
        "offset": 0,
        "slot": "7",
        "type": "t_string_storage"
      },
      {
        "astId": 656,
        "contract": "contracts/LepakCore.sol:LepakCore",
        "label": "groupId",
        "offset": 0,
        "slot": "8",
        "type": "t_uint256"
      },
      {
        "astId": 660,
        "contract": "contracts/LepakCore.sol:LepakCore",
        "label": "nullifierHashes",
        "offset": 0,
        "slot": "9",
        "type": "t_mapping(t_uint256,t_bool)"
      }
    ],
    "types": {
      "t_address": {
        "encoding": "inplace",
        "label": "address",
        "numberOfBytes": "20"
      },
      "t_array(t_address)dyn_storage": {
        "base": "t_address",
        "encoding": "dynamic_array",
        "label": "address[]",
        "numberOfBytes": "32"
      },
      "t_bool": {
        "encoding": "inplace",
        "label": "bool",
        "numberOfBytes": "1"
      },
      "t_contract(ILepakMembership)562": {
        "encoding": "inplace",
        "label": "contract ILepakMembership",
        "numberOfBytes": "20"
      },
      "t_contract(IWorldID)583": {
        "encoding": "inplace",
        "label": "contract IWorldID",
        "numberOfBytes": "20"
      },
      "t_mapping(t_address,t_bool)": {
        "encoding": "mapping",
        "key": "t_address",
        "label": "mapping(address => bool)",
        "numberOfBytes": "32",
        "value": "t_bool"
      },
      "t_mapping(t_address,t_string_storage)": {
        "encoding": "mapping",
        "key": "t_address",
        "label": "mapping(address => string)",
        "numberOfBytes": "32",
        "value": "t_string_storage"
      },
      "t_mapping(t_uint256,t_bool)": {
        "encoding": "mapping",
        "key": "t_uint256",
        "label": "mapping(uint256 => bool)",
        "numberOfBytes": "32",
        "value": "t_bool"
      },
      "t_string_storage": {
        "encoding": "bytes",
        "label": "string",
        "numberOfBytes": "32"
      },
      "t_uint256": {
        "encoding": "inplace",
        "label": "uint256",
        "numberOfBytes": "32"
      },
      "t_uint8": {
        "encoding": "inplace",
        "label": "uint8",
        "numberOfBytes": "1"
      }
    }
  }
}