{
  "address": "0x517f566B05bFE9bCf0eC13bEe1d9A1F0e19E0915",
  "abi": [
    {
      "inputs": [
        {
          "internalType": "contract IWorldID",
          "name": "_worldId",
          "type": "address"
        },
        {
          "internalType": "address",
          "name": "_membershipAddr",
          "type": "address"
        },
        {
          "internalType": "string",
          "name": "_action_id",
          "type": "string"
        }
      ],
      "stateMutability": "nonpayable",
      "type": "constructor"
    },
    {
      "inputs": [],
      "name": "InvalidNullifier",
      "type": "error"
    },
    {
      "anonymous": false,
      "inputs": [
        {
          "indexed": false,
          "internalType": "uint256",
          "name": "new_price",
          "type": "uint256"
        }
      ],
      "name": "MembershipPriceUpdated",
      "type": "event"
    },
    {
      "anonymous": false,
      "inputs": [
        {
          "indexed": false,
          "internalType": "address[]",
          "name": "new_mods",
          "type": "address[]"
        }
      ],
      "name": "ModsUpdated",
      "type": "event"
    },
    {
      "anonymous": false,
      "inputs": [
        {
          "indexed": false,
          "internalType": "address",
          "name": "member",
          "type": "address"
        },
        {
          "indexed": false,
          "internalType": "uint256",
          "name": "fee",
          "type": "uint256"
        }
      ],
      "name": "NewMemberEth",
      "type": "event"
    },
    {
      "anonymous": false,
      "inputs": [
        {
          "indexed": false,
          "internalType": "uint256",
          "name": "n_members",
          "type": "uint256"
        }
      ],
      "name": "NewTeam",
      "type": "event"
    },
    {
      "anonymous": false,
      "inputs": [
        {
          "indexed": true,
          "internalType": "address",
          "name": "previousOwner",
          "type": "address"
        },
        {
          "indexed": true,
          "internalType": "address",
          "name": "newOwner",
          "type": "address"
        }
      ],
      "name": "OwnershipTransferred",
      "type": "event"
    },
    {
      "anonymous": false,
      "inputs": [
        {
          "indexed": false,
          "internalType": "address",
          "name": "member",
          "type": "address"
        },
        {
          "indexed": false,
          "internalType": "address",
          "name": "token_addr",
          "type": "address"
        },
        {
          "indexed": false,
          "internalType": "uint256",
          "name": "fee",
          "type": "uint256"
        }
      ],
      "name": "newMember",
      "type": "event"
    },
    {
      "inputs": [
        {
          "internalType": "address",
          "name": "",
          "type": "address"
        }
      ],
      "name": "UserInfoURI",
      "outputs": [
        {
          "internalType": "string",
          "name": "",
          "type": "string"
        }
      ],
      "stateMutability": "view",
      "type": "function"
    },
    {
      "inputs": [],
      "name": "getMods",
      "outputs": [
        {
          "internalType": "address[]",
          "name": "",
          "type": "address[]"
        }
      ],
      "stateMutability": "view",
      "type": "function"
    },
    {
      "inputs": [],
      "name": "getwhitelistedToken",
      "outputs": [
        {
          "internalType": "address[]",
          "name": "",
          "type": "address[]"
        }
      ],
      "stateMutability": "view",
      "type": "function"
    },
    {
      "inputs": [
        {
          "internalType": "address",
          "name": "_user",
          "type": "address"
        }
      ],
      "name": "isMember",
      "outputs": [
        {
          "internalType": "bool",
          "name": "",
          "type": "bool"
        }
      ],
      "stateMutability": "view",
      "type": "function"
    },
    {
      "inputs": [
        {
          "internalType": "address",
          "name": "",
          "type": "address"
        }
      ],
      "name": "isMod",
      "outputs": [
        {
          "internalType": "bool",
          "name": "",
          "type": "bool"
        }
      ],
      "stateMutability": "view",
      "type": "function"
    },
    {
      "inputs": [
        {
          "internalType": "address",
          "name": "",
          "type": "address"
        }
      ],
      "name": "isWhitelistedToken",
      "outputs": [
        {
          "internalType": "bool",
          "name": "",
          "type": "bool"
        }
      ],
      "stateMutability": "view",
      "type": "function"
    },
    {
      "inputs": [
        {
          "internalType": "address",
          "name": "_token",
          "type": "address"
        }
      ],
      "name": "joinWithERC20",
      "outputs": [],
      "stateMutability": "nonpayable",
      "type": "function"
    },
    {
      "inputs": [
        {
          "internalType": "string",
          "name": "infoURI",
          "type": "string"
        },
        {
          "internalType": "address",
          "name": "_caller",
          "type": "address"
        },
        {
          "internalType": "uint256",
          "name": "root",
          "type": "uint256"
        },
        {
          "internalType": "uint256",
          "name": "nullifierHash",
          "type": "uint256"
        },
        {
          "internalType": "uint256[8]",
          "name": "proof",
          "type": "uint256[8]"
        }
      ],
      "name": "joinWithEth",
      "outputs": [],
      "stateMutability": "payable",
      "type": "function"
    },
    {
      "inputs": [
        {
          "internalType": "string",
          "name": "infoURI",
          "type": "string"
        },
        {
          "internalType": "address",
          "name": "_caller",
          "type": "address"
        },
        {
          "internalType": "uint256",
          "name": "root",
          "type": "uint256"
        },
        {
          "internalType": "uint256",
          "name": "nullifierHash",
          "type": "uint256"
        },
        {
          "internalType": "uint256[8]",
          "name": "proof",
          "type": "uint256[8]"
        }
      ],
      "name": "joinWithoutEth",
      "outputs": [],
      "stateMutability": "nonpayable",
      "type": "function"
    },
    {
      "inputs": [],
      "name": "modLimit",
      "outputs": [
        {
          "internalType": "uint8",
          "name": "",
          "type": "uint8"
        }
      ],
      "stateMutability": "view",
      "type": "function"
    },
    {
      "inputs": [
        {
          "internalType": "uint256",
          "name": "",
          "type": "uint256"
        }
      ],
      "name": "mods",
      "outputs": [
        {
          "internalType": "address",
          "name": "",
          "type": "address"
        }
      ],
      "stateMutability": "view",
      "type": "function"
    },
    {
      "inputs": [],
      "name": "oracleAddr",
      "outputs": [
        {
          "internalType": "address",
          "name": "",
          "type": "address"
        }
      ],
      "stateMutability": "view",
      "type": "function"
    },
    {
      "inputs": [],
      "name": "owner",
      "outputs": [
        {
          "internalType": "address",
          "name": "",
          "type": "address"
        }
      ],
      "stateMutability": "view",
      "type": "function"
    },
    {
      "inputs": [
        {
          "internalType": "address[]",
          "name": "_members",
          "type": "address[]"
        }
      ],
      "name": "payForTeam",
      "outputs": [],
      "stateMutability": "payable",
      "type": "function"
    },
    {
      "inputs": [],
      "name": "renounceOwnership",
      "outputs": [],
      "stateMutability": "nonpayable",
      "type": "function"
    },
    {
      "inputs": [
        {
          "internalType": "uint256",
          "name": "_newPrice",
          "type": "uint256"
        }
      ],
      "name": "setMembershipPrice",
      "outputs": [],
      "stateMutability": "nonpayable",
      "type": "function"
    },
    {
      "inputs": [
        {
          "internalType": "address[]",
          "name": "_newMods",
          "type": "address[]"
        }
      ],
      "name": "setMods",
      "outputs": [],
      "stateMutability": "nonpayable",
      "type": "function"
    },
    {
      "inputs": [
        {
          "internalType": "address",
          "name": "_newOracle",
          "type": "address"
        }
      ],
      "name": "setOracle",
      "outputs": [],
      "stateMutability": "nonpayable",
      "type": "function"
    },
    {
      "inputs": [
        {
          "internalType": "address",
          "name": "_newTreasury",
          "type": "address"
        }
      ],
      "name": "setTreasury",
      "outputs": [],
      "stateMutability": "nonpayable",
      "type": "function"
    },
    {
      "inputs": [
        {
          "internalType": "address",
          "name": "newOwner",
          "type": "address"
        }
      ],
      "name": "transferOwnership",
      "outputs": [],
      "stateMutability": "nonpayable",
      "type": "function"
    },
    {
      "inputs": [],
      "name": "treasury_addr",
      "outputs": [
        {
          "internalType": "address",
          "name": "",
          "type": "address"
        }
      ],
      "stateMutability": "view",
      "type": "function"
    },
    {
      "inputs": [
        {
          "internalType": "address",
          "name": "",
          "type": "address"
        }
      ],
      "name": "usersPaid",
      "outputs": [
        {
          "internalType": "bool",
          "name": "",
          "type": "bool"
        }
      ],
      "stateMutability": "view",
      "type": "function"
    },
    {
      "inputs": [
        {
          "internalType": "address",
          "name": "_token",
          "type": "address"
        }
      ],
      "name": "whitelistToken",
      "outputs": [],
      "stateMutability": "nonpayable",
      "type": "function"
    }
  ],
  "transactionHash": "0xea6a3bb3df427b8c3897fd56fdc5e30fac6c0c2f6dce936a746538fad9656bd0",
  "args": [
    "0xABB70f7F39035586Da57B3c8136035f87AC0d2Aa",
    "0x73a13c821076113Cd37ad2903da73c8d9aaA85B8",
    "wid_staging_85f9d1b6ab3027c3d5026fbb30a41998"
  ],
  "numDeployments": 1,
  "solcInputHash": "e653ccf244b8bf92938a0ab55a69aac6",
  "bytecode": "0x608060405260058060006101000a81548160ff021916908360ff1602179055506001600c553480156200003157600080fd5b506040516200328b3803806200328b8339818101604052810190620000579190620004de565b620000776200006b6200011b60201b60201c565b6200012360201b60201c565b82600a60006101000a81548173ffffffffffffffffffffffffffffffffffffffff021916908373ffffffffffffffffffffffffffffffffffffffff16021790555081600560016101000a81548173ffffffffffffffffffffffffffffffffffffffff021916908373ffffffffffffffffffffffffffffffffffffffff16021790555080600b908051906020019062000111929190620001e7565b50505050620005be565b600033905090565b60008060009054906101000a900473ffffffffffffffffffffffffffffffffffffffff169050816000806101000a81548173ffffffffffffffffffffffffffffffffffffffff021916908373ffffffffffffffffffffffffffffffffffffffff1602179055508173ffffffffffffffffffffffffffffffffffffffff168173ffffffffffffffffffffffffffffffffffffffff167f8be0079c531659141344cd1fd0a4f28419497f9722a3daafe3b4186f6b6457e060405160405180910390a35050565b828054620001f59062000588565b90600052602060002090601f01602090048101928262000219576000855562000265565b82601f106200023457805160ff191683800117855562000265565b8280016001018555821562000265579182015b828111156200026457825182559160200191906001019062000247565b5b50905062000274919062000278565b5090565b5b808211156200029357600081600090555060010162000279565b5090565b6000604051905090565b600080fd5b600080fd5b600073ffffffffffffffffffffffffffffffffffffffff82169050919050565b6000620002d882620002ab565b9050919050565b6000620002ec82620002cb565b9050919050565b620002fe81620002df565b81146200030a57600080fd5b50565b6000815190506200031e81620002f3565b92915050565b6200032f81620002cb565b81146200033b57600080fd5b50565b6000815190506200034f8162000324565b92915050565b600080fd5b600080fd5b6000601f19601f8301169050919050565b7f4e487b7100000000000000000000000000000000000000000000000000000000600052604160045260246000fd5b620003aa826200035f565b810181811067ffffffffffffffff82111715620003cc57620003cb62000370565b5b80604052505050565b6000620003e162000297565b9050620003ef82826200039f565b919050565b600067ffffffffffffffff82111562000412576200041162000370565b5b6200041d826200035f565b9050602081019050919050565b60005b838110156200044a5780820151818401526020810190506200042d565b838111156200045a576000848401525b50505050565b6000620004776200047184620003f4565b620003d5565b9050828152602081018484840111156200049657620004956200035a565b5b620004a38482856200042a565b509392505050565b600082601f830112620004c357620004c262000355565b5b8151620004d584826020860162000460565b91505092915050565b600080600060608486031215620004fa57620004f9620002a1565b5b60006200050a868287016200030d565b93505060206200051d868287016200033e565b925050604084015167ffffffffffffffff811115620005415762000540620002a6565b5b6200054f86828701620004ab565b9150509250925092565b7f4e487b7100000000000000000000000000000000000000000000000000000000600052602260045260246000fd5b60006002820490506001821680620005a157607f821691505b60208210811415620005b857620005b762000559565b5b50919050565b612cbd80620005ce6000396000f3fe6080604052600436106101405760003560e01c8063846d0bb9116100b6578063ab37f4861161006f578063ab37f4861461042c578063c00af42c14610469578063e07540e4146104a6578063f0f44260146104cf578063f2fde38b146104f8578063fb2eb1ee1461052157610140565b8063846d0bb91461031957806384fc28e4146103355780638988b2841461035e5780638da5cb5b1461039b5780639bb40d83146103c6578063a230c524146103ef57610140565b80636247f6f2116101085780636247f6f21461021f57806366b9b5631461024857806369d5f38a14610285578063715018a6146102ae5780637adbf973146102c55780637e4e61d7146102ee57610140565b80633b33ac321461014557806348b49cbf146101705780634d078f481461019b57806354e68454146101c65780635dcce7ed14610203575b600080fd5b34801561015157600080fd5b5061015a61054c565b6040516101679190611f11565b60405180910390f35b34801561017c57600080fd5b506101856105da565b6040516101929190611f42565b60405180910390f35b3480156101a757600080fd5b506101b0610600565b6040516101bd9190611f79565b60405180910390f35b3480156101d257600080fd5b506101ed60048036038101906101e89190611fd4565b610613565b6040516101fa919061201c565b60405180910390f35b61021d6004803603810190610218919061209c565b610633565b005b34801561022b57600080fd5b5061024660048036038101906102419190611fd4565b610809565b005b34801561025457600080fd5b5061026f600480360381019061026a9190611fd4565b6108cf565b60405161027c9190612182565b60405180910390f35b34801561029157600080fd5b506102ac60048036038101906102a791906121da565b61096f565b005b3480156102ba57600080fd5b506102c3610aff565b005b3480156102d157600080fd5b506102ec60048036038101906102e79190611fd4565b610b13565b005b3480156102fa57600080fd5b50610303610b5f565b6040516103109190611f42565b60405180910390f35b610333600480360381019061032e919061227f565b610b85565b005b34801561034157600080fd5b5061035c60048036038101906103579190611fd4565b610d90565b005b34801561036a57600080fd5b5061038560048036038101906103809190611fd4565b61115f565b604051610392919061201c565b60405180910390f35b3480156103a757600080fd5b506103b061117f565b6040516103bd9190611f42565b60405180910390f35b3480156103d257600080fd5b506103ed60048036038101906103e8919061244a565b6111a8565b005b3480156103fb57600080fd5b5061041660048036038101906104119190611fd4565b611374565b604051610423919061201c565b60405180910390f35b34801561043857600080fd5b50610453600480360381019061044e9190611fd4565b6114bb565b604051610460919061201c565b60405180910390f35b34801561047557600080fd5b50610490600480360381019061048b91906121da565b6114db565b60405161049d9190611f42565b60405180910390f35b3480156104b257600080fd5b506104cd60048036038101906104c8919061209c565b61151a565b005b3480156104db57600080fd5b506104f660048036038101906104f19190611fd4565b6117f3565b005b34801561050457600080fd5b5061051f600480360381019061051a9190611fd4565b61183f565b005b34801561052d57600080fd5b506105366118c3565b6040516105439190611f11565b60405180910390f35b606060068054806020026020016040519081016040528092919081815260200182805480156105d057602002820191906000526020600020905b8160009054906101000a900473ffffffffffffffffffffffffffffffffffffffff1673ffffffffffffffffffffffffffffffffffffffff1681526020019060010190808311610586575b5050505050905090565b600860009054906101000a900473ffffffffffffffffffffffffffffffffffffffff1681565b600560009054906101000a900460ff1681565b60026020528060005260406000206000915054906101000a900460ff1681565b60008282905090506106ed600560019054906101000a900473ffffffffffffffffffffffffffffffffffffffff1673ffffffffffffffffffffffffffffffffffffffff1663e413e2bc6040518163ffffffff1660e01b815260040160206040518083038186803b1580156106a657600080fd5b505afa1580156106ba573d6000803e3d6000fd5b505050506040513d601f19601f820116820180604052508101906106de91906124f7565b8261195190919063ffffffff16565b34101561072f576040517f08c379a000000000000000000000000000000000000000000000000000000000815260040161072690612570565b60405180910390fd5b60005b818110156107cc5760016002600086868581811061075357610752612590565b5b90506020020160208101906107689190611fd4565b73ffffffffffffffffffffffffffffffffffffffff1673ffffffffffffffffffffffffffffffffffffffff16815260200190815260200160002060006101000a81548160ff02191690831515021790555080806107c4906125ee565b915050610732565b507fa90ad43b37352ebc1e46954a3f2d064584b9afe4c9dbb1f88d191260e12a410e816040516107fc9190612646565b60405180910390a1505050565b610811611967565b6001600460008373ffffffffffffffffffffffffffffffffffffffff1673ffffffffffffffffffffffffffffffffffffffff16815260200190815260200160002060006101000a81548160ff0219169083151502179055506009819080600181540180825580915050600190039060005260206000200160009091909190916101000a81548173ffffffffffffffffffffffffffffffffffffffff021916908373ffffffffffffffffffffffffffffffffffffffff16021790555050565b600160205280600052604060002060009150905080546108ee90612690565b80601f016020809104026020016040519081016040528092919081815260200182805461091a90612690565b80156109675780601f1061093c57610100808354040283529160200191610967565b820191906000526020600020905b81548152906001019060200180831161094a57829003601f168201915b505050505081565b600360003373ffffffffffffffffffffffffffffffffffffffff1673ffffffffffffffffffffffffffffffffffffffff16815260200190815260200160002060009054906101000a900460ff16806109f957503373ffffffffffffffffffffffffffffffffffffffff166109e161117f565b73ffffffffffffffffffffffffffffffffffffffff16145b610a38576040517f08c379a0000000000000000000000000000000000000000000000000000000008152600401610a2f90612734565b60405180910390fd5b600560019054906101000a900473ffffffffffffffffffffffffffffffffffffffff1673ffffffffffffffffffffffffffffffffffffffff16630249d624826040518263ffffffff1660e01b8152600401610a939190612646565b600060405180830381600087803b158015610aad57600080fd5b505af1158015610ac1573d6000803e3d6000fd5b505050507fe3b51bfc59d6e44e4da024e028d277b0284e6695cce36d919aea83e2c7de284381604051610af49190612646565b60405180910390a150565b610b07611967565b610b1160006119e5565b565b610b1b611967565b80600760006101000a81548173ffffffffffffffffffffffffffffffffffffffff021916908373ffffffffffffffffffffffffffffffffffffffff16021790555050565b600760009054906101000a900473ffffffffffffffffffffffffffffffffffffffff1681565b600560019054906101000a900473ffffffffffffffffffffffffffffffffffffffff1673ffffffffffffffffffffffffffffffffffffffff1663e413e2bc6040518163ffffffff1660e01b815260040160206040518083038186803b158015610bed57600080fd5b505afa158015610c01573d6000803e3d6000fd5b505050506040513d601f19601f82011682018060405250810190610c2591906124f7565b341015610c67576040517f08c379a0000000000000000000000000000000000000000000000000000000008152600401610c5e90612570565b60405180910390fd5b610c7384848484611aa9565b8585600160003373ffffffffffffffffffffffffffffffffffffffff1673ffffffffffffffffffffffffffffffffffffffff1681526020019081526020016000209190610cc1929190611c6e565b50600560019054906101000a900473ffffffffffffffffffffffffffffffffffffffff1673ffffffffffffffffffffffffffffffffffffffff16631803aa33336040518263ffffffff1660e01b8152600401610d1d9190611f42565b600060405180830381600087803b158015610d3757600080fd5b505af1158015610d4b573d6000803e3d6000fd5b505050507f8d4d6f2f21dc1bb70970c184fb4ec2a9c346592fa565b810bb14bd791d65b1d33334604051610d80929190612754565b60405180910390a1505050505050565b6000610ee3600560019054906101000a900473ffffffffffffffffffffffffffffffffffffffff1673ffffffffffffffffffffffffffffffffffffffff1663e413e2bc6040518163ffffffff1660e01b815260040160206040518083038186803b158015610dfd57600080fd5b505afa158015610e11573d6000803e3d6000fd5b505050506040513d601f19601f82011682018060405250810190610e3591906124f7565b600760009054906101000a900473ffffffffffffffffffffffffffffffffffffffff1673ffffffffffffffffffffffffffffffffffffffff1663858b033d6040518163ffffffff1660e01b815260040160206040518083038186803b158015610e9d57600080fd5b505afa158015610eb1573d6000803e3d6000fd5b505050506040513d601f19601f82011682018060405250810190610ed591906124f7565b61195190919063ffffffff16565b9050610fa2600760009054906101000a900473ffffffffffffffffffffffffffffffffffffffff1673ffffffffffffffffffffffffffffffffffffffff1663b8e5573b846040518263ffffffff1660e01b8152600401610f439190611f42565b60206040518083038186803b158015610f5b57600080fd5b505afa158015610f6f573d6000803e3d6000fd5b505050506040513d601f19601f82011682018060405250810190610f9391906124f7565b82611c1990919063ffffffff16565b9050808273ffffffffffffffffffffffffffffffffffffffff166370a08231336040518263ffffffff1660e01b8152600401610fde9190611f42565b60206040518083038186803b158015610ff657600080fd5b505afa15801561100a573d6000803e3d6000fd5b505050506040513d601f19601f8201168201806040525081019061102e91906124f7565b1161106e576040517f08c379a0000000000000000000000000000000000000000000000000000000008152600401611065906127c9565b60405180910390fd5b8173ffffffffffffffffffffffffffffffffffffffff166323b872dd33600860009054906101000a900473ffffffffffffffffffffffffffffffffffffffff16846040518463ffffffff1660e01b81526004016110cd939291906127e9565b602060405180830381600087803b1580156110e757600080fd5b505af11580156110fb573d6000803e3d6000fd5b505050506040513d601f19601f8201168201806040525081019061111f919061284c565b507fe0bf1c581d8916d934fab2546c88910c470fa1e61d274e90b48df83d7f60c010338383604051611153939291906127e9565b60405180910390a15050565b60036020528060005260406000206000915054906101000a900460ff1681565b60008060009054906101000a900473ffffffffffffffffffffffffffffffffffffffff16905090565b6111b484848484611aa9565b84600160003373ffffffffffffffffffffffffffffffffffffffff1673ffffffffffffffffffffffffffffffffffffffff1681526020019081526020016000209080519060200190611207929190611cf4565b50600560019054906101000a900473ffffffffffffffffffffffffffffffffffffffff1673ffffffffffffffffffffffffffffffffffffffff16631803aa33336040518263ffffffff1660e01b81526004016112639190611f42565b600060405180830381600087803b15801561127d57600080fd5b505af1158015611291573d6000803e3d6000fd5b505050507f8d4d6f2f21dc1bb70970c184fb4ec2a9c346592fa565b810bb14bd791d65b1d333600560019054906101000a900473ffffffffffffffffffffffffffffffffffffffff1673ffffffffffffffffffffffffffffffffffffffff1663e413e2bc6040518163ffffffff1660e01b815260040160206040518083038186803b15801561131f57600080fd5b505afa158015611333573d6000803e3d6000fd5b505050506040513d601f19601f8201168201806040525081019061135791906124f7565b604051611365929190612754565b60405180910390a15050505050565b600080600560019054906101000a900473ffffffffffffffffffffffffffffffffffffffff1673ffffffffffffffffffffffffffffffffffffffff166370a08231846040518263ffffffff1660e01b81526004016113d29190611f42565b60206040518083038186803b1580156113ea57600080fd5b505afa1580156113fe573d6000803e3d6000fd5b505050506040513d601f19601f8201168201806040525081019061142291906124f7565b118061146057508173ffffffffffffffffffffffffffffffffffffffff1661144861117f565b73ffffffffffffffffffffffffffffffffffffffff16145b806114b45750600360008373ffffffffffffffffffffffffffffffffffffffff1673ffffffffffffffffffffffffffffffffffffffff16815260200190815260200160002060009054906101000a900460ff165b9050919050565b60046020528060005260406000206000915054906101000a900460ff1681565b600681815481106114eb57600080fd5b906000526020600020016000915054906101000a900473ffffffffffffffffffffffffffffffffffffffff1681565b611522611967565b60008282905090506000600680549050905060008267ffffffffffffffff8111156115505761154f61231f565b5b60405190808252806020026020018201604052801561157e5781602001602082028036833780820191505090505b509050600560009054906101000a900460ff1660ff168311156115d6576040517f08c379a00000000000000000000000000000000000000000000000000000000081526004016115cd906128c5565b60405180910390fd5b60005b8281101561168a57600060036000600684815481106115fb576115fa612590565b5b9060005260206000200160009054906101000a900473ffffffffffffffffffffffffffffffffffffffff1673ffffffffffffffffffffffffffffffffffffffff1673ffffffffffffffffffffffffffffffffffffffff16815260200190815260200160002060006101000a81548160ff0219169083151502179055508080611682906125ee565b9150506115d9565b5060005b8381101561179d578585828181106116a9576116a8612590565b5b90506020020160208101906116be9190611fd4565b8282815181106116d1576116d0612590565b5b602002602001019073ffffffffffffffffffffffffffffffffffffffff16908173ffffffffffffffffffffffffffffffffffffffff168152505060016003600088888581811061172457611723612590565b5b90506020020160208101906117399190611fd4565b73ffffffffffffffffffffffffffffffffffffffff1673ffffffffffffffffffffffffffffffffffffffff16815260200190815260200160002060006101000a81548160ff0219169083151502179055508080611795906125ee565b91505061168e565b5080600690805190602001906117b4929190611d7a565b507f271382085bd3790c7702e021ba0fc6d8369de53f765d04ffcd8fd3c75cde0fea816040516117e49190611f11565b60405180910390a15050505050565b6117fb611967565b80600860006101000a81548173ffffffffffffffffffffffffffffffffffffffff021916908373ffffffffffffffffffffffffffffffffffffffff16021790555050565b611847611967565b600073ffffffffffffffffffffffffffffffffffffffff168173ffffffffffffffffffffffffffffffffffffffff1614156118b7576040517f08c379a00000000000000000000000000000000000000000000000000000000081526004016118ae90612957565b60405180910390fd5b6118c0816119e5565b50565b6060600980548060200260200160405190810160405280929190818152602001828054801561194757602002820191906000526020600020905b8160009054906101000a900473ffffffffffffffffffffffffffffffffffffffff1673ffffffffffffffffffffffffffffffffffffffff16815260200190600101908083116118fd575b5050505050905090565b6000818361195f9190612977565b905092915050565b61196f611c2f565b73ffffffffffffffffffffffffffffffffffffffff1661198d61117f565b73ffffffffffffffffffffffffffffffffffffffff16146119e3576040517f08c379a00000000000000000000000000000000000000000000000000000000081526004016119da90612a1d565b60405180910390fd5b565b60008060009054906101000a900473ffffffffffffffffffffffffffffffffffffffff169050816000806101000a81548173ffffffffffffffffffffffffffffffffffffffff021916908373ffffffffffffffffffffffffffffffffffffffff1602179055508173ffffffffffffffffffffffffffffffffffffffff168173ffffffffffffffffffffffffffffffffffffffff167f8be0079c531659141344cd1fd0a4f28419497f9722a3daafe3b4186f6b6457e060405160405180910390a35050565b600d600083815260200190815260200160002060009054906101000a900460ff1615611b01576040517f5d904cb200000000000000000000000000000000000000000000000000000000815260040160405180910390fd5b600a60009054906101000a900473ffffffffffffffffffffffffffffffffffffffff1673ffffffffffffffffffffffffffffffffffffffff16633bc778e384600c54611b6b88604051602001611b579190612a85565b604051602081830303815290604052611c37565b86611b95600b604051602001611b819190612b3f565b604051602081830303815290604052611c37565b876040518763ffffffff1660e01b8152600401611bb796959493929190612b67565b60006040518083038186803b158015611bcf57600080fd5b505afa158015611be3573d6000803e3d6000fd5b505050506001600d600084815260200190815260200160002060006101000a81548160ff02191690831515021790555050505050565b60008183611c279190612bf8565b905092915050565b600033905090565b6000600882604051602001611c4c9190612c70565b6040516020818303038152906040528051906020012060001c901c9050919050565b828054611c7a90612690565b90600052602060002090601f016020900481019282611c9c5760008555611ce3565b82601f10611cb557803560ff1916838001178555611ce3565b82800160010185558215611ce3579182015b82811115611ce2578235825591602001919060010190611cc7565b5b509050611cf09190611e04565b5090565b828054611d0090612690565b90600052602060002090601f016020900481019282611d225760008555611d69565b82601f10611d3b57805160ff1916838001178555611d69565b82800160010185558215611d69579182015b82811115611d68578251825591602001919060010190611d4d565b5b509050611d769190611e04565b5090565b828054828255906000526020600020908101928215611df3579160200282015b82811115611df25782518260006101000a81548173ffffffffffffffffffffffffffffffffffffffff021916908373ffffffffffffffffffffffffffffffffffffffff16021790555091602001919060010190611d9a565b5b509050611e009190611e04565b5090565b5b80821115611e1d576000816000905550600101611e05565b5090565b600081519050919050565b600082825260208201905092915050565b6000819050602082019050919050565b600073ffffffffffffffffffffffffffffffffffffffff82169050919050565b6000611e7882611e4d565b9050919050565b611e8881611e6d565b82525050565b6000611e9a8383611e7f565b60208301905092915050565b6000602082019050919050565b6000611ebe82611e21565b611ec88185611e2c565b9350611ed383611e3d565b8060005b83811015611f04578151611eeb8882611e8e565b9750611ef683611ea6565b925050600181019050611ed7565b5085935050505092915050565b60006020820190508181036000830152611f2b8184611eb3565b905092915050565b611f3c81611e6d565b82525050565b6000602082019050611f576000830184611f33565b92915050565b600060ff82169050919050565b611f7381611f5d565b82525050565b6000602082019050611f8e6000830184611f6a565b92915050565b6000604051905090565b600080fd5b600080fd5b611fb181611e6d565b8114611fbc57600080fd5b50565b600081359050611fce81611fa8565b92915050565b600060208284031215611fea57611fe9611f9e565b5b6000611ff884828501611fbf565b91505092915050565b60008115159050919050565b61201681612001565b82525050565b6000602082019050612031600083018461200d565b92915050565b600080fd5b600080fd5b600080fd5b60008083601f84011261205c5761205b612037565b5b8235905067ffffffffffffffff8111156120795761207861203c565b5b60208301915083602082028301111561209557612094612041565b5b9250929050565b600080602083850312156120b3576120b2611f9e565b5b600083013567ffffffffffffffff8111156120d1576120d0611fa3565b5b6120dd85828601612046565b92509250509250929050565b600081519050919050565b600082825260208201905092915050565b60005b83811015612123578082015181840152602081019050612108565b83811115612132576000848401525b50505050565b6000601f19601f8301169050919050565b6000612154826120e9565b61215e81856120f4565b935061216e818560208601612105565b61217781612138565b840191505092915050565b6000602082019050818103600083015261219c8184612149565b905092915050565b6000819050919050565b6121b7816121a4565b81146121c257600080fd5b50565b6000813590506121d4816121ae565b92915050565b6000602082840312156121f0576121ef611f9e565b5b60006121fe848285016121c5565b91505092915050565b60008083601f84011261221d5761221c612037565b5b8235905067ffffffffffffffff81111561223a5761223961203c565b5b60208301915083600182028301111561225657612255612041565b5b9250929050565b60008190508260206008028201111561227957612278612041565b5b92915050565b600080600080600080610180878903121561229d5761229c611f9e565b5b600087013567ffffffffffffffff8111156122bb576122ba611fa3565b5b6122c789828a01612207565b965096505060206122da89828a01611fbf565b94505060406122eb89828a016121c5565b93505060606122fc89828a016121c5565b925050608061230d89828a0161225d565b9150509295509295509295565b600080fd5b7f4e487b7100000000000000000000000000000000000000000000000000000000600052604160045260246000fd5b61235782612138565b810181811067ffffffffffffffff821117156123765761237561231f565b5b80604052505050565b6000612389611f94565b9050612395828261234e565b919050565b600067ffffffffffffffff8211156123b5576123b461231f565b5b6123be82612138565b9050602081019050919050565b82818337600083830152505050565b60006123ed6123e88461239a565b61237f565b9050828152602081018484840111156124095761240861231a565b5b6124148482856123cb565b509392505050565b600082601f83011261243157612430612037565b5b81356124418482602086016123da565b91505092915050565b6000806000806000610180868803121561246757612466611f9e565b5b600086013567ffffffffffffffff81111561248557612484611fa3565b5b6124918882890161241c565b95505060206124a288828901611fbf565b94505060406124b3888289016121c5565b93505060606124c4888289016121c5565b92505060806124d58882890161225d565b9150509295509295909350565b6000815190506124f1816121ae565b92915050565b60006020828403121561250d5761250c611f9e565b5b600061251b848285016124e2565b91505092915050565b7f4e6f7420656e6f7567682066756e647300000000000000000000000000000000600082015250565b600061255a6010836120f4565b915061256582612524565b602082019050919050565b600060208201905081810360008301526125898161254d565b9050919050565b7f4e487b7100000000000000000000000000000000000000000000000000000000600052603260045260246000fd5b7f4e487b7100000000000000000000000000000000000000000000000000000000600052601160045260246000fd5b60006125f9826121a4565b91507fffffffffffffffffffffffffffffffffffffffffffffffffffffffffffffffff82141561262c5761262b6125bf565b5b600182019050919050565b612640816121a4565b82525050565b600060208201905061265b6000830184612637565b92915050565b7f4e487b7100000000000000000000000000000000000000000000000000000000600052602260045260246000fd5b600060028204905060018216806126a857607f821691505b602082108114156126bc576126bb612661565b5b50919050565b7f63616c6c6572206973206e6f742061206d6f64657261746f72206f72206f776e60008201527f6572000000000000000000000000000000000000000000000000000000000000602082015250565b600061271e6022836120f4565b9150612729826126c2565b604082019050919050565b6000602082019050818103600083015261274d81612711565b9050919050565b60006040820190506127696000830185611f33565b6127766020830184612637565b9392505050565b7f73656e64657220646f65736e74206861766520656e6f7567682066756e647300600082015250565b60006127b3601f836120f4565b91506127be8261277d565b602082019050919050565b600060208201905081810360008301526127e2816127a6565b9050919050565b60006060820190506127fe6000830186611f33565b61280b6020830185611f33565b6128186040830184612637565b949350505050565b61282981612001565b811461283457600080fd5b50565b60008151905061284681612820565b92915050565b60006020828403121561286257612861611f9e565b5b600061287084828501612837565b91505092915050565b7f6d6178206e756d626572206f66206d6f64732069732035000000000000000000600082015250565b60006128af6017836120f4565b91506128ba82612879565b602082019050919050565b600060208201905081810360008301526128de816128a2565b9050919050565b7f4f776e61626c653a206e6577206f776e657220697320746865207a65726f206160008201527f6464726573730000000000000000000000000000000000000000000000000000602082015250565b60006129416026836120f4565b915061294c826128e5565b604082019050919050565b6000602082019050818103600083015261297081612934565b9050919050565b6000612982826121a4565b915061298d836121a4565b9250817fffffffffffffffffffffffffffffffffffffffffffffffffffffffffffffffff04831182151516156129c6576129c56125bf565b5b828202905092915050565b7f4f776e61626c653a2063616c6c6572206973206e6f7420746865206f776e6572600082015250565b6000612a076020836120f4565b9150612a12826129d1565b602082019050919050565b60006020820190508181036000830152612a36816129fa565b9050919050565b60008160601b9050919050565b6000612a5582612a3d565b9050919050565b6000612a6782612a4a565b9050919050565b612a7f612a7a82611e6d565b612a5c565b82525050565b6000612a918284612a6e565b60148201915081905092915050565b600081905092915050565b60008190508160005260206000209050919050565b60008154612acd81612690565b612ad78186612aa0565b94506001821660008114612af25760018114612b0357612b36565b60ff19831686528186019350612b36565b612b0c85612aab565b60005b83811015612b2e57815481890152600182019150602081019050612b0f565b838801955050505b50505092915050565b6000612b4b8284612ac0565b915081905092915050565b612b6361010083836123cb565b5050565b60006101a082019050612b7d6000830189612637565b612b8a6020830188612637565b612b976040830187612637565b612ba46060830186612637565b612bb16080830185612637565b612bbe60a0830184612b56565b979650505050505050565b7f4e487b7100000000000000000000000000000000000000000000000000000000600052601260045260246000fd5b6000612c03826121a4565b9150612c0e836121a4565b925082612c1e57612c1d612bc9565b5b828204905092915050565b600081519050919050565b600081905092915050565b6000612c4a82612c29565b612c548185612c34565b9350612c64818560208601612105565b80840191505092915050565b6000612c7c8284612c3f565b91508190509291505056fea2646970667358221220155bec79b7bc6a3192943f73bfe21b4ac4c64e00272ee2f9f6c0501504cea4a064736f6c63430008090033",
  "devdoc": {
    "kind": "dev",
    "methods": {
      "joinWithERC20(address)": {
        "details": "function to join with any token** @note this is a dummy function, we need to modify according to number of decimals*"
      },
      "joinWithoutEth(string,address,uint256,uint256,uint256[8])": {
        "details": "DUMMY FUNCTION** @note this function is for hackathon, allows to test the integration of our contract. *"
      },
      "owner()": {
        "details": "Returns the address of the current owner."
      },
      "renounceOwnership()": {
        "details": "Leaves the contract without owner. It will not be possible to call `onlyOwner` functions anymore. Can only be called by the current owner. NOTE: Renouncing ownership will leave the contract without an owner, thereby removing any functionality that is only available to the owner."
      },
      "transferOwnership(address)": {
        "details": "Transfers ownership of the contract to a new account (`newOwner`). Can only be called by the current owner."
      }
    },
    "stateVariables": {
      "worldId": {
        "details": "worldcoin verification*"
      }
    },
    "version": 1
  },
  "userdoc": {
    "kind": "user",
    "methods": {},
    "version": 1
  },
  "storageLayout": {
    "storage": [
      {
        "astId": 7,
        "contract": "contracts/LepakCore.sol:LepakCore",
        "label": "_owner",
        "offset": 0,
        "slot": "0",
        "type": "t_address"
      },
      {
        "astId": 4117,
        "contract": "contracts/LepakCore.sol:LepakCore",
        "label": "UserInfoURI",
        "offset": 0,
        "slot": "1",
        "type": "t_mapping(t_address,t_string_storage)"
      },
      {
        "astId": 4121,
        "contract": "contracts/LepakCore.sol:LepakCore",
        "label": "usersPaid",
        "offset": 0,
        "slot": "2",
        "type": "t_mapping(t_address,t_bool)"
      },
      {
        "astId": 4125,
        "contract": "contracts/LepakCore.sol:LepakCore",
        "label": "isMod",
        "offset": 0,
        "slot": "3",
        "type": "t_mapping(t_address,t_bool)"
      },
      {
        "astId": 4129,
        "contract": "contracts/LepakCore.sol:LepakCore",
        "label": "isWhitelistedToken",
        "offset": 0,
        "slot": "4",
        "type": "t_mapping(t_address,t_bool)"
      },
      {
        "astId": 4132,
        "contract": "contracts/LepakCore.sol:LepakCore",
        "label": "modLimit",
        "offset": 0,
        "slot": "5",
        "type": "t_uint8"
      },
      {
        "astId": 4135,
        "contract": "contracts/LepakCore.sol:LepakCore",
        "label": "membership",
        "offset": 1,
        "slot": "5",
        "type": "t_contract(ILepakMembership)4026"
      },
      {
        "astId": 4138,
        "contract": "contracts/LepakCore.sol:LepakCore",
        "label": "mods",
        "offset": 0,
        "slot": "6",
        "type": "t_array(t_address)dyn_storage"
      },
      {
        "astId": 4140,
        "contract": "contracts/LepakCore.sol:LepakCore",
        "label": "oracleAddr",
        "offset": 0,
        "slot": "7",
        "type": "t_address"
      },
      {
        "astId": 4142,
        "contract": "contracts/LepakCore.sol:LepakCore",
        "label": "treasury_addr",
        "offset": 0,
        "slot": "8",
        "type": "t_address"
      },
      {
        "astId": 4145,
        "contract": "contracts/LepakCore.sol:LepakCore",
        "label": "whitelistedToken",
        "offset": 0,
        "slot": "9",
        "type": "t_array(t_address)dyn_storage"
      },
      {
        "astId": 4149,
        "contract": "contracts/LepakCore.sol:LepakCore",
        "label": "worldId",
        "offset": 0,
        "slot": "10",
        "type": "t_contract(IWorldID)4047"
      },
      {
        "astId": 4151,
        "contract": "contracts/LepakCore.sol:LepakCore",
        "label": "action_id",
        "offset": 0,
        "slot": "11",
        "type": "t_string_storage"
      },
      {
        "astId": 4154,
        "contract": "contracts/LepakCore.sol:LepakCore",
        "label": "groupId",
        "offset": 0,
        "slot": "12",
        "type": "t_uint256"
      },
      {
        "astId": 4158,
        "contract": "contracts/LepakCore.sol:LepakCore",
        "label": "nullifierHashes",
        "offset": 0,
        "slot": "13",
        "type": "t_mapping(t_uint256,t_bool)"
      }
    ],
    "types": {
      "t_address": {
        "encoding": "inplace",
        "label": "address",
        "numberOfBytes": "20"
      },
      "t_array(t_address)dyn_storage": {
        "base": "t_address",
        "encoding": "dynamic_array",
        "label": "address[]",
        "numberOfBytes": "32"
      },
      "t_bool": {
        "encoding": "inplace",
        "label": "bool",
        "numberOfBytes": "1"
      },
      "t_contract(ILepakMembership)4026": {
        "encoding": "inplace",
        "label": "contract ILepakMembership",
        "numberOfBytes": "20"
      },
      "t_contract(IWorldID)4047": {
        "encoding": "inplace",
        "label": "contract IWorldID",
        "numberOfBytes": "20"
      },
      "t_mapping(t_address,t_bool)": {
        "encoding": "mapping",
        "key": "t_address",
        "label": "mapping(address => bool)",
        "numberOfBytes": "32",
        "value": "t_bool"
      },
      "t_mapping(t_address,t_string_storage)": {
        "encoding": "mapping",
        "key": "t_address",
        "label": "mapping(address => string)",
        "numberOfBytes": "32",
        "value": "t_string_storage"
      },
      "t_mapping(t_uint256,t_bool)": {
        "encoding": "mapping",
        "key": "t_uint256",
        "label": "mapping(uint256 => bool)",
        "numberOfBytes": "32",
        "value": "t_bool"
      },
      "t_string_storage": {
        "encoding": "bytes",
        "label": "string",
        "numberOfBytes": "32"
      },
      "t_uint256": {
        "encoding": "inplace",
        "label": "uint256",
        "numberOfBytes": "32"
      },
      "t_uint8": {
        "encoding": "inplace",
        "label": "uint8",
        "numberOfBytes": "1"
      }
    }
  }
}