{
  "address": "0x88aB5F479e535d51e785bC5a65FE56076B6269d8",
  "abi": [
    {
      "inputs": [
        {
          "internalType": "string",
          "name": "name",
          "type": "string"
        },
        {
          "internalType": "string",
          "name": "symbol",
          "type": "string"
        },
        {
          "internalType": "string",
          "name": "_baseTokenURI",
          "type": "string"
        }
      ],
      "stateMutability": "nonpayable",
      "type": "constructor"
    },
    {
      "anonymous": false,
      "inputs": [
        {
          "indexed": true,
          "internalType": "address",
          "name": "owner",
          "type": "address"
        },
        {
          "indexed": true,
          "internalType": "address",
          "name": "approved",
          "type": "address"
        },
        {
          "indexed": true,
          "internalType": "uint256",
          "name": "tokenId",
          "type": "uint256"
        }
      ],
      "name": "Approval",
      "type": "event"
    },
    {
      "anonymous": false,
      "inputs": [
        {
          "indexed": true,
          "internalType": "address",
          "name": "owner",
          "type": "address"
        },
        {
          "indexed": true,
          "internalType": "address",
          "name": "operator",
          "type": "address"
        },
        {
          "indexed": false,
          "internalType": "bool",
          "name": "approved",
          "type": "bool"
        }
      ],
      "name": "ApprovalForAll",
      "type": "event"
    },
    {
      "anonymous": false,
      "inputs": [
        {
          "indexed": true,
          "internalType": "address",
          "name": "previousOwner",
          "type": "address"
        },
        {
          "indexed": true,
          "internalType": "address",
          "name": "newOwner",
          "type": "address"
        }
      ],
      "name": "OwnershipTransferred",
      "type": "event"
    },
    {
      "anonymous": false,
      "inputs": [
        {
          "indexed": true,
          "internalType": "address",
          "name": "from",
          "type": "address"
        },
        {
          "indexed": true,
          "internalType": "address",
          "name": "to",
          "type": "address"
        },
        {
          "indexed": true,
          "internalType": "uint256",
          "name": "tokenId",
          "type": "uint256"
        }
      ],
      "name": "Transfer",
      "type": "event"
    },
    {
      "inputs": [
        {
          "internalType": "address",
          "name": "to",
          "type": "address"
        },
        {
          "internalType": "uint256",
          "name": "tokenId",
          "type": "uint256"
        }
      ],
      "name": "approve",
      "outputs": [],
      "stateMutability": "nonpayable",
      "type": "function"
    },
    {
      "inputs": [
        {
          "internalType": "address",
          "name": "owner",
          "type": "address"
        }
      ],
      "name": "balanceOf",
      "outputs": [
        {
          "internalType": "uint256",
          "name": "",
          "type": "uint256"
        }
      ],
      "stateMutability": "view",
      "type": "function"
    },
    {
      "inputs": [],
      "name": "baseTokenURI",
      "outputs": [
        {
          "internalType": "string",
          "name": "",
          "type": "string"
        }
      ],
      "stateMutability": "view",
      "type": "function"
    },
    {
      "inputs": [],
      "name": "currentPriceEth",
      "outputs": [
        {
          "internalType": "uint256",
          "name": "",
          "type": "uint256"
        }
      ],
      "stateMutability": "view",
      "type": "function"
    },
    {
      "inputs": [
        {
          "internalType": "uint256",
          "name": "tokenId",
          "type": "uint256"
        }
      ],
      "name": "getApproved",
      "outputs": [
        {
          "internalType": "address",
          "name": "",
          "type": "address"
        }
      ],
      "stateMutability": "view",
      "type": "function"
    },
    {
      "inputs": [
        {
          "internalType": "address",
          "name": "owner",
          "type": "address"
        },
        {
          "internalType": "address",
          "name": "operator",
          "type": "address"
        }
      ],
      "name": "isApprovedForAll",
      "outputs": [
        {
          "internalType": "bool",
          "name": "",
          "type": "bool"
        }
      ],
      "stateMutability": "view",
      "type": "function"
    },
    {
      "inputs": [],
      "name": "name",
      "outputs": [
        {
          "internalType": "string",
          "name": "",
          "type": "string"
        }
      ],
      "stateMutability": "view",
      "type": "function"
    },
    {
      "inputs": [],
      "name": "owner",
      "outputs": [
        {
          "internalType": "address",
          "name": "",
          "type": "address"
        }
      ],
      "stateMutability": "view",
      "type": "function"
    },
    {
      "inputs": [
        {
          "internalType": "uint256",
          "name": "tokenId",
          "type": "uint256"
        }
      ],
      "name": "ownerOf",
      "outputs": [
        {
          "internalType": "address",
          "name": "",
          "type": "address"
        }
      ],
      "stateMutability": "view",
      "type": "function"
    },
    {
      "inputs": [
        {
          "internalType": "address",
          "name": "_user",
          "type": "address"
        }
      ],
      "name": "provide",
      "outputs": [],
      "stateMutability": "nonpayable",
      "type": "function"
    },
    {
      "inputs": [],
      "name": "renounceOwnership",
      "outputs": [],
      "stateMutability": "nonpayable",
      "type": "function"
    },
    {
      "inputs": [
        {
          "internalType": "address",
          "name": "_user",
          "type": "address"
        }
      ],
      "name": "revoke",
      "outputs": [],
      "stateMutability": "nonpayable",
      "type": "function"
    },
    {
      "inputs": [
        {
          "internalType": "address",
          "name": "from",
          "type": "address"
        },
        {
          "internalType": "address",
          "name": "to",
          "type": "address"
        },
        {
          "internalType": "uint256",
          "name": "tokenId",
          "type": "uint256"
        }
      ],
      "name": "safeTransferFrom",
      "outputs": [],
      "stateMutability": "nonpayable",
      "type": "function"
    },
    {
      "inputs": [
        {
          "internalType": "address",
          "name": "from",
          "type": "address"
        },
        {
          "internalType": "address",
          "name": "to",
          "type": "address"
        },
        {
          "internalType": "uint256",
          "name": "tokenId",
          "type": "uint256"
        },
        {
          "internalType": "bytes",
          "name": "data",
          "type": "bytes"
        }
      ],
      "name": "safeTransferFrom",
      "outputs": [],
      "stateMutability": "nonpayable",
      "type": "function"
    },
    {
      "inputs": [
        {
          "internalType": "address",
          "name": "operator",
          "type": "address"
        },
        {
          "internalType": "bool",
          "name": "approved",
          "type": "bool"
        }
      ],
      "name": "setApprovalForAll",
      "outputs": [],
      "stateMutability": "nonpayable",
      "type": "function"
    },
    {
      "inputs": [
        {
          "internalType": "uint256",
          "name": "_newPrice",
          "type": "uint256"
        }
      ],
      "name": "setPriceEth",
      "outputs": [],
      "stateMutability": "nonpayable",
      "type": "function"
    },
    {
      "inputs": [
        {
          "internalType": "bytes4",
          "name": "interfaceId",
          "type": "bytes4"
        }
      ],
      "name": "supportsInterface",
      "outputs": [
        {
          "internalType": "bool",
          "name": "",
          "type": "bool"
        }
      ],
      "stateMutability": "view",
      "type": "function"
    },
    {
      "inputs": [],
      "name": "symbol",
      "outputs": [
        {
          "internalType": "string",
          "name": "",
          "type": "string"
        }
      ],
      "stateMutability": "view",
      "type": "function"
    },
    {
      "inputs": [
        {
          "internalType": "uint256",
          "name": "",
          "type": "uint256"
        }
      ],
      "name": "thresholds",
      "outputs": [
        {
          "internalType": "uint256",
          "name": "",
          "type": "uint256"
        }
      ],
      "stateMutability": "view",
      "type": "function"
    },
    {
      "inputs": [
        {
          "internalType": "uint256",
          "name": "index",
          "type": "uint256"
        }
      ],
      "name": "tokenByIndex",
      "outputs": [
        {
          "internalType": "uint256",
          "name": "",
          "type": "uint256"
        }
      ],
      "stateMutability": "view",
      "type": "function"
    },
    {
      "inputs": [
        {
          "internalType": "address",
          "name": "owner",
          "type": "address"
        },
        {
          "internalType": "uint256",
          "name": "index",
          "type": "uint256"
        }
      ],
      "name": "tokenOfOwnerByIndex",
      "outputs": [
        {
          "internalType": "uint256",
          "name": "",
          "type": "uint256"
        }
      ],
      "stateMutability": "view",
      "type": "function"
    },
    {
      "inputs": [
        {
          "internalType": "uint256",
          "name": "tokenId",
          "type": "uint256"
        }
      ],
      "name": "tokenURI",
      "outputs": [
        {
          "internalType": "string",
          "name": "",
          "type": "string"
        }
      ],
      "stateMutability": "view",
      "type": "function"
    },
    {
      "inputs": [],
      "name": "totalSupply",
      "outputs": [
        {
          "internalType": "uint256",
          "name": "",
          "type": "uint256"
        }
      ],
      "stateMutability": "view",
      "type": "function"
    },
    {
      "inputs": [
        {
          "internalType": "address",
          "name": "from",
          "type": "address"
        },
        {
          "internalType": "address",
          "name": "to",
          "type": "address"
        },
        {
          "internalType": "uint256",
          "name": "tokenId",
          "type": "uint256"
        }
      ],
      "name": "transferFrom",
      "outputs": [],
      "stateMutability": "nonpayable",
      "type": "function"
    },
    {
      "inputs": [
        {
          "internalType": "address",
          "name": "newOwner",
          "type": "address"
        }
      ],
      "name": "transferOwnership",
      "outputs": [],
      "stateMutability": "nonpayable",
      "type": "function"
    },
    {
      "inputs": [
        {
          "internalType": "uint256[3]",
          "name": "_newThresholds",
          "type": "uint256[3]"
        }
      ],
      "name": "updateThresholds",
      "outputs": [],
      "stateMutability": "nonpayable",
      "type": "function"
    }
  ],
  "transactionHash": "0x5ac8771cd2317b544cd2665964b33a02d5ecd0ebe5b777d5b7f7787f1a91c2d8",
  "args": [
    "Lepak SBT",
    "LPK",
    "baseuri/"
  ],
  "numDeployments": 1,
  "solcInputHash": "533d3c5d728b6c4c1e6c8158c97d02f6",
  "bytecode": "0x608060405260006011553480156200001657600080fd5b50604051620042ad380380620042ad83398181016040528101906200003c9190620003cf565b828281600090805190602001906200005692919062000182565b5080600190805190602001906200006f92919062000182565b5050506200009262000086620000b460201b60201c565b620000bc60201b60201c565b80600c9080519060200190620000aa92919062000182565b50505050620004ed565b600033905090565b6000600b60009054906101000a900473ffffffffffffffffffffffffffffffffffffffff16905081600b60006101000a81548173ffffffffffffffffffffffffffffffffffffffff021916908373ffffffffffffffffffffffffffffffffffffffff1602179055508173ffffffffffffffffffffffffffffffffffffffff168173ffffffffffffffffffffffffffffffffffffffff167f8be0079c531659141344cd1fd0a4f28419497f9722a3daafe3b4186f6b6457e060405160405180910390a35050565b8280546200019090620004b7565b90600052602060002090601f016020900481019282620001b4576000855562000200565b82601f10620001cf57805160ff191683800117855562000200565b8280016001018555821562000200579182015b82811115620001ff578251825591602001919060010190620001e2565b5b5090506200020f919062000213565b5090565b5b808211156200022e57600081600090555060010162000214565b5090565b6000604051905090565b600080fd5b600080fd5b600080fd5b600080fd5b6000601f19601f8301169050919050565b7f4e487b7100000000000000000000000000000000000000000000000000000000600052604160045260246000fd5b6200029b8262000250565b810181811067ffffffffffffffff82111715620002bd57620002bc62000261565b5b80604052505050565b6000620002d262000232565b9050620002e0828262000290565b919050565b600067ffffffffffffffff82111562000303576200030262000261565b5b6200030e8262000250565b9050602081019050919050565b60005b838110156200033b5780820151818401526020810190506200031e565b838111156200034b576000848401525b50505050565b6000620003686200036284620002e5565b620002c6565b9050828152602081018484840111156200038757620003866200024b565b5b620003948482856200031b565b509392505050565b600082601f830112620003b457620003b362000246565b5b8151620003c684826020860162000351565b91505092915050565b600080600060608486031215620003eb57620003ea6200023c565b5b600084015167ffffffffffffffff8111156200040c576200040b62000241565b5b6200041a868287016200039c565b935050602084015167ffffffffffffffff8111156200043e576200043d62000241565b5b6200044c868287016200039c565b925050604084015167ffffffffffffffff81111562000470576200046f62000241565b5b6200047e868287016200039c565b9150509250925092565b7f4e487b7100000000000000000000000000000000000000000000000000000000600052602260045260246000fd5b60006002820490506001821680620004d057607f821691505b60208210811415620004e757620004e662000488565b5b50919050565b613db080620004fd6000396000f3fe608060405234801561001057600080fd5b506004361061018e5760003560e01c806370a08231116100de578063b6c2261111610097578063d547cfb711610071578063d547cfb714610491578063e413e2bc146104af578063e985e9c5146104cd578063f2fde38b146104fd5761018e565b8063b6c2261114610415578063b88d4fde14610445578063c87b56dd146104615761018e565b806370a0823114610367578063715018a61461039757806374a8f103146103a15780638da5cb5b146103bd57806395d89b41146103db578063a22cb465146103f95761018e565b80631803aa331161014b5780632f745c59116101255780632f745c59146102bb57806342842e0e146102eb5780634f6ccce7146103075780636352211e146103375761018e565b80631803aa331461026557806318160ddd1461028157806323b872dd1461029f5761018e565b806301ffc9a7146101935780630249d624146101c357806306fdde03146101df578063081812fc146101fd578063095ea7b31461022d578063141bba6f14610249575b600080fd5b6101ad60048036038101906101a89190612924565b610519565b6040516101ba919061296c565b60405180910390f35b6101dd60048036038101906101d891906129bd565b61052b565b005b6101e761053d565b6040516101f49190612a83565b60405180910390f35b610217600480360381019061021291906129bd565b6105cf565b6040516102249190612ae6565b60405180910390f35b61024760048036038101906102429190612b2d565b610615565b005b610263600480360381019061025e9190612ca3565b61072d565b005b61027f600480360381019061027a9190612cd0565b6107d1565b005b6102896108de565b6040516102969190612d0c565b60405180910390f35b6102b960048036038101906102b49190612d27565b6108eb565b005b6102d560048036038101906102d09190612b2d565b61094b565b6040516102e29190612d0c565b60405180910390f35b61030560048036038101906103009190612d27565b6109f0565b005b610321600480360381019061031c91906129bd565b610a10565b60405161032e9190612d0c565b60405180910390f35b610351600480360381019061034c91906129bd565b610a81565b60405161035e9190612ae6565b60405180910390f35b610381600480360381019061037c9190612cd0565b610b33565b60405161038e9190612d0c565b60405180910390f35b61039f610beb565b005b6103bb60048036038101906103b69190612cd0565b610bff565b005b6103c5610c78565b6040516103d29190612ae6565b60405180910390f35b6103e3610ca2565b6040516103f09190612a83565b60405180910390f35b610413600480360381019061040e9190612da6565b610d34565b005b61042f600480360381019061042a91906129bd565b610d4a565b60405161043c9190612d0c565b60405180910390f35b61045f600480360381019061045a9190612e9b565b610d65565b005b61047b600480360381019061047691906129bd565b610dc7565b6040516104889190612a83565b60405180910390f35b610499610f01565b6040516104a69190612a83565b60405180910390f35b6104b7610f8f565b6040516104c49190612d0c565b60405180910390f35b6104e760048036038101906104e29190612f1e565b610f95565b6040516104f4919061296c565b60405180910390f35b61051760048036038101906105129190612cd0565b611029565b005b6000610524826110ad565b9050919050565b610533611127565b8060118190555050565b60606000805461054c90612f8d565b80601f016020809104026020016040519081016040528092919081815260200182805461057890612f8d565b80156105c55780601f1061059a576101008083540402835291602001916105c5565b820191906000526020600020905b8154815290600101906020018083116105a857829003601f168201915b5050505050905090565b60006105da826111a5565b6004600083815260200190815260200160002060009054906101000a900473ffffffffffffffffffffffffffffffffffffffff169050919050565b600061062082610a81565b90508073ffffffffffffffffffffffffffffffffffffffff168373ffffffffffffffffffffffffffffffffffffffff161415610691576040517f08c379a000000000000000000000000000000000000000000000000000000000815260040161068890613031565b60405180910390fd5b8073ffffffffffffffffffffffffffffffffffffffff166106b06111f0565b73ffffffffffffffffffffffffffffffffffffffff1614806106df57506106de816106d96111f0565b610f95565b5b61071e576040517f08c379a0000000000000000000000000000000000000000000000000000000008152600401610715906130c3565b60405180910390fd5b61072883836111f8565b505050565b610735611127565b80600060038110610749576107486130e3565b5b6020020151600e600060038110610763576107626130e3565b5b01819055508060016003811061077c5761077b6130e3565b5b6020020151600e600160038110610796576107956130e3565b5b0181905550806002600381106107af576107ae6130e3565b5b6020020151600e6002600381106107c9576107c86130e3565b5b018190555050565b6107d9611127565b60006107e482610b33565b14610824576040517f08c379a000000000000000000000000000000000000000000000000000000000815260040161081b9061315e565b60405180910390fd5b61082e600d6112b1565b600061083a600d6112c7565b905061084682826112d5565b6108da81600c805461085790612f8d565b80601f016020809104026020016040519081016040528092919081815260200182805461088390612f8d565b80156108d05780601f106108a5576101008083540402835291602001916108d0565b820191906000526020600020905b8154815290600101906020018083116108b357829003601f168201915b50505050506114af565b5050565b6000600880549050905090565b6108fc6108f66111f0565b82611523565b61093b576040517f08c379a0000000000000000000000000000000000000000000000000000000008152600401610932906131f0565b60405180910390fd5b6109468383836115b8565b505050565b600061095683610b33565b8210610997576040517f08c379a000000000000000000000000000000000000000000000000000000000815260040161098e90613282565b60405180910390fd5b600660008473ffffffffffffffffffffffffffffffffffffffff1673ffffffffffffffffffffffffffffffffffffffff168152602001908152602001600020600083815260200190815260200160002054905092915050565b610a0b83838360405180602001604052806000815250610d65565b505050565b6000610a1a6108de565b8210610a5b576040517f08c379a0000000000000000000000000000000000000000000000000000000008152600401610a5290613314565b60405180910390fd5b60088281548110610a6f57610a6e6130e3565b5b90600052602060002001549050919050565b6000806002600084815260200190815260200160002060009054906101000a900473ffffffffffffffffffffffffffffffffffffffff169050600073ffffffffffffffffffffffffffffffffffffffff168173ffffffffffffffffffffffffffffffffffffffff161415610b2a576040517f08c379a0000000000000000000000000000000000000000000000000000000008152600401610b2190613380565b60405180910390fd5b80915050919050565b60008073ffffffffffffffffffffffffffffffffffffffff168273ffffffffffffffffffffffffffffffffffffffff161415610ba4576040517f08c379a0000000000000000000000000000000000000000000000000000000008152600401610b9b90613412565b60405180910390fd5b600360008373ffffffffffffffffffffffffffffffffffffffff1673ffffffffffffffffffffffffffffffffffffffff168152602001908152602001600020549050919050565b610bf3611127565b610bfd600061181f565b565b610c07611127565b6000610c1282610b33565b11610c52576040517f08c379a0000000000000000000000000000000000000000000000000000000008152600401610c499061347e565b60405180910390fd5b610c5c600d6118e5565b6000610c6982600061094b565b9050610c7481611941565b5050565b6000600b60009054906101000a900473ffffffffffffffffffffffffffffffffffffffff16905090565b606060018054610cb190612f8d565b80601f0160208091040260200160405190810160405280929190818152602001828054610cdd90612f8d565b8015610d2a5780601f10610cff57610100808354040283529160200191610d2a565b820191906000526020600020905b815481529060010190602001808311610d0d57829003601f168201915b5050505050905090565b610d46610d3f6111f0565b838361194d565b5050565b600e8160038110610d5a57600080fd5b016000915090505481565b610d76610d706111f0565b83611523565b610db5576040517f08c379a0000000000000000000000000000000000000000000000000000000008152600401610dac906131f0565b60405180910390fd5b610dc184848484611aba565b50505050565b6060600080610dd4611b16565b9050600e600260038110610deb57610dea6130e3565b5b0154811115610e1c577f33000000000000000000000000000000000000000000000000000000000000009150610ece565b600e600160038110610e3157610e306130e3565b5b0154811115610e62577f32000000000000000000000000000000000000000000000000000000000000009150610ecd565b600e600060038110610e7757610e766130e3565b5b0154811115610ea8577f31000000000000000000000000000000000000000000000000000000000000009150610ecc565b7f300000000000000000000000000000000000000000000000000000000000000091505b5b5b610ed784611b26565b82604051602001610ee9929190613527565b60405160208183030381529060405292505050919050565b600c8054610f0e90612f8d565b80601f0160208091040260200160405190810160405280929190818152602001828054610f3a90612f8d565b8015610f875780601f10610f5c57610100808354040283529160200191610f87565b820191906000526020600020905b815481529060010190602001808311610f6a57829003601f168201915b505050505081565b60115481565b6000600560008473ffffffffffffffffffffffffffffffffffffffff1673ffffffffffffffffffffffffffffffffffffffff16815260200190815260200160002060008373ffffffffffffffffffffffffffffffffffffffff1673ffffffffffffffffffffffffffffffffffffffff16815260200190815260200160002060009054906101000a900460ff16905092915050565b611031611127565b600073ffffffffffffffffffffffffffffffffffffffff168173ffffffffffffffffffffffffffffffffffffffff1614156110a1576040517f08c379a0000000000000000000000000000000000000000000000000000000008152600401611098906135c1565b60405180910390fd5b6110aa8161181f565b50565b60007f780e9d63000000000000000000000000000000000000000000000000000000007bffffffffffffffffffffffffffffffffffffffffffffffffffffffff1916827bffffffffffffffffffffffffffffffffffffffffffffffffffffffff19161480611120575061111f82611c39565b5b9050919050565b61112f6111f0565b73ffffffffffffffffffffffffffffffffffffffff1661114d610c78565b73ffffffffffffffffffffffffffffffffffffffff16146111a3576040517f08c379a000000000000000000000000000000000000000000000000000000000815260040161119a9061362d565b60405180910390fd5b565b6111ae81611d1b565b6111ed576040517f08c379a00000000000000000000000000000000000000000000000000000000081526004016111e490613380565b60405180910390fd5b50565b600033905090565b816004600083815260200190815260200160002060006101000a81548173ffffffffffffffffffffffffffffffffffffffff021916908373ffffffffffffffffffffffffffffffffffffffff160217905550808273ffffffffffffffffffffffffffffffffffffffff1661126b83610a81565b73ffffffffffffffffffffffffffffffffffffffff167f8c5be1e5ebec7d5bd14f71427d1e84f3dd0314c0f7b2291e5b200ac8c7c3b92560405160405180910390a45050565b6001816000016000828254019250508190555050565b600081600001549050919050565b600073ffffffffffffffffffffffffffffffffffffffff168273ffffffffffffffffffffffffffffffffffffffff161415611345576040517f08c379a000000000000000000000000000000000000000000000000000000000815260040161133c90613699565b60405180910390fd5b61134e81611d1b565b1561138e576040517f08c379a000000000000000000000000000000000000000000000000000000000815260040161138590613705565b60405180910390fd5b61139a60008383611d87565b6001600360008473ffffffffffffffffffffffffffffffffffffffff1673ffffffffffffffffffffffffffffffffffffffff16815260200190815260200160002060008282546113ea9190613754565b92505081905550816002600083815260200190815260200160002060006101000a81548173ffffffffffffffffffffffffffffffffffffffff021916908373ffffffffffffffffffffffffffffffffffffffff160217905550808273ffffffffffffffffffffffffffffffffffffffff16600073ffffffffffffffffffffffffffffffffffffffff167fddf252ad1be2c89b69c2b068fc378daa952ba7f163c4a11628f55a4df523b3ef60405160405180910390a46114ab60008383611e3d565b5050565b6114b882611d1b565b6114f7576040517f08c379a00000000000000000000000000000000000000000000000000000000081526004016114ee9061381c565b60405180910390fd5b80600a6000848152602001908152602001600020908051906020019061151e9291906127d5565b505050565b60008061152f83610a81565b90508073ffffffffffffffffffffffffffffffffffffffff168473ffffffffffffffffffffffffffffffffffffffff16148061157157506115708185610f95565b5b806115af57508373ffffffffffffffffffffffffffffffffffffffff16611597846105cf565b73ffffffffffffffffffffffffffffffffffffffff16145b91505092915050565b8273ffffffffffffffffffffffffffffffffffffffff166115d882610a81565b73ffffffffffffffffffffffffffffffffffffffff161461162e576040517f08c379a0000000000000000000000000000000000000000000000000000000008152600401611625906138ae565b60405180910390fd5b600073ffffffffffffffffffffffffffffffffffffffff168273ffffffffffffffffffffffffffffffffffffffff16141561169e576040517f08c379a000000000000000000000000000000000000000000000000000000000815260040161169590613940565b60405180910390fd5b6116a9838383611d87565b6116b46000826111f8565b6001600360008573ffffffffffffffffffffffffffffffffffffffff1673ffffffffffffffffffffffffffffffffffffffff16815260200190815260200160002060008282546117049190613960565b925050819055506001600360008473ffffffffffffffffffffffffffffffffffffffff1673ffffffffffffffffffffffffffffffffffffffff168152602001908152602001600020600082825461175b9190613754565b92505081905550816002600083815260200190815260200160002060006101000a81548173ffffffffffffffffffffffffffffffffffffffff021916908373ffffffffffffffffffffffffffffffffffffffff160217905550808273ffffffffffffffffffffffffffffffffffffffff168473ffffffffffffffffffffffffffffffffffffffff167fddf252ad1be2c89b69c2b068fc378daa952ba7f163c4a11628f55a4df523b3ef60405160405180910390a461181a838383611e3d565b505050565b6000600b60009054906101000a900473ffffffffffffffffffffffffffffffffffffffff16905081600b60006101000a81548173ffffffffffffffffffffffffffffffffffffffff021916908373ffffffffffffffffffffffffffffffffffffffff1602179055508173ffffffffffffffffffffffffffffffffffffffff168173ffffffffffffffffffffffffffffffffffffffff167f8be0079c531659141344cd1fd0a4f28419497f9722a3daafe3b4186f6b6457e060405160405180910390a35050565b60008160000154905060008111611931576040517f08c379a0000000000000000000000000000000000000000000000000000000008152600401611928906139e0565b60405180910390fd5b6001810382600001819055505050565b61194a81611e42565b50565b8173ffffffffffffffffffffffffffffffffffffffff168373ffffffffffffffffffffffffffffffffffffffff1614156119bc576040517f08c379a00000000000000000000000000000000000000000000000000000000081526004016119b390613a4c565b60405180910390fd5b80600560008573ffffffffffffffffffffffffffffffffffffffff1673ffffffffffffffffffffffffffffffffffffffff16815260200190815260200160002060008473ffffffffffffffffffffffffffffffffffffffff1673ffffffffffffffffffffffffffffffffffffffff16815260200190815260200160002060006101000a81548160ff0219169083151502179055508173ffffffffffffffffffffffffffffffffffffffff168373ffffffffffffffffffffffffffffffffffffffff167f17307eab39ab6107e8899845ad3d59bd9653f200f220920489ca2b5937696c3183604051611aad919061296c565b60405180910390a3505050565b611ac58484846115b8565b611ad184848484611e95565b611b10576040517f08c379a0000000000000000000000000000000000000000000000000000000008152600401611b0790613ade565b60405180910390fd5b50505050565b600067016345785d8a0000905090565b6060611b31826111a5565b6000600a60008481526020019081526020016000208054611b5190612f8d565b80601f0160208091040260200160405190810160405280929190818152602001828054611b7d90612f8d565b8015611bca5780601f10611b9f57610100808354040283529160200191611bca565b820191906000526020600020905b815481529060010190602001808311611bad57829003601f168201915b505050505090506000611bdb61202c565b9050600081511415611bf1578192505050611c34565b600082511115611c26578082604051602001611c0e929190613afe565b60405160208183030381529060405292505050611c34565b611c2f84612043565b925050505b919050565b60007f80ac58cd000000000000000000000000000000000000000000000000000000007bffffffffffffffffffffffffffffffffffffffffffffffffffffffff1916827bffffffffffffffffffffffffffffffffffffffffffffffffffffffff19161480611d0457507f5b5e139f000000000000000000000000000000000000000000000000000000007bffffffffffffffffffffffffffffffffffffffffffffffffffffffff1916827bffffffffffffffffffffffffffffffffffffffffffffffffffffffff1916145b80611d145750611d13826120ab565b5b9050919050565b60008073ffffffffffffffffffffffffffffffffffffffff166002600084815260200190815260200160002060009054906101000a900473ffffffffffffffffffffffffffffffffffffffff1673ffffffffffffffffffffffffffffffffffffffff1614159050919050565b600073ffffffffffffffffffffffffffffffffffffffff168373ffffffffffffffffffffffffffffffffffffffff161480611dee5750600073ffffffffffffffffffffffffffffffffffffffff168273ffffffffffffffffffffffffffffffffffffffff16145b611e2d576040517f08c379a0000000000000000000000000000000000000000000000000000000008152600401611e2490613b6e565b60405180910390fd5b611e38838383612115565b505050565b505050565b611e4b81612229565b6000600a60008381526020019081526020016000208054611e6b90612f8d565b905014611e9257600a60008281526020019081526020016000206000611e91919061285b565b5b50565b6000611eb68473ffffffffffffffffffffffffffffffffffffffff16612346565b1561201f578373ffffffffffffffffffffffffffffffffffffffff1663150b7a02611edf6111f0565b8786866040518563ffffffff1660e01b8152600401611f019493929190613be3565b602060405180830381600087803b158015611f1b57600080fd5b505af1925050508015611f4c57506040513d601f19601f82011682018060405250810190611f499190613c44565b60015b611fcf573d8060008114611f7c576040519150601f19603f3d011682016040523d82523d6000602084013e611f81565b606091505b50600081511415611fc7576040517f08c379a0000000000000000000000000000000000000000000000000000000008152600401611fbe90613ade565b60405180910390fd5b805181602001fd5b63150b7a0260e01b7bffffffffffffffffffffffffffffffffffffffffffffffffffffffff1916817bffffffffffffffffffffffffffffffffffffffffffffffffffffffff191614915050612024565b600190505b949350505050565b606060405180602001604052806000815250905090565b606061204e826111a5565b600061205861202c565b9050600081511161207857604051806020016040528060008152506120a3565b8061208284612369565b604051602001612093929190613afe565b6040516020818303038152906040525b915050919050565b60007f01ffc9a7000000000000000000000000000000000000000000000000000000007bffffffffffffffffffffffffffffffffffffffffffffffffffffffff1916827bffffffffffffffffffffffffffffffffffffffffffffffffffffffff1916149050919050565b6121208383836124ca565b600073ffffffffffffffffffffffffffffffffffffffff168373ffffffffffffffffffffffffffffffffffffffff1614156121635761215e816124cf565b6121a2565b8173ffffffffffffffffffffffffffffffffffffffff168373ffffffffffffffffffffffffffffffffffffffff16146121a1576121a08382612518565b5b5b600073ffffffffffffffffffffffffffffffffffffffff168273ffffffffffffffffffffffffffffffffffffffff1614156121e5576121e081612685565b612224565b8273ffffffffffffffffffffffffffffffffffffffff168273ffffffffffffffffffffffffffffffffffffffff1614612223576122228282612756565b5b5b505050565b600061223482610a81565b905061224281600084611d87565b61224d6000836111f8565b6001600360008373ffffffffffffffffffffffffffffffffffffffff1673ffffffffffffffffffffffffffffffffffffffff168152602001908152602001600020600082825461229d9190613960565b925050819055506002600083815260200190815260200160002060006101000a81549073ffffffffffffffffffffffffffffffffffffffff021916905581600073ffffffffffffffffffffffffffffffffffffffff168273ffffffffffffffffffffffffffffffffffffffff167fddf252ad1be2c89b69c2b068fc378daa952ba7f163c4a11628f55a4df523b3ef60405160405180910390a461234281600084611e3d565b5050565b6000808273ffffffffffffffffffffffffffffffffffffffff163b119050919050565b606060008214156123b1576040518060400160405280600181526020017f300000000000000000000000000000000000000000000000000000000000000081525090506124c5565b600082905060005b600082146123e35780806123cc90613c71565b915050600a826123dc9190613ce9565b91506123b9565b60008167ffffffffffffffff8111156123ff576123fe612b72565b5b6040519080825280601f01601f1916602001820160405280156124315781602001600182028036833780820191505090505b5090505b600085146124be5760018261244a9190613960565b9150600a856124599190613d1a565b60306124659190613754565b60f81b81838151811061247b5761247a6130e3565b5b60200101907effffffffffffffffffffffffffffffffffffffffffffffffffffffffffffff1916908160001a905350600a856124b79190613ce9565b9450612435565b8093505050505b919050565b505050565b6008805490506009600083815260200190815260200160002081905550600881908060018154018082558091505060019003906000526020600020016000909190919091505550565b6000600161252584610b33565b61252f9190613960565b9050600060076000848152602001908152602001600020549050818114612614576000600660008673ffffffffffffffffffffffffffffffffffffffff1673ffffffffffffffffffffffffffffffffffffffff168152602001908152602001600020600084815260200190815260200160002054905080600660008773ffffffffffffffffffffffffffffffffffffffff1673ffffffffffffffffffffffffffffffffffffffff168152602001908152602001600020600084815260200190815260200160002081905550816007600083815260200190815260200160002081905550505b6007600084815260200190815260200160002060009055600660008573ffffffffffffffffffffffffffffffffffffffff1673ffffffffffffffffffffffffffffffffffffffff16815260200190815260200160002060008381526020019081526020016000206000905550505050565b600060016008805490506126999190613960565b90506000600960008481526020019081526020016000205490506000600883815481106126c9576126c86130e3565b5b9060005260206000200154905080600883815481106126eb576126ea6130e3565b5b90600052602060002001819055508160096000838152602001908152602001600020819055506009600085815260200190815260200160002060009055600880548061273a57612739613d4b565b5b6001900381819060005260206000200160009055905550505050565b600061276183610b33565b905081600660008573ffffffffffffffffffffffffffffffffffffffff1673ffffffffffffffffffffffffffffffffffffffff168152602001908152602001600020600083815260200190815260200160002081905550806007600084815260200190815260200160002081905550505050565b8280546127e190612f8d565b90600052602060002090601f016020900481019282612803576000855561284a565b82601f1061281c57805160ff191683800117855561284a565b8280016001018555821561284a579182015b8281111561284957825182559160200191906001019061282e565b5b509050612857919061289b565b5090565b50805461286790612f8d565b6000825580601f106128795750612898565b601f016020900490600052602060002090810190612897919061289b565b5b50565b5b808211156128b457600081600090555060010161289c565b5090565b6000604051905090565b600080fd5b600080fd5b60007fffffffff0000000000000000000000000000000000000000000000000000000082169050919050565b612901816128cc565b811461290c57600080fd5b50565b60008135905061291e816128f8565b92915050565b60006020828403121561293a576129396128c2565b5b60006129488482850161290f565b91505092915050565b60008115159050919050565b61296681612951565b82525050565b6000602082019050612981600083018461295d565b92915050565b6000819050919050565b61299a81612987565b81146129a557600080fd5b50565b6000813590506129b781612991565b92915050565b6000602082840312156129d3576129d26128c2565b5b60006129e1848285016129a8565b91505092915050565b600081519050919050565b600082825260208201905092915050565b60005b83811015612a24578082015181840152602081019050612a09565b83811115612a33576000848401525b50505050565b6000601f19601f8301169050919050565b6000612a55826129ea565b612a5f81856129f5565b9350612a6f818560208601612a06565b612a7881612a39565b840191505092915050565b60006020820190508181036000830152612a9d8184612a4a565b905092915050565b600073ffffffffffffffffffffffffffffffffffffffff82169050919050565b6000612ad082612aa5565b9050919050565b612ae081612ac5565b82525050565b6000602082019050612afb6000830184612ad7565b92915050565b612b0a81612ac5565b8114612b1557600080fd5b50565b600081359050612b2781612b01565b92915050565b60008060408385031215612b4457612b436128c2565b5b6000612b5285828601612b18565b9250506020612b63858286016129a8565b9150509250929050565b600080fd5b7f4e487b7100000000000000000000000000000000000000000000000000000000600052604160045260246000fd5b612baa82612a39565b810181811067ffffffffffffffff82111715612bc957612bc8612b72565b5b80604052505050565b6000612bdc6128b8565b9050612be88282612ba1565b919050565b600067ffffffffffffffff821115612c0857612c07612b72565b5b602082029050919050565b600080fd5b6000612c2b612c2684612bed565b612bd2565b90508060208402830185811115612c4557612c44612c13565b5b835b81811015612c6e5780612c5a88826129a8565b845260208401935050602081019050612c47565b5050509392505050565b600082601f830112612c8d57612c8c612b6d565b5b6003612c9a848285612c18565b91505092915050565b600060608284031215612cb957612cb86128c2565b5b6000612cc784828501612c78565b91505092915050565b600060208284031215612ce657612ce56128c2565b5b6000612cf484828501612b18565b91505092915050565b612d0681612987565b82525050565b6000602082019050612d216000830184612cfd565b92915050565b600080600060608486031215612d4057612d3f6128c2565b5b6000612d4e86828701612b18565b9350506020612d5f86828701612b18565b9250506040612d70868287016129a8565b9150509250925092565b612d8381612951565b8114612d8e57600080fd5b50565b600081359050612da081612d7a565b92915050565b60008060408385031215612dbd57612dbc6128c2565b5b6000612dcb85828601612b18565b9250506020612ddc85828601612d91565b9150509250929050565b600080fd5b600067ffffffffffffffff821115612e0657612e05612b72565b5b612e0f82612a39565b9050602081019050919050565b82818337600083830152505050565b6000612e3e612e3984612deb565b612bd2565b905082815260208101848484011115612e5a57612e59612de6565b5b612e65848285612e1c565b509392505050565b600082601f830112612e8257612e81612b6d565b5b8135612e92848260208601612e2b565b91505092915050565b60008060008060808587031215612eb557612eb46128c2565b5b6000612ec387828801612b18565b9450506020612ed487828801612b18565b9350506040612ee5878288016129a8565b925050606085013567ffffffffffffffff811115612f0657612f056128c7565b5b612f1287828801612e6d565b91505092959194509250565b60008060408385031215612f3557612f346128c2565b5b6000612f4385828601612b18565b9250506020612f5485828601612b18565b9150509250929050565b7f4e487b7100000000000000000000000000000000000000000000000000000000600052602260045260246000fd5b60006002820490506001821680612fa557607f821691505b60208210811415612fb957612fb8612f5e565b5b50919050565b7f4552433732313a20617070726f76616c20746f2063757272656e74206f776e6560008201527f7200000000000000000000000000000000000000000000000000000000000000602082015250565b600061301b6021836129f5565b915061302682612fbf565b604082019050919050565b6000602082019050818103600083015261304a8161300e565b9050919050565b7f4552433732313a20617070726f76652063616c6c6572206973206e6f7420746f60008201527f6b656e206f776e6572206e6f7220617070726f76656420666f7220616c6c0000602082015250565b60006130ad603e836129f5565b91506130b882613051565b604082019050919050565b600060208201905081810360008301526130dc816130a0565b9050919050565b7f4e487b7100000000000000000000000000000000000000000000000000000000600052603260045260246000fd5b7f7573657220616c726561647920686173206d656d626572736869700000000000600082015250565b6000613148601b836129f5565b915061315382613112565b602082019050919050565b600060208201905081810360008301526131778161313b565b9050919050565b7f4552433732313a2063616c6c6572206973206e6f7420746f6b656e206f776e6560008201527f72206e6f7220617070726f766564000000000000000000000000000000000000602082015250565b60006131da602e836129f5565b91506131e58261317e565b604082019050919050565b60006020820190508181036000830152613209816131cd565b9050919050565b7f455243373231456e756d657261626c653a206f776e657220696e646578206f7560008201527f74206f6620626f756e6473000000000000000000000000000000000000000000602082015250565b600061326c602b836129f5565b915061327782613210565b604082019050919050565b6000602082019050818103600083015261329b8161325f565b9050919050565b7f455243373231456e756d657261626c653a20676c6f62616c20696e646578206f60008201527f7574206f6620626f756e64730000000000000000000000000000000000000000602082015250565b60006132fe602c836129f5565b9150613309826132a2565b604082019050919050565b6000602082019050818103600083015261332d816132f1565b9050919050565b7f4552433732313a20696e76616c696420746f6b656e2049440000000000000000600082015250565b600061336a6018836129f5565b915061337582613334565b602082019050919050565b600060208201905081810360008301526133998161335d565b9050919050565b7f4552433732313a2061646472657373207a65726f206973206e6f74206120766160008201527f6c6964206f776e65720000000000000000000000000000000000000000000000602082015250565b60006133fc6029836129f5565b9150613407826133a0565b604082019050919050565b6000602082019050818103600083015261342b816133ef565b9050919050565b7f7573657220646f65736e742068617665206d656d626572736869700000000000600082015250565b6000613468601b836129f5565b915061347382613432565b602082019050919050565b600060208201905081810360008301526134978161345b565b9050919050565b600081905092915050565b60006134b4826129ea565b6134be818561349e565b93506134ce818560208601612a06565b80840191505092915050565b60007fff0000000000000000000000000000000000000000000000000000000000000082169050919050565b6000819050919050565b61352161351c826134da565b613506565b82525050565b600061353382856134a9565b915061353f8284613510565b6001820191508190509392505050565b7f4f776e61626c653a206e6577206f776e657220697320746865207a65726f206160008201527f6464726573730000000000000000000000000000000000000000000000000000602082015250565b60006135ab6026836129f5565b91506135b68261354f565b604082019050919050565b600060208201905081810360008301526135da8161359e565b9050919050565b7f4f776e61626c653a2063616c6c6572206973206e6f7420746865206f776e6572600082015250565b60006136176020836129f5565b9150613622826135e1565b602082019050919050565b600060208201905081810360008301526136468161360a565b9050919050565b7f4552433732313a206d696e7420746f20746865207a65726f2061646472657373600082015250565b60006136836020836129f5565b915061368e8261364d565b602082019050919050565b600060208201905081810360008301526136b281613676565b9050919050565b7f4552433732313a20746f6b656e20616c7265616479206d696e74656400000000600082015250565b60006136ef601c836129f5565b91506136fa826136b9565b602082019050919050565b6000602082019050818103600083015261371e816136e2565b9050919050565b7f4e487b7100000000000000000000000000000000000000000000000000000000600052601160045260246000fd5b600061375f82612987565b915061376a83612987565b9250827fffffffffffffffffffffffffffffffffffffffffffffffffffffffffffffffff0382111561379f5761379e613725565b5b828201905092915050565b7f45524337323155524953746f726167653a2055524920736574206f66206e6f6e60008201527f6578697374656e7420746f6b656e000000000000000000000000000000000000602082015250565b6000613806602e836129f5565b9150613811826137aa565b604082019050919050565b60006020820190508181036000830152613835816137f9565b9050919050565b7f4552433732313a207472616e736665722066726f6d20696e636f72726563742060008201527f6f776e6572000000000000000000000000000000000000000000000000000000602082015250565b60006138986025836129f5565b91506138a38261383c565b604082019050919050565b600060208201905081810360008301526138c78161388b565b9050919050565b7f4552433732313a207472616e7366657220746f20746865207a65726f2061646460008201527f7265737300000000000000000000000000000000000000000000000000000000602082015250565b600061392a6024836129f5565b9150613935826138ce565b604082019050919050565b600060208201905081810360008301526139598161391d565b9050919050565b600061396b82612987565b915061397683612987565b92508282101561398957613988613725565b5b828203905092915050565b7f436f756e7465723a2064656372656d656e74206f766572666c6f770000000000600082015250565b60006139ca601b836129f5565b91506139d582613994565b602082019050919050565b600060208201905081810360008301526139f9816139bd565b9050919050565b7f4552433732313a20617070726f766520746f2063616c6c657200000000000000600082015250565b6000613a366019836129f5565b9150613a4182613a00565b602082019050919050565b60006020820190508181036000830152613a6581613a29565b9050919050565b7f4552433732313a207472616e7366657220746f206e6f6e20455243373231526560008201527f63656976657220696d706c656d656e7465720000000000000000000000000000602082015250565b6000613ac86032836129f5565b9150613ad382613a6c565b604082019050919050565b60006020820190508181036000830152613af781613abb565b9050919050565b6000613b0a82856134a9565b9150613b1682846134a9565b91508190509392505050565b7f5468697320746f6b656e20697320534254000000000000000000000000000000600082015250565b6000613b586011836129f5565b9150613b6382613b22565b602082019050919050565b60006020820190508181036000830152613b8781613b4b565b9050919050565b600081519050919050565b600082825260208201905092915050565b6000613bb582613b8e565b613bbf8185613b99565b9350613bcf818560208601612a06565b613bd881612a39565b840191505092915050565b6000608082019050613bf86000830187612ad7565b613c056020830186612ad7565b613c126040830185612cfd565b8181036060830152613c248184613baa565b905095945050505050565b600081519050613c3e816128f8565b92915050565b600060208284031215613c5a57613c596128c2565b5b6000613c6884828501613c2f565b91505092915050565b6000613c7c82612987565b91507fffffffffffffffffffffffffffffffffffffffffffffffffffffffffffffffff821415613caf57613cae613725565b5b600182019050919050565b7f4e487b7100000000000000000000000000000000000000000000000000000000600052601260045260246000fd5b6000613cf482612987565b9150613cff83612987565b925082613d0f57613d0e613cba565b5b828204905092915050565b6000613d2582612987565b9150613d3083612987565b925082613d4057613d3f613cba565b5b828206905092915050565b7f4e487b7100000000000000000000000000000000000000000000000000000000600052603160045260246000fdfea26469706673582212208ab80502f551d81225b0a653e324d2c072c7c47190d1a8c9da737cb9015bd5a664736f6c63430008090033",
  "devdoc": {
    "kind": "dev",
    "methods": {
      "approve(address,uint256)": {
        "details": "See {IERC721-approve}."
      },
      "balanceOf(address)": {
        "details": "See {IERC721-balanceOf}."
      },
      "getApproved(uint256)": {
        "details": "See {IERC721-getApproved}."
      },
      "isApprovedForAll(address,address)": {
        "details": "See {IERC721-isApprovedForAll}."
      },
      "name()": {
        "details": "See {IERC721Metadata-name}."
      },
      "owner()": {
        "details": "Returns the address of the current owner."
      },
      "ownerOf(uint256)": {
        "details": "See {IERC721-ownerOf}."
      },
      "renounceOwnership()": {
        "details": "Leaves the contract without owner. It will not be possible to call `onlyOwner` functions anymore. Can only be called by the current owner. NOTE: Renouncing ownership will leave the contract without an owner, thereby removing any functionality that is only available to the owner."
      },
      "safeTransferFrom(address,address,uint256)": {
        "details": "See {IERC721-safeTransferFrom}."
      },
      "safeTransferFrom(address,address,uint256,bytes)": {
        "details": "See {IERC721-safeTransferFrom}."
      },
      "setApprovalForAll(address,bool)": {
        "details": "See {IERC721-setApprovalForAll}."
      },
      "symbol()": {
        "details": "See {IERC721Metadata-symbol}."
      },
      "tokenByIndex(uint256)": {
        "details": "See {IERC721Enumerable-tokenByIndex}."
      },
      "tokenOfOwnerByIndex(address,uint256)": {
        "details": "See {IERC721Enumerable-tokenOfOwnerByIndex}."
      },
      "totalSupply()": {
        "details": "See {IERC721Enumerable-totalSupply}."
      },
      "transferFrom(address,address,uint256)": {
        "details": "See {IERC721-transferFrom}."
      },
      "transferOwnership(address)": {
        "details": "Transfers ownership of the contract to a new account (`newOwner`). Can only be called by the current owner."
      }
    },
    "version": 1
  },
  "userdoc": {
    "kind": "user",
    "methods": {},
    "version": 1
  },
  "storageLayout": {
    "storage": [
      {
        "astId": 1307,
        "contract": "contracts/LepakMembership.sol:LepakMembership",
        "label": "_name",
        "offset": 0,
        "slot": "0",
        "type": "t_string_storage"
      },
      {
        "astId": 1309,
        "contract": "contracts/LepakMembership.sol:LepakMembership",
        "label": "_symbol",
        "offset": 0,
        "slot": "1",
        "type": "t_string_storage"
      },
      {
        "astId": 1313,
        "contract": "contracts/LepakMembership.sol:LepakMembership",
        "label": "_owners",
        "offset": 0,
        "slot": "2",
        "type": "t_mapping(t_uint256,t_address)"
      },
      {
        "astId": 1317,
        "contract": "contracts/LepakMembership.sol:LepakMembership",
        "label": "_balances",
        "offset": 0,
        "slot": "3",
        "type": "t_mapping(t_address,t_uint256)"
      },
      {
        "astId": 1321,
        "contract": "contracts/LepakMembership.sol:LepakMembership",
        "label": "_tokenApprovals",
        "offset": 0,
        "slot": "4",
        "type": "t_mapping(t_uint256,t_address)"
      },
      {
        "astId": 1327,
        "contract": "contracts/LepakMembership.sol:LepakMembership",
        "label": "_operatorApprovals",
        "offset": 0,
        "slot": "5",
        "type": "t_mapping(t_address,t_mapping(t_address,t_bool))"
      },
      {
        "astId": 2297,
        "contract": "contracts/LepakMembership.sol:LepakMembership",
        "label": "_ownedTokens",
        "offset": 0,
        "slot": "6",
        "type": "t_mapping(t_address,t_mapping(t_uint256,t_uint256))"
      },
      {
        "astId": 2301,
        "contract": "contracts/LepakMembership.sol:LepakMembership",
        "label": "_ownedTokensIndex",
        "offset": 0,
        "slot": "7",
        "type": "t_mapping(t_uint256,t_uint256)"
      },
      {
        "astId": 2304,
        "contract": "contracts/LepakMembership.sol:LepakMembership",
        "label": "_allTokens",
        "offset": 0,
        "slot": "8",
        "type": "t_array(t_uint256)dyn_storage"
      },
      {
        "astId": 2308,
        "contract": "contracts/LepakMembership.sol:LepakMembership",
        "label": "_allTokensIndex",
        "offset": 0,
        "slot": "9",
        "type": "t_mapping(t_uint256,t_uint256)"
      },
      {
        "astId": 2633,
        "contract": "contracts/LepakMembership.sol:LepakMembership",
        "label": "_tokenURIs",
        "offset": 0,
        "slot": "10",
        "type": "t_mapping(t_uint256,t_string_storage)"
      },
      {
        "astId": 7,
        "contract": "contracts/LepakMembership.sol:LepakMembership",
        "label": "_owner",
        "offset": 0,
        "slot": "11",
        "type": "t_address"
      },
      {
        "astId": 4894,
        "contract": "contracts/LepakMembership.sol:LepakMembership",
        "label": "initialized",
        "offset": 20,
        "slot": "11",
        "type": "t_bool"
      },
      {
        "astId": 4896,
        "contract": "contracts/LepakMembership.sol:LepakMembership",
        "label": "baseTokenURI",
        "offset": 0,
        "slot": "12",
        "type": "t_string_storage"
      },
      {
        "astId": 4899,
        "contract": "contracts/LepakMembership.sol:LepakMembership",
        "label": "_tokenIds",
        "offset": 0,
        "slot": "13",
        "type": "t_struct(Counter)3126_storage"
      },
      {
        "astId": 4903,
        "contract": "contracts/LepakMembership.sol:LepakMembership",
        "label": "thresholds",
        "offset": 0,
        "slot": "14",
        "type": "t_array(t_uint256)3_storage"
      },
      {
        "astId": 4906,
        "contract": "contracts/LepakMembership.sol:LepakMembership",
        "label": "currentPriceEth",
        "offset": 0,
        "slot": "17",
        "type": "t_uint256"
      }
    ],
    "types": {
      "t_address": {
        "encoding": "inplace",
        "label": "address",
        "numberOfBytes": "20"
      },
      "t_array(t_uint256)3_storage": {
        "base": "t_uint256",
        "encoding": "inplace",
        "label": "uint256[3]",
        "numberOfBytes": "96"
      },
      "t_array(t_uint256)dyn_storage": {
        "base": "t_uint256",
        "encoding": "dynamic_array",
        "label": "uint256[]",
        "numberOfBytes": "32"
      },
      "t_bool": {
        "encoding": "inplace",
        "label": "bool",
        "numberOfBytes": "1"
      },
      "t_mapping(t_address,t_bool)": {
        "encoding": "mapping",
        "key": "t_address",
        "label": "mapping(address => bool)",
        "numberOfBytes": "32",
        "value": "t_bool"
      },
      "t_mapping(t_address,t_mapping(t_address,t_bool))": {
        "encoding": "mapping",
        "key": "t_address",
        "label": "mapping(address => mapping(address => bool))",
        "numberOfBytes": "32",
        "value": "t_mapping(t_address,t_bool)"
      },
      "t_mapping(t_address,t_mapping(t_uint256,t_uint256))": {
        "encoding": "mapping",
        "key": "t_address",
        "label": "mapping(address => mapping(uint256 => uint256))",
        "numberOfBytes": "32",
        "value": "t_mapping(t_uint256,t_uint256)"
      },
      "t_mapping(t_address,t_uint256)": {
        "encoding": "mapping",
        "key": "t_address",
        "label": "mapping(address => uint256)",
        "numberOfBytes": "32",
        "value": "t_uint256"
      },
      "t_mapping(t_uint256,t_address)": {
        "encoding": "mapping",
        "key": "t_uint256",
        "label": "mapping(uint256 => address)",
        "numberOfBytes": "32",
        "value": "t_address"
      },
      "t_mapping(t_uint256,t_string_storage)": {
        "encoding": "mapping",
        "key": "t_uint256",
        "label": "mapping(uint256 => string)",
        "numberOfBytes": "32",
        "value": "t_string_storage"
      },
      "t_mapping(t_uint256,t_uint256)": {
        "encoding": "mapping",
        "key": "t_uint256",
        "label": "mapping(uint256 => uint256)",
        "numberOfBytes": "32",
        "value": "t_uint256"
      },
      "t_string_storage": {
        "encoding": "bytes",
        "label": "string",
        "numberOfBytes": "32"
      },
      "t_struct(Counter)3126_storage": {
        "encoding": "inplace",
        "label": "struct Counters.Counter",
        "members": [
          {
            "astId": 3125,
            "contract": "contracts/LepakMembership.sol:LepakMembership",
            "label": "_value",
            "offset": 0,
            "slot": "0",
            "type": "t_uint256"
          }
        ],
        "numberOfBytes": "32"
      },
      "t_uint256": {
        "encoding": "inplace",
        "label": "uint256",
        "numberOfBytes": "32"
      }
    }
  }
}