{
  "_format": "hh-sol-artifact-1",
  "contractName": "OracleManager",
  "sourceName": "contracts/OracleManager.sol",
  "abi": [
    {
      "inputs": [],
      "stateMutability": "nonpayable",
      "type": "constructor"
    },
    {
      "inputs": [],
      "name": "EthPrice",
      "outputs": [
        {
          "internalType": "uint256",
          "name": "",
          "type": "uint256"
        }
      ],
      "stateMutability": "view",
      "type": "function"
    },
    {
      "inputs": [],
      "name": "_tellorAddress",
      "outputs": [
        {
          "internalType": "address payable",
          "name": "",
          "type": "address"
        }
      ],
      "stateMutability": "view",
      "type": "function"
    },
    {
      "inputs": [],
      "name": "btcQueryId",
      "outputs": [
        {
          "internalType": "bytes32",
          "name": "",
          "type": "bytes32"
        }
      ],
      "stateMutability": "view",
      "type": "function"
    },
    {
      "inputs": [],
      "name": "getBTCPrice",
      "outputs": [
        {
          "internalType": "uint256",
          "name": "value",
          "type": "uint256"
        }
      ],
      "stateMutability": "view",
      "type": "function"
    },
    {
      "inputs": [
        {
          "internalType": "bytes32",
          "name": "_queryId",
          "type": "bytes32"
        }
      ],
      "name": "getCurrentValue",
      "outputs": [
        {
          "internalType": "bool",
          "name": "_ifRetrieve",
          "type": "bool"
        },
        {
          "internalType": "bytes",
          "name": "_value",
          "type": "bytes"
        },
        {
          "internalType": "uint256",
          "name": "_timestampRetrieved",
          "type": "uint256"
        }
      ],
      "stateMutability": "view",
      "type": "function"
    },
    {
      "inputs": [
        {
          "internalType": "bytes32",
          "name": "_queryId",
          "type": "bytes32"
        },
        {
          "internalType": "uint256",
          "name": "_timestamp",
          "type": "uint256"
        }
      ],
      "name": "getDataBefore",
      "outputs": [
        {
          "internalType": "bool",
          "name": "_ifRetrieve",
          "type": "bool"
        },
        {
          "internalType": "bytes",
          "name": "_value",
          "type": "bytes"
        },
        {
          "internalType": "uint256",
          "name": "_timestampRetrieved",
          "type": "uint256"
        }
      ],
      "stateMutability": "view",
      "type": "function"
    },
    {
      "inputs": [
        {
          "internalType": "bytes32",
          "name": "_queryId",
          "type": "bytes32"
        },
        {
          "internalType": "uint256",
          "name": "_timestamp",
          "type": "uint256"
        }
      ],
      "name": "getIndexForDataBefore",
      "outputs": [
        {
          "internalType": "bool",
          "name": "_found",
          "type": "bool"
        },
        {
          "internalType": "uint256",
          "name": "_index",
          "type": "uint256"
        }
      ],
      "stateMutability": "view",
      "type": "function"
    },
    {
      "inputs": [
        {
          "internalType": "bytes32",
          "name": "_queryId",
          "type": "bytes32"
        }
      ],
      "name": "getNewValueCountbyQueryId",
      "outputs": [
        {
          "internalType": "uint256",
          "name": "",
          "type": "uint256"
        }
      ],
      "stateMutability": "view",
      "type": "function"
    },
    {
      "inputs": [
        {
          "internalType": "bytes32",
          "name": "_queryId",
          "type": "bytes32"
        },
        {
          "internalType": "uint256",
          "name": "_index",
          "type": "uint256"
        }
      ],
      "name": "getTimestampbyQueryIdandIndex",
      "outputs": [
        {
          "internalType": "uint256",
          "name": "",
          "type": "uint256"
        }
      ],
      "stateMutability": "view",
      "type": "function"
    },
    {
      "inputs": [],
      "name": "getUSDCPrice",
      "outputs": [
        {
          "internalType": "uint256",
          "name": "value",
          "type": "uint256"
        }
      ],
      "stateMutability": "view",
      "type": "function"
    },
    {
      "inputs": [
        {
          "internalType": "bytes32",
          "name": "_queryId",
          "type": "bytes32"
        },
        {
          "internalType": "uint256",
          "name": "_timestamp",
          "type": "uint256"
        }
      ],
      "name": "isInDispute",
      "outputs": [
        {
          "internalType": "bool",
          "name": "",
          "type": "bool"
        }
      ],
      "stateMutability": "view",
      "type": "function"
    },
    {
      "inputs": [
        {
          "internalType": "bytes32",
          "name": "_queryId",
          "type": "bytes32"
        },
        {
          "internalType": "uint256",
          "name": "_timestamp",
          "type": "uint256"
        }
      ],
      "name": "retrieveData",
      "outputs": [
        {
          "internalType": "bytes",
          "name": "",
          "type": "bytes"
        }
      ],
      "stateMutability": "view",
      "type": "function"
    },
    {
      "inputs": [],
      "name": "tellor",
      "outputs": [
        {
          "internalType": "contract ITellor",
          "name": "",
          "type": "address"
        }
      ],
      "stateMutability": "view",
      "type": "function"
    },
    {
      "inputs": [],
      "name": "usdcQueryId",
      "outputs": [
        {
          "internalType": "bytes32",
          "name": "",
          "type": "bytes32"
        }
      ],
      "stateMutability": "view",
      "type": "function"
    }
  ],
  "bytecode": "0x60806040527fa6f013ee236804827b77696d350e9f0ac3e879328f2a3021d473a0b778ad78ac60001b6002557f8ee44cd434ed5b0e007eee581fbe0855336f3f84484e8d9989a620a4a49aa0f760001b60035573840c23e39f9d029ffa888f47069aa6864f0401d7600460006101000a81548173ffffffffffffffffffffffffffffffffffffffff021916908373ffffffffffffffffffffffffffffffffffffffff1602179055503480156100b357600080fd5b50600460009054906101000a900473ffffffffffffffffffffffffffffffffffffffff16806000806101000a81548173ffffffffffffffffffffffffffffffffffffffff021916908373ffffffffffffffffffffffffffffffffffffffff1602179055505061195f806101276000396000f3fe608060405234801561001057600080fd5b50600436106100ea5760003560e01c8063971878f11161008c578063adf1639d11610066578063adf1639d14610266578063c5958af914610298578063ce5e11bf146102c8578063dd22db80146102f8576100ea565b8063971878f1146101f85780639d46fd0a14610216578063a792765f14610234576100ea565b806344e87f91116100c857806344e87f911461015c5780634ad517bc1461018c57806369800dce146101aa57806377b03e0d146101c8576100ea565b80631959ad5b146100ef578063294490851461010d5780632cc812bc1461013e575b600080fd5b6100f7610316565b60405161010491906110f9565b60405180910390f35b61012760048036038101906101229190611194565b61033a565b6040516101359291906111fe565b60405180910390f35b6101466104b5565b6040516101539190611227565b60405180910390f35b61017660048036038101906101719190611194565b6104bb565b6040516101839190611242565b60405180910390f35b6101946107be565b6040516101a19190611227565b60405180910390f35b6101b26107f4565b6040516101bf919061126c565b60405180910390f35b6101e260048036038101906101dd9190611287565b6107fa565b6040516101ef9190611227565b60405180910390f35b610200610a2f565b60405161020d919061126c565b60405180910390f35b61021e610a35565b60405161022b91906112d5565b60405180910390f35b61024e60048036038101906102499190611194565b610a5b565b60405161025d93929190611389565b60405180910390f35b610280600480360381019061027b9190611287565b610b0d565b60405161028f93929190611389565b60405180910390f35b6102b260048036038101906102ad9190611194565b610bc6565b6040516102bf91906113c7565b60405180910390f35b6102e260048036038101906102dd9190611194565b610e0a565b6040516102ef9190611227565b60405180910390f35b610300611044565b60405161030d9190611227565b60405180910390f35b60008054906101000a900473ffffffffffffffffffffffffffffffffffffffff1681565b6000806000610348856107fa565b905060008111156104a5576000806000905060006001846103699190611418565b905060006103778984610e0a565b9050878110610391576000809650965050505050506104ae565b61039b8983610e0a565b9050878110156103b6576001829650965050505050506104ae565b5b6001156104a057826001600285856103cf9190611418565b6103d9919061147b565b6103e391906114ac565b6103ed91906114ac565b93506103f98985610e0a565b90508781101561044b57600061041b8a60018761041691906114ac565b610e0a565b905088811061043657600185975097505050505050506104ae565b60018561044391906114ac565b93505061049b565b60006104638a60018761045e9190611418565b610e0a565b90508881101561048a576001808661047b9190611418565b975097505050505050506104ae565b6001856104979190611418565b9250505b6103b7565b505050505b60008092509250505b9250929050565b60015481565b6000807318431fd88adf138e8b979a7246eb58ea7126ea1673ffffffffffffffffffffffffffffffffffffffff1660008054906101000a900473ffffffffffffffffffffffffffffffffffffffff1673ffffffffffffffffffffffffffffffffffffffff16148061058b575073e8218cacb0a5421bc6409e498d9f8cc8869945ea73ffffffffffffffffffffffffffffffffffffffff1660008054906101000a900473ffffffffffffffffffffffffffffffffffffffff1673ffffffffffffffffffffffffffffffffffffffff16145b1561065a5760007388df592f8eb5d7bd38bfef7deb0fbc02cf3778a090508073ffffffffffffffffffffffffffffffffffffffff1663699f200f7fefa19baa864049f50491093580c5433e97e8d5e41f8db1a61108b4fa44cacd936040518263ffffffff1660e01b8152600401610602919061154a565b60206040518083038186803b15801561061a57600080fd5b505afa15801561062e573d6000803e3d6000fd5b505050506040513d601f19601f8201168201806040525081019061065291906115a3565b9150506106fb565b60008054906101000a900473ffffffffffffffffffffffffffffffffffffffff1673ffffffffffffffffffffffffffffffffffffffff16635aa6e6756040518163ffffffff1660e01b815260040160206040518083038186803b1580156106c057600080fd5b505afa1580156106d4573d6000803e3d6000fd5b505050506040513d601f19601f820116820180604052508101906106f891906115a3565b90505b60008173ffffffffffffffffffffffffffffffffffffffff1663248638e5868660405160200161072c929190611612565b604051602081830303815290604052805190602001206040518263ffffffff1660e01b815260040161075e919061126c565b60006040518083038186803b15801561077657600080fd5b505afa15801561078a573d6000803e3d6000fd5b505050506040513d6000823e3d601f19601f820116820180604052508101906107b3919061179b565b511191505092915050565b60008060006107dc600354611c20426107d79190611418565b610a5b565b509150915081156107ef57602081015192505b505090565b60035481565b60007318431fd88adf138e8b979a7246eb58ea7126ea1673ffffffffffffffffffffffffffffffffffffffff1660008054906101000a900473ffffffffffffffffffffffffffffffffffffffff1673ffffffffffffffffffffffffffffffffffffffff1614806108c9575073e8218cacb0a5421bc6409e498d9f8cc8869945ea73ffffffffffffffffffffffffffffffffffffffff1660008054906101000a900473ffffffffffffffffffffffffffffffffffffffff1673ffffffffffffffffffffffffffffffffffffffff16145b1561097e5760008054906101000a900473ffffffffffffffffffffffffffffffffffffffff1673ffffffffffffffffffffffffffffffffffffffff166335e72432836040518263ffffffff1660e01b8152600401610927919061126c565b60206040518083038186803b15801561093f57600080fd5b505afa158015610953573d6000803e3d6000fd5b505050506040513d601f19601f8201168201806040525081019061097791906117e4565b9050610a2a565b60008054906101000a900473ffffffffffffffffffffffffffffffffffffffff1673ffffffffffffffffffffffffffffffffffffffff166377b03e0d836040518263ffffffff1660e01b81526004016109d7919061126c565b60206040518083038186803b1580156109ef57600080fd5b505afa158015610a03573d6000803e3d6000fd5b505050506040513d601f19601f82011682018060405250810190610a2791906117e4565b90505b919050565b60025481565b600460009054906101000a900473ffffffffffffffffffffffffffffffffffffffff1681565b600060606000806000610a6e878761033a565b9150915081610a985760006040518060200160405280600081525060009450945094505050610b06565b6000610aa48883610e0a565b9050610ab08882610bc6565b94506040518060200160405280600081525080519060200120858051906020012014610ae85760018582955095509550505050610b06565b60006040518060200160405280600081525060009550955095505050505b9250925092565b60006060600080610b1d856107fa565b90506000811415610b4857600060405180602001604052806000815250600093509350935050610bbf565b6000610b6086600184610b5b9190611418565b610e0a565b9050610b6c8682610bc6565b93506040518060200160405280600081525080519060200120848051906020012014610ba357600184829450945094505050610bbf565b6000604051806020016040528060008152508294509450945050505b9193909250565b60607318431fd88adf138e8b979a7246eb58ea7126ea1673ffffffffffffffffffffffffffffffffffffffff1660008054906101000a900473ffffffffffffffffffffffffffffffffffffffff1673ffffffffffffffffffffffffffffffffffffffff161480610c95575073e8218cacb0a5421bc6409e498d9f8cc8869945ea73ffffffffffffffffffffffffffffffffffffffff1660008054906101000a900473ffffffffffffffffffffffffffffffffffffffff1673ffffffffffffffffffffffffffffffffffffffff16145b15610d515760008054906101000a900473ffffffffffffffffffffffffffffffffffffffff1673ffffffffffffffffffffffffffffffffffffffff16630b2d2b0d84846040518363ffffffff1660e01b8152600401610cf5929190611811565b60006040518083038186803b158015610d0d57600080fd5b505afa158015610d21573d6000803e3d6000fd5b505050506040513d6000823e3d601f19601f82011682018060405250810190610d4a91906118e0565b9050610e04565b60008054906101000a900473ffffffffffffffffffffffffffffffffffffffff1673ffffffffffffffffffffffffffffffffffffffff1663c5958af984846040518363ffffffff1660e01b8152600401610dac929190611811565b60006040518083038186803b158015610dc457600080fd5b505afa158015610dd8573d6000803e3d6000fd5b505050506040513d6000823e3d601f19601f82011682018060405250810190610e0191906118e0565b90505b92915050565b60007318431fd88adf138e8b979a7246eb58ea7126ea1673ffffffffffffffffffffffffffffffffffffffff1660008054906101000a900473ffffffffffffffffffffffffffffffffffffffff1673ffffffffffffffffffffffffffffffffffffffff161480610ed9575073e8218cacb0a5421bc6409e498d9f8cc8869945ea73ffffffffffffffffffffffffffffffffffffffff1660008054906101000a900473ffffffffffffffffffffffffffffffffffffffff1673ffffffffffffffffffffffffffffffffffffffff16145b15610f905760008054906101000a900473ffffffffffffffffffffffffffffffffffffffff1673ffffffffffffffffffffffffffffffffffffffff16637c37b8b484846040518363ffffffff1660e01b8152600401610f39929190611811565b60206040518083038186803b158015610f5157600080fd5b505afa158015610f65573d6000803e3d6000fd5b505050506040513d601f19601f82011682018060405250810190610f8991906117e4565b905061103e565b60008054906101000a900473ffffffffffffffffffffffffffffffffffffffff1673ffffffffffffffffffffffffffffffffffffffff1663ce5e11bf84846040518363ffffffff1660e01b8152600401610feb929190611811565b60206040518083038186803b15801561100357600080fd5b505afa158015611017573d6000803e3d6000fd5b505050506040513d601f19601f8201168201806040525081019061103b91906117e4565b90505b92915050565b6000806000611062600254611c204261105d9190611418565b610a5b565b5091509150811561107557602081015192505b505090565b600073ffffffffffffffffffffffffffffffffffffffff82169050919050565b6000819050919050565b60006110bf6110ba6110b58461107a565b61109a565b61107a565b9050919050565b60006110d1826110a4565b9050919050565b60006110e3826110c6565b9050919050565b6110f3816110d8565b82525050565b600060208201905061110e60008301846110ea565b92915050565b6000604051905090565b600080fd5b600080fd5b6000819050919050565b61113b81611128565b811461114657600080fd5b50565b60008135905061115881611132565b92915050565b6000819050919050565b6111718161115e565b811461117c57600080fd5b50565b60008135905061118e81611168565b92915050565b600080604083850312156111ab576111aa61111e565b5b60006111b985828601611149565b92505060206111ca8582860161117f565b9150509250929050565b60008115159050919050565b6111e9816111d4565b82525050565b6111f88161115e565b82525050565b600060408201905061121360008301856111e0565b61122060208301846111ef565b9392505050565b600060208201905061123c60008301846111ef565b92915050565b600060208201905061125760008301846111e0565b92915050565b61126681611128565b82525050565b6000602082019050611281600083018461125d565b92915050565b60006020828403121561129d5761129c61111e565b5b60006112ab84828501611149565b91505092915050565b60006112bf8261107a565b9050919050565b6112cf816112b4565b82525050565b60006020820190506112ea60008301846112c6565b92915050565b600081519050919050565b600082825260208201905092915050565b60005b8381101561132a57808201518184015260208101905061130f565b83811115611339576000848401525b50505050565b6000601f19601f8301169050919050565b600061135b826112f0565b61136581856112fb565b935061137581856020860161130c565b61137e8161133f565b840191505092915050565b600060608201905061139e60008301866111e0565b81810360208301526113b08185611350565b90506113bf60408301846111ef565b949350505050565b600060208201905081810360008301526113e18184611350565b905092915050565b7f4e487b7100000000000000000000000000000000000000000000000000000000600052601160045260246000fd5b60006114238261115e565b915061142e8361115e565b925082821015611441576114406113e9565b5b828203905092915050565b7f4e487b7100000000000000000000000000000000000000000000000000000000600052601260045260246000fd5b60006114868261115e565b91506114918361115e565b9250826114a1576114a061144c565b5b828204905092915050565b60006114b78261115e565b91506114c28361115e565b9250827fffffffffffffffffffffffffffffffffffffffffffffffffffffffffffffffff038211156114f7576114f66113e9565b5b828201905092915050565b6000819050919050565b60008160001b9050919050565b600061153461152f61152a84611502565b61150c565b611128565b9050919050565b61154481611519565b82525050565b600060208201905061155f600083018461153b565b92915050565b60006115708261107a565b9050919050565b61158081611565565b811461158b57600080fd5b50565b60008151905061159d81611577565b92915050565b6000602082840312156115b9576115b861111e565b5b60006115c78482850161158e565b91505092915050565b6000819050919050565b6115eb6115e682611128565b6115d0565b82525050565b6000819050919050565b61160c6116078261115e565b6115f1565b82525050565b600061161e82856115da565b60208201915061162e82846115fb565b6020820191508190509392505050565b600080fd5b7f4e487b7100000000000000000000000000000000000000000000000000000000600052604160045260246000fd5b61167b8261133f565b810181811067ffffffffffffffff8211171561169a57611699611643565b5b80604052505050565b60006116ad611114565b90506116b98282611672565b919050565b600067ffffffffffffffff8211156116d9576116d8611643565b5b602082029050602081019050919050565b600080fd5b6000815190506116fe81611168565b92915050565b6000611717611712846116be565b6116a3565b9050808382526020820190506020840283018581111561173a576117396116ea565b5b835b81811015611763578061174f88826116ef565b84526020840193505060208101905061173c565b5050509392505050565b600082601f8301126117825761178161163e565b5b8151611792848260208601611704565b91505092915050565b6000602082840312156117b1576117b061111e565b5b600082015167ffffffffffffffff8111156117cf576117ce611123565b5b6117db8482850161176d565b91505092915050565b6000602082840312156117fa576117f961111e565b5b6000611808848285016116ef565b91505092915050565b6000604082019050611826600083018561125d565b61183360208301846111ef565b9392505050565b600080fd5b600067ffffffffffffffff82111561185a57611859611643565b5b6118638261133f565b9050602081019050919050565b600061188361187e8461183f565b6116a3565b90508281526020810184848401111561189f5761189e61183a565b5b6118aa84828561130c565b509392505050565b600082601f8301126118c7576118c661163e565b5b81516118d7848260208601611870565b91505092915050565b6000602082840312156118f6576118f561111e565b5b600082015167ffffffffffffffff81111561191457611913611123565b5b611920848285016118b2565b9150509291505056fea26469706673582212209e7401242d73a5cf6469357d02a1d5507c043fbc7bd7f8bcc85a235ca309eb1464736f6c63430008090033",
  "linkReferences": {},
  "deployedLinkReferences": {}
}